{
  "contractName": "ActivityLimiter",
  "abi": [
    {
      "constant": true,
      "inputs": [
        {
          "name": "",
          "type": "address"
        }
      ],
      "name": "owners",
      "outputs": [
        {
          "name": "isOwner",
          "type": "bool"
        },
        {
          "name": "index",
          "type": "uint256"
        }
      ],
      "payable": false,
      "stateMutability": "view",
      "type": "function"
    },
    {
      "constant": true,
      "inputs": [
        {
          "name": "",
          "type": "uint256"
        }
      ],
      "name": "ownersLUT",
      "outputs": [
        {
          "name": "",
          "type": "address"
        }
      ],
      "payable": false,
      "stateMutability": "view",
      "type": "function"
    },
    {
      "constant": false,
      "inputs": [
        {
          "name": "_owner",
          "type": "address"
        }
      ],
      "name": "removeOwner",
      "outputs": [],
      "payable": false,
      "stateMutability": "nonpayable",
      "type": "function"
    },
    {
      "constant": true,
      "inputs": [],
      "name": "defaultOwner",
      "outputs": [
        {
          "name": "",
          "type": "address"
        }
      ],
      "payable": false,
      "stateMutability": "view",
      "type": "function"
    },
    {
      "constant": true,
      "inputs": [
        {
          "name": "",
          "type": "uint16"
        }
      ],
      "name": "weightTable",
      "outputs": [
        {
          "name": "",
          "type": "uint256"
        }
      ],
      "payable": false,
      "stateMutability": "view",
      "type": "function"
    },
    {
      "constant": true,
      "inputs": [],
      "name": "capacity",
      "outputs": [
        {
          "name": "",
          "type": "uint256"
        }
      ],
      "payable": false,
      "stateMutability": "view",
      "type": "function"
    },
    {
      "constant": true,
      "inputs": [
        {
          "name": "",
          "type": "address"
        }
      ],
      "name": "consumption",
      "outputs": [
        {
          "name": "balance",
          "type": "uint256"
        },
        {
          "name": "queryTime",
          "type": "uint256"
        }
      ],
      "payable": false,
      "stateMutability": "view",
      "type": "function"
    },
    {
      "constant": false,
      "inputs": [
        {
          "name": "newOwner",
          "type": "address"
        }
      ],
      "name": "addOwner",
      "outputs": [],
      "payable": false,
      "stateMutability": "nonpayable",
      "type": "function"
    },
    {
      "constant": true,
      "inputs": [],
      "name": "sumConsumptionThisInterval",
      "outputs": [
        {
          "name": "",
          "type": "uint256"
        }
      ],
      "payable": false,
      "stateMutability": "view",
      "type": "function"
    },
    {
      "constant": true,
      "inputs": [],
      "name": "intervalStart",
      "outputs": [
        {
          "name": "",
          "type": "uint256"
        }
      ],
      "payable": false,
      "stateMutability": "view",
      "type": "function"
    },
    {
      "constant": false,
      "inputs": [
        {
          "name": "_cp",
          "type": "address"
        }
      ],
      "name": "setContractProvider",
      "outputs": [
        {
          "name": "",
          "type": "bool"
        }
      ],
      "payable": false,
      "stateMutability": "nonpayable",
      "type": "function"
    },
    {
      "constant": true,
      "inputs": [],
      "name": "beta",
      "outputs": [
        {
          "name": "",
          "type": "uint256"
        }
      ],
      "payable": false,
      "stateMutability": "view",
      "type": "function"
    },
    {
      "constant": true,
      "inputs": [],
      "name": "tokenMultiplier",
      "outputs": [
        {
          "name": "",
          "type": "uint256"
        }
      ],
      "payable": false,
      "stateMutability": "view",
      "type": "function"
    },
    {
      "constant": true,
      "inputs": [],
      "name": "precision",
      "outputs": [
        {
          "name": "",
          "type": "uint256"
        }
      ],
      "payable": false,
      "stateMutability": "view",
      "type": "function"
    },
    {
      "constant": true,
      "inputs": [],
      "name": "intervalLength",
      "outputs": [
        {
          "name": "",
          "type": "uint256"
        }
      ],
      "payable": false,
      "stateMutability": "view",
      "type": "function"
    },
    {
      "inputs": [],
      "payable": false,
      "stateMutability": "nonpayable",
      "type": "constructor"
    },
    {
      "anonymous": false,
      "inputs": [
        {
          "indexed": false,
          "name": "prevTokenConsumption",
          "type": "uint256"
        },
        {
          "indexed": true,
          "name": "startTime",
          "type": "uint256"
        }
      ],
      "name": "LogNewInterval",
      "type": "event"
    },
    {
      "anonymous": false,
      "inputs": [
        {
          "indexed": true,
          "name": "timestamp",
          "type": "uint256"
        },
        {
          "indexed": false,
          "name": "_intervaLength",
          "type": "uint256"
        },
        {
          "indexed": false,
          "name": "_capacity",
          "type": "uint256"
        },
        {
          "indexed": false,
          "name": "_precision",
          "type": "uint256"
        },
        {
          "indexed": false,
          "name": "_beta",
          "type": "uint256"
        }
      ],
      "name": "LogParameterUpdate",
      "type": "event"
    },
    {
      "anonymous": false,
      "inputs": [
        {
          "indexed": true,
          "name": "ownerAddress",
          "type": "address"
        },
        {
          "indexed": true,
          "name": "addedBy",
          "type": "address"
        }
      ],
      "name": "OwnerAdded",
      "type": "event"
    },
    {
      "anonymous": false,
      "inputs": [
        {
          "indexed": true,
          "name": "ownerAddress",
          "type": "address"
        },
        {
          "indexed": true,
          "name": "removedBy",
          "type": "address"
        }
      ],
      "name": "OwnerRemoved",
      "type": "event"
    },
    {
      "constant": false,
      "inputs": [
        {
          "name": "_intervalLength",
          "type": "uint256"
        },
        {
          "name": "_capacity",
          "type": "uint256"
        },
        {
          "name": "_precision",
          "type": "uint256"
        },
        {
          "name": "_beta",
          "type": "uint256"
        }
      ],
      "name": "setParameters",
      "outputs": [
        {
          "name": "",
          "type": "bool"
        }
      ],
      "payable": false,
      "stateMutability": "nonpayable",
      "type": "function"
    },
    {
      "constant": false,
      "inputs": [
        {
          "name": "activity",
          "type": "uint16"
        },
        {
          "name": "weight",
          "type": "uint256"
        }
      ],
      "name": "setWeight",
      "outputs": [
        {
          "name": "",
          "type": "bool"
        }
      ],
      "payable": false,
      "stateMutability": "nonpayable",
      "type": "function"
    },
    {
      "constant": false,
      "inputs": [
        {
          "name": "x",
          "type": "uint256"
        }
      ],
      "name": "getMultiple",
      "outputs": [
        {
          "name": "",
          "type": "uint256"
        }
      ],
      "payable": false,
      "stateMutability": "nonpayable",
      "type": "function"
    },
    {
      "constant": false,
      "inputs": [
        {
          "name": "activity",
          "type": "uint8"
        }
      ],
      "name": "performAction",
      "outputs": [],
      "payable": false,
      "stateMutability": "nonpayable",
      "type": "function"
    }
  ],
  "bytecode": "0x606060405262093a80600355620f4240600455620f42406005556210f44760065560055460085560006009556000600a5534156200003c57600080fd5b60408051908101604052806001151581526020016001805490508152506000803373ffffffffffffffffffffffffffffffffffffffff1673ffffffffffffffffffffffffffffffffffffffff16815260200190815260200160002060008201518160000160006101000a81548160ff0219169083151502179055506020820151816001015590505060018054806001018281620000da919062000329565b9160005260206000209001600033909190916101000a81548173ffffffffffffffffffffffffffffffffffffffff021916908373ffffffffffffffffffffffffffffffffffffffff160217905550503373ffffffffffffffffffffffffffffffffffffffff163373ffffffffffffffffffffffffffffffffffffffff167fc82bdbbf677a2462f2a7e22e4ba9abd209496b69cd7b868b3b1d28f76e09a40a60405160405180910390a36103e8600760008060088111156200019757fe5b61ffff1661ffff168152602001908152602001600020819055506102ee6007600060016008811115620001c657fe5b61ffff1661ffff168152602001908152602001600020819055506103e86007600060026008811115620001f557fe5b61ffff1661ffff16815260200190815260200160002081905550606460076000600360088111156200022357fe5b61ffff1661ffff16815260200190815260200160002081905550606460076000600460088111156200025157fe5b61ffff1661ffff16815260200190815260200160002081905550600a60076000600560088111156200027f57fe5b61ffff1661ffff168152602001908152602001600020819055506101f46007600060066008811115620002ae57fe5b61ffff1661ffff1681526020019081526020016000208190555060326007600060076008811115620002dc57fe5b61ffff1661ffff168152602001908152602001600020819055506001600760006008808111156200030957fe5b61ffff1661ffff1681526020019081526020016000208190555062000380565b815481835581811511620003535781836000526020600020918201910162000352919062000358565b5b505050565b6200037d91905b80821115620003795760008160009055506001016200035f565b5090565b90565b6112e880620003906000396000f300606060405260043610610107576000357c0100000000000000000000000000000000000000000000000000000000900463ffffffff168063022914a71461010c57806313b3cdf614610164578063173825d9146101c757806317de2f1f146102005780631c9a2337146102555780633ed5b8d61461027b578063545ae406146102b65780635cfc1a51146102ed578063633f7155146103165780636d91fdab1461036a5780637065cb48146103b25780639138cd56146103eb5780639213baec146104145780639f577c151461043d5780639faa3c911461048e578063ba3f5a12146104b7578063d3b5dc3b146104e0578063fcd9da4414610509578063ff0b3fc51461055f575b600080fd5b341561011757600080fd5b610143600480803573ffffffffffffffffffffffffffffffffffffffff16906020019091905050610588565b60405180831515151581526020018281526020019250505060405180910390f35b341561016f57600080fd5b61018560048080359060200190919050506105b9565b604051808273ffffffffffffffffffffffffffffffffffffffff1673ffffffffffffffffffffffffffffffffffffffff16815260200191505060405180910390f35b34156101d257600080fd5b6101fe600480803573ffffffffffffffffffffffffffffffffffffffff169060200190919050506105f8565b005b341561020b57600080fd5b610213610895565b604051808273ffffffffffffffffffffffffffffffffffffffff1673ffffffffffffffffffffffffffffffffffffffff16815260200191505060405180910390f35b341561026057600080fd5b610279600480803560ff169060200190919050506108eb565b005b341561028657600080fd5b6102a0600480803561ffff16906020019091905050610bcf565b6040518082815260200191505060405180910390f35b34156102c157600080fd5b6102d76004808035906020019091905050610be7565b6040518082815260200191505060405180910390f35b34156102f857600080fd5b610300610d1c565b6040518082815260200191505060405180910390f35b341561032157600080fd5b61034d600480803573ffffffffffffffffffffffffffffffffffffffff16906020019091905050610d22565b604051808381526020018281526020019250505060405180910390f35b341561037557600080fd5b610398600480803561ffff16906020019091908035906020019091905050610d46565b604051808215151515815260200191505060405180910390f35b34156103bd57600080fd5b6103e9600480803573ffffffffffffffffffffffffffffffffffffffff16906020019091905050610dcc565b005b34156103f657600080fd5b6103fe610f6e565b6040518082815260200191505060405180910390f35b341561041f57600080fd5b610427610f74565b6040518082815260200191505060405180910390f35b341561044857600080fd5b610474600480803573ffffffffffffffffffffffffffffffffffffffff16906020019091905050610f7a565b604051808215151515815260200191505060405180910390f35b341561049957600080fd5b6104a161108e565b6040518082815260200191505060405180910390f35b34156104c257600080fd5b6104ca611094565b6040518082815260200191505060405180910390f35b34156104eb57600080fd5b6104f361109a565b6040518082815260200191505060405180910390f35b341561051457600080fd5b61054560048080359060200190919080359060200190919080359060200190919080359060200190919050506110a0565b604051808215151515815260200191505060405180910390f35b341561056a57600080fd5b6105726111b0565b6040518082815260200191505060405180910390f35b60006020528060005260406000206000915090508060000160009054906101000a900460ff16908060010154905082565b6001818154811015156105c857fe5b90600052602060002090016000915054906101000a900473ffffffffffffffffffffffffffffffffffffffff1681565b60008060003373ffffffffffffffffffffffffffffffffffffffff1673ffffffffffffffffffffffffffffffffffffffff16815260200190815260200160002060000160009054906101000a900460ff16151561065457600080fd5b6001808054905011151561066757600080fd5b6000808373ffffffffffffffffffffffffffffffffffffffff1673ffffffffffffffffffffffffffffffffffffffff1681526020019081526020016000206001015490506001808080549050038154811015156106c057fe5b906000526020600020900160009054906101000a900473ffffffffffffffffffffffffffffffffffffffff166001828154811015156106fb57fe5b906000526020600020900160006101000a81548173ffffffffffffffffffffffffffffffffffffffff021916908373ffffffffffffffffffffffffffffffffffffffff1602179055508060008060018481548110151561075757fe5b906000526020600020900160009054906101000a900473ffffffffffffffffffffffffffffffffffffffff1673ffffffffffffffffffffffffffffffffffffffff1673ffffffffffffffffffffffffffffffffffffffff1681526020019081526020016000206001018190555060018054809190600190036107d9919061123f565b506000808373ffffffffffffffffffffffffffffffffffffffff1673ffffffffffffffffffffffffffffffffffffffff168152602001908152602001600020600080820160006101000a81549060ff0219169055600182016000905550503373ffffffffffffffffffffffffffffffffffffffff168273ffffffffffffffffffffffffffffffffffffffff167fe594d081b4382713733fe631966432c9cea5199afb2db5c3c1931f9f9300367960405160405180910390a35050565b6000806001805490501115156108aa57600080fd5b600160008154811015156108ba57fe5b906000526020600020900160009054906101000a900473ffffffffffffffffffffffffffffffffffffffff16905090565b6000806000806000600260009054906101000a900473ffffffffffffffffffffffffffffffffffffffff1673ffffffffffffffffffffffffffffffffffffffff1663ec56a3736000604051602001526040518163ffffffff167c010000000000000000000000000000000000000000000000000000000002815260040180807f62616c616e63655f6d616e6167657200000000000000000000000000000000008152506020019050602060405180830381600087803b15156109ac57600080fd5b6102c65a03f115156109bd57600080fd5b5050506040518051905094508473ffffffffffffffffffffffffffffffffffffffff1663b6bff482326000604051604001526040518263ffffffff167c0100000000000000000000000000000000000000000000000000000000028152600401808273ffffffffffffffffffffffffffffffffffffffff1673ffffffffffffffffffffffffffffffffffffffff168152602001807f4f464e00000000000000000000000000000000000000000000000000000000008152506020019150506040805180830381600087803b1515610a9357600080fd5b6102c65a03f11515610aa457600080fd5b505050604051805190602001805190509350935042600354840110151515610acb57600080fd5b600b60003273ffffffffffffffffffffffffffffffffffffffff1673ffffffffffffffffffffffffffffffffffffffff168152602001908152602001600020915060095482600101541015610b30576000826000018190555060095482600101819055505b60076000876008811115610b4057fe5b61ffff1661ffff16815260200190815260200160002054905080610b998360000154610b8b600554610b7d6008548a6111b690919063ffffffff16565b6111f190919063ffffffff16565b61120c90919063ffffffff16565b111515610ba557600080fd5b80826000016000828254019250508190555080600a60008282540192505081905550505050505050565b60076020528060005260406000206000915090505481565b600080600042600354600954011015610cea57610c58600454610c53610c1a6005546005546111b690919063ffffffff16565b610c45600854610c37600654600a546111b690919063ffffffff16565b6111b690919063ffffffff16565b6111f190919063ffffffff16565b611225565b9150610c83600454610c75600554856111b690919063ffffffff16565b6111f190919063ffffffff16565b9050610c9160085482611225565b60088190555081600481905550426009819055506009547f66d5ff3a0a2813a8824c96898147228566a7f87c9732acbadbc97d697975cd6c600a546040518082815260200191505060405180910390a26000600a819055505b610d13600554610d05600854876111b690919063ffffffff16565b6111f190919063ffffffff16565b92505050919050565b60045481565b600b6020528060005260406000206000915090508060000154908060010154905082565b60008060003373ffffffffffffffffffffffffffffffffffffffff1673ffffffffffffffffffffffffffffffffffffffff16815260200190815260200160002060000160009054906101000a900460ff161515610da257600080fd5b81600760008561ffff1661ffff168152602001908152602001600020819055506001905092915050565b6000803373ffffffffffffffffffffffffffffffffffffffff1673ffffffffffffffffffffffffffffffffffffffff16815260200190815260200160002060000160009054906101000a900460ff161515610e2657600080fd5b60408051908101604052806001151581526020016001805490508152506000808373ffffffffffffffffffffffffffffffffffffffff1673ffffffffffffffffffffffffffffffffffffffff16815260200190815260200160002060008201518160000160006101000a81548160ff0219169083151502179055506020820151816001015590505060018054806001018281610ec2919061126b565b9160005260206000209001600083909190916101000a81548173ffffffffffffffffffffffffffffffffffffffff021916908373ffffffffffffffffffffffffffffffffffffffff160217905550503373ffffffffffffffffffffffffffffffffffffffff168173ffffffffffffffffffffffffffffffffffffffff167fc82bdbbf677a2462f2a7e22e4ba9abd209496b69cd7b868b3b1d28f76e09a40a60405160405180910390a350565b600a5481565b60095481565b6000808273ffffffffffffffffffffffffffffffffffffffff1614151515610fa157600080fd5b6000600260009054906101000a900473ffffffffffffffffffffffffffffffffffffffff1673ffffffffffffffffffffffffffffffffffffffff1614806110355750600260009054906101000a900473ffffffffffffffffffffffffffffffffffffffff1673ffffffffffffffffffffffffffffffffffffffff163373ffffffffffffffffffffffffffffffffffffffff16145b156110845781600260006101000a81548173ffffffffffffffffffffffffffffffffffffffff021916908373ffffffffffffffffffffffffffffffffffffffff16021790555060019050611089565b600090505b919050565b60065481565b60085481565b60055481565b60008060003373ffffffffffffffffffffffffffffffffffffffff1673ffffffffffffffffffffffffffffffffffffffff16815260200190815260200160002060000160009054906101000a900460ff1615156110fc57600080fd5b60008511151561110b57600080fd5b60008411151561111a57600080fd5b60008311151561112957600080fd5b60008211151561113857600080fd5b84600381905550836004819055508260058190555081600681905550427ff099a0881e1819bb4d9dd18ca7d327442a535d8cc420e5cbb94fd124897e3234868686866040518085815260200184815260200183815260200182815260200194505050505060405180910390a260019050949350505050565b60035481565b60008060008414156111cb57600091506111ea565b82840290508284828115156111dc57fe5b041415156111e657fe5b8091505b5092915050565b60008082848115156111ff57fe5b0490508091505092915050565b600082821115151561121a57fe5b818303905092915050565b6000818310156112355781611237565b825b905092915050565b815481835581811511611266578183600052602060002091820191016112659190611297565b5b505050565b815481835581811511611292578183600052602060002091820191016112919190611297565b5b505050565b6112b991905b808211156112b557600081600090555060010161129d565b5090565b905600a165627a7a723058207956b74fc7af33e6bcf7f1b66b719b791557c884be1543eafbbe85abf09c2d040029",
  "source": "/* Contract for ensuring that a user has enough of a balance to cover an action.\n *\n * Fractional numbers are handled at a fixed precision determined by the\n * precision parameter.\n * \n */\n\npragma solidity ^0.4.17;\n\nimport './interfaces/IActivityLimiter.sol';\nimport './interfaces/IBalanceManager.sol';\nimport './interfaces/IContractProvider.sol';\nimport './interfaces/IEntityRegistry.sol';\n\nimport './ContractProviderEnabled.sol';\nimport './MultipleOwners.sol';\nimport './WithActions.sol';\nimport './WithTokenBalance.sol';\n\nimport 'zeppelin-solidity/contracts/math/SafeMath.sol';\nimport 'zeppelin-solidity/contracts/math/Math.sol';\n\n\ncontract ActivityLimiter is IActivityLimiter, MultipleOwners, ContractProviderEnabled, WithTokenBalance {\n    using SafeMath for uint256;\n\n    // Configuration\n    uint256 public intervalLength = 1 weeks;\n    uint256 public capacity = 10 ** 6; // Set this to the total token supply\n    uint256 public precision = 10 ** 6;  // Precision for fractions\n    uint256 public beta = 1111111; // [ (10 / 9) * precision ]\n    mapping(uint16 => uint256) public weightTable;\n   \n    // The multiplier applied to token balances \n    uint256 public tokenMultiplier = precision; // Start with multiplier = 1\n\n    // Keep track of aggregate token consumption\n    uint256 public intervalStart = 0;\n    uint256 public sumConsumptionThisInterval = 0;\n    \n    // Keep track of individual token consumption\n    mapping(address => TokenBalance) public consumption;\n\n    // Interval rolls over\n    event LogNewInterval(uint256 prevTokenConsumption, uint256 indexed startTime);\n\n    // Update to parameters\n    event LogParameterUpdate(uint256 indexed timestamp, uint256 _intervaLength, uint256 _capacity, uint256 _precision, uint256 _beta);\n\n    // Adjust the length of the ofn \"day\" and other system parameters\n    function setParameters(uint256 _intervalLength, uint256 _capacity, uint256 _precision, uint256 _beta) \n        public\n        onlyOwner\n        returns (bool)\n    {\n        require(_intervalLength > 0);\n        require(_capacity > 0);\n        require(_precision > 0);\n        require(_beta > 0);\n\n        intervalLength = _intervalLength;\n        capacity = _capacity;\n        precision = _precision;\n        beta = _beta;\n\n        LogParameterUpdate(now, _intervalLength, _capacity, _precision, _beta);\n\n        return true;\n    }\n\n    // Construct the contract, setting the default weights\n    function ActivityLimiter()\n        public\n    {\n        weightTable[ uint16(NetworkActivity.AddAsset) ]                        = 1000;\n        weightTable[ uint16(NetworkActivity.UpdateAsset) ]                     = 750;\n        weightTable[ uint16(NetworkActivity.ManageShareholder) ]               = 1000;\n        weightTable[ uint16(NetworkActivity.RegisterEntity) ]                  = 100;\n        weightTable[ uint16(NetworkActivity.ModifyEntity) ]                    = 100;\n        weightTable[ uint16(NetworkActivity.InitiateTransaction) ]             = 10;\n        weightTable[ uint16(NetworkActivity.ReverseTransaction) ]              = 500;\n        weightTable[ uint16(NetworkActivity.ApproveTransaction) ]              = 50;\n        weightTable[ uint16(NetworkActivity.ApproveTransactionAsParticipant) ] = 1;\n    }\n\n\n    // Update a weight\n    function setWeight(uint16 activity, uint256 weight) \n        public\n        onlyOwner\n        returns (bool)\n    {\n        weightTable[activity] = weight;\n        return true;\n    }\n\n\n    // Multiply x by the current tokenMultiplier, updating the token multiplier\n    // in the process.\n    //\n    // Unlucky users who are active around the interval turnover time incur\n    // greater gas costs.\n    function getMultiple(uint256 x)\n        public\n        returns (uint256)\n    {\n        \n        if (intervalStart + intervalLength < now) {\n            // Recompute the capacity and multiplier\n           \n            // In natural units:\n            // impliedCapacity = max { capacity, sumConsumptionThisInterval * beta * tokenMultiplier } \n            uint256 impliedCapacity = \n                Math.max256(capacity,\n                    sumConsumptionThisInterval\n                    .mul(beta)\n                    .mul(tokenMultiplier)\n                    .div(precision.mul(precision))\n                    ); \n\n            // altAlpha = impliedCapacity / capacity\n            uint256 altAlpha = \n                impliedCapacity\n                .mul(precision)\n                .div(capacity);\n\n            // tokenMultiplier = max { tokenMultiplier, altAlpha }\n            tokenMultiplier = Math.max256(tokenMultiplier, altAlpha);\n            capacity = impliedCapacity;\n            \n            // Update time-tracking parameters \n            intervalStart = now;\n            LogNewInterval(sumConsumptionThisInterval, intervalStart);\n            sumConsumptionThisInterval = 0;\n        } \n\n        return x.mul(tokenMultiplier).div(precision);\n    }\n\n    // Attempt to perform an action, throwing a reverting exception if it is not possible\n    function performAction(NetworkActivity activity)\n        public\n    {\n\n        // Fetch user's balance and the weight of the activity that they are trying to perform\n        address balanceManagerAddr = IContractProvider(cp).contracts(\"balance_manager\");\n        var (balance, queryTime) = IBalanceManager(balanceManagerAddr).getDistribution(tx.origin, 'OFN');\n\n        // The user must have a fresh token balance\n        require(queryTime + intervalLength >= now);\n        \n        // Fetch user's token consumption, zeroing if it is not fresh enough\n        TokenBalance storage userConsumption = consumption[tx.origin];\n        if (userConsumption.queryTime < intervalStart) {\n            userConsumption.balance = 0;\n            userConsumption.queryTime = intervalStart;\n        }\n\n        uint256 weight = weightTable[ uint16(activity) ];\n\n        // Make sure the token holdings cover the activity\n        require(balance.mul(tokenMultiplier).div(precision).sub(userConsumption.balance) > weight);\n\n        // Add weight to the consumption\n        userConsumption.balance += weight; \n\n        // Update total consumption\n        sumConsumptionThisInterval += weight;\n\n    }\n\n}\n",
  "sourcePath": "/home/user/ofn-engine/contracts/ActivityLimiter.sol",
  "compiler": {
    "name": "solc",
    "version": "0.4.19+commit.c4cbbb05.Emscripten.clang"
  },
  "schemaVersion": "1.0.1",
  "updatedAt": "2018-02-19T23:48:08.921Z"
}