{
  "contractName": "ActivityLimiter",
  "abi": [
    {
      "constant": true,
      "inputs": [
        {
          "name": "",
          "type": "address"
        }
      ],
      "name": "owners",
      "outputs": [
        {
          "name": "isOwner",
          "type": "bool"
        },
        {
          "name": "index",
          "type": "uint256"
        }
      ],
      "payable": false,
      "stateMutability": "view",
      "type": "function"
    },
    {
      "constant": true,
      "inputs": [
        {
          "name": "",
          "type": "uint256"
        }
      ],
      "name": "ownersLUT",
      "outputs": [
        {
          "name": "",
          "type": "address"
        }
      ],
      "payable": false,
      "stateMutability": "view",
      "type": "function"
    },
    {
      "constant": false,
      "inputs": [
        {
          "name": "_owner",
          "type": "address"
        }
      ],
      "name": "removeOwner",
      "outputs": [],
      "payable": false,
      "stateMutability": "nonpayable",
      "type": "function"
    },
    {
      "constant": true,
      "inputs": [],
      "name": "defaultOwner",
      "outputs": [
        {
          "name": "",
          "type": "address"
        }
      ],
      "payable": false,
      "stateMutability": "view",
      "type": "function"
    },
    {
      "constant": true,
      "inputs": [
        {
          "name": "",
          "type": "uint16"
        }
      ],
      "name": "weightTable",
      "outputs": [
        {
          "name": "",
          "type": "uint256"
        }
      ],
      "payable": false,
      "stateMutability": "view",
      "type": "function"
    },
    {
      "constant": true,
      "inputs": [],
      "name": "capacity",
      "outputs": [
        {
          "name": "",
          "type": "uint256"
        }
      ],
      "payable": false,
      "stateMutability": "view",
      "type": "function"
    },
    {
      "constant": true,
      "inputs": [],
      "name": "tokenAddr",
      "outputs": [
        {
          "name": "",
          "type": "address"
        }
      ],
      "payable": false,
      "stateMutability": "view",
      "type": "function"
    },
    {
      "constant": true,
      "inputs": [
        {
          "name": "",
          "type": "address"
        }
      ],
      "name": "consumption",
      "outputs": [
        {
          "name": "balance",
          "type": "uint256"
        },
        {
          "name": "queryTime",
          "type": "uint256"
        }
      ],
      "payable": false,
      "stateMutability": "view",
      "type": "function"
    },
    {
      "constant": false,
      "inputs": [
        {
          "name": "newOwner",
          "type": "address"
        }
      ],
      "name": "addOwner",
      "outputs": [],
      "payable": false,
      "stateMutability": "nonpayable",
      "type": "function"
    },
    {
      "constant": true,
      "inputs": [],
      "name": "sumConsumptionThisInterval",
      "outputs": [
        {
          "name": "",
          "type": "uint256"
        }
      ],
      "payable": false,
      "stateMutability": "view",
      "type": "function"
    },
    {
      "constant": true,
      "inputs": [],
      "name": "intervalStart",
      "outputs": [
        {
          "name": "",
          "type": "uint256"
        }
      ],
      "payable": false,
      "stateMutability": "view",
      "type": "function"
    },
    {
      "constant": false,
      "inputs": [
        {
          "name": "_cp",
          "type": "address"
        }
      ],
      "name": "setContractProvider",
      "outputs": [
        {
          "name": "",
          "type": "bool"
        }
      ],
      "payable": false,
      "stateMutability": "nonpayable",
      "type": "function"
    },
    {
      "constant": true,
      "inputs": [],
      "name": "beta",
      "outputs": [
        {
          "name": "",
          "type": "uint256"
        }
      ],
      "payable": false,
      "stateMutability": "view",
      "type": "function"
    },
    {
      "constant": true,
      "inputs": [],
      "name": "tokenMultiplier",
      "outputs": [
        {
          "name": "",
          "type": "uint256"
        }
      ],
      "payable": false,
      "stateMutability": "view",
      "type": "function"
    },
    {
      "constant": true,
      "inputs": [],
      "name": "precision",
      "outputs": [
        {
          "name": "",
          "type": "uint256"
        }
      ],
      "payable": false,
      "stateMutability": "view",
      "type": "function"
    },
    {
      "constant": true,
      "inputs": [],
      "name": "intervalLength",
      "outputs": [
        {
          "name": "",
          "type": "uint256"
        }
      ],
      "payable": false,
      "stateMutability": "view",
      "type": "function"
    },
    {
      "inputs": [
        {
          "name": "tokenAddr_",
          "type": "address"
        }
      ],
      "payable": false,
      "stateMutability": "nonpayable",
      "type": "constructor"
    },
    {
      "anonymous": false,
      "inputs": [
        {
          "indexed": false,
          "name": "prevTokenConsumption",
          "type": "uint256"
        },
        {
          "indexed": true,
          "name": "startTime",
          "type": "uint256"
        }
      ],
      "name": "LogNewInterval",
      "type": "event"
    },
    {
      "anonymous": false,
      "inputs": [
        {
          "indexed": true,
          "name": "timestamp",
          "type": "uint256"
        },
        {
          "indexed": false,
          "name": "_intervaLength",
          "type": "uint256"
        },
        {
          "indexed": false,
          "name": "_capacity",
          "type": "uint256"
        },
        {
          "indexed": false,
          "name": "_precision",
          "type": "uint256"
        },
        {
          "indexed": false,
          "name": "_beta",
          "type": "uint256"
        }
      ],
      "name": "LogParameterUpdate",
      "type": "event"
    },
    {
      "anonymous": false,
      "inputs": [
        {
          "indexed": true,
          "name": "ownerAddress",
          "type": "address"
        },
        {
          "indexed": true,
          "name": "addedBy",
          "type": "address"
        }
      ],
      "name": "OwnerAdded",
      "type": "event"
    },
    {
      "anonymous": false,
      "inputs": [
        {
          "indexed": true,
          "name": "ownerAddress",
          "type": "address"
        },
        {
          "indexed": true,
          "name": "removedBy",
          "type": "address"
        }
      ],
      "name": "OwnerRemoved",
      "type": "event"
    },
    {
      "constant": false,
      "inputs": [
        {
          "name": "_intervalLength",
          "type": "uint256"
        },
        {
          "name": "_capacity",
          "type": "uint256"
        },
        {
          "name": "_precision",
          "type": "uint256"
        },
        {
          "name": "_beta",
          "type": "uint256"
        }
      ],
      "name": "setParameters",
      "outputs": [
        {
          "name": "",
          "type": "bool"
        }
      ],
      "payable": false,
      "stateMutability": "nonpayable",
      "type": "function"
    },
    {
      "constant": false,
      "inputs": [
        {
          "name": "activity",
          "type": "uint16"
        },
        {
          "name": "weight",
          "type": "uint256"
        }
      ],
      "name": "setWeight",
      "outputs": [
        {
          "name": "",
          "type": "bool"
        }
      ],
      "payable": false,
      "stateMutability": "nonpayable",
      "type": "function"
    },
    {
      "constant": false,
      "inputs": [],
      "name": "recomputeMultiplier",
      "outputs": [
        {
          "name": "",
          "type": "bool"
        }
      ],
      "payable": false,
      "stateMutability": "nonpayable",
      "type": "function"
    },
    {
      "constant": false,
      "inputs": [
        {
          "name": "activity",
          "type": "uint8"
        }
      ],
      "name": "performAction",
      "outputs": [],
      "payable": false,
      "stateMutability": "nonpayable",
      "type": "function"
    }
  ],
  "bytecode": "0x606060405262093a80600355620f4240600455620f42406005556210f4476006556005546009556000600a556000600b5534156200003c57600080fd5b604051602080620017698339810160405280805190602001909190505060408051908101604052806001151581526020016001805490508152506000803373ffffffffffffffffffffffffffffffffffffffff1673ffffffffffffffffffffffffffffffffffffffff16815260200190815260200160002060008201518160000160006101000a81548160ff0219169083151502179055506020820151816001015590505060018054806001018281620000f7919062000388565b9160005260206000209001600033909190916101000a81548173ffffffffffffffffffffffffffffffffffffffff021916908373ffffffffffffffffffffffffffffffffffffffff160217905550503373ffffffffffffffffffffffffffffffffffffffff163373ffffffffffffffffffffffffffffffffffffffff167fc82bdbbf677a2462f2a7e22e4ba9abd209496b69cd7b868b3b1d28f76e09a40a60405160405180910390a380600860006101000a81548173ffffffffffffffffffffffffffffffffffffffff021916908373ffffffffffffffffffffffffffffffffffffffff1602179055506103e860076000806008811115620001f557fe5b61ffff1661ffff168152602001908152602001600020819055506102ee60076000600160088111156200022457fe5b61ffff1661ffff168152602001908152602001600020819055506103e860076000600260088111156200025357fe5b61ffff1661ffff16815260200190815260200160002081905550606460076000600360088111156200028157fe5b61ffff1661ffff1681526020019081526020016000208190555060646007600060046008811115620002af57fe5b61ffff1661ffff16815260200190815260200160002081905550600a6007600060056008811115620002dd57fe5b61ffff1661ffff168152602001908152602001600020819055506101f460076000600660088111156200030c57fe5b61ffff1661ffff16815260200190815260200160002081905550603260076000600760088111156200033a57fe5b61ffff1661ffff168152602001908152602001600020819055506001600760006008808111156200036757fe5b61ffff1661ffff1681526020019081526020016000208190555050620003df565b815481835581811511620003b257818360005260206000209182019101620003b19190620003b7565b5b505050565b620003dc91905b80821115620003d8576000816000905550600101620003be565b5090565b90565b61137a80620003ef6000396000f300606060405260043610610112576000357c0100000000000000000000000000000000000000000000000000000000900463ffffffff168063022914a71461011757806313b3cdf61461016f578063173825d9146101d257806317de2f1f1461020b5780631c9a2337146102605780633ed5b8d6146102865780635cfc1a51146102c15780635fbe4d1d146102ea578063633f71551461033f5780636d91fdab146103935780637065cb48146103db5780639138cd56146104145780639213baec1461043d5780639f577c15146104665780639faa3c91146104b75780639fac1d26146104e0578063ba3f5a121461050d578063d3b5dc3b14610536578063fcd9da441461055f578063ff0b3fc5146105b5575b600080fd5b341561012257600080fd5b61014e600480803573ffffffffffffffffffffffffffffffffffffffff169060200190919050506105de565b60405180831515151581526020018281526020019250505060405180910390f35b341561017a57600080fd5b610190600480803590602001909190505061060f565b604051808273ffffffffffffffffffffffffffffffffffffffff1673ffffffffffffffffffffffffffffffffffffffff16815260200191505060405180910390f35b34156101dd57600080fd5b610209600480803573ffffffffffffffffffffffffffffffffffffffff1690602001909190505061064e565b005b341561021657600080fd5b61021e6108eb565b604051808273ffffffffffffffffffffffffffffffffffffffff1673ffffffffffffffffffffffffffffffffffffffff16815260200191505060405180910390f35b341561026b57600080fd5b610284600480803560ff16906020019091905050610941565b005b341561029157600080fd5b6102ab600480803561ffff16906020019091905050610c53565b6040518082815260200191505060405180910390f35b34156102cc57600080fd5b6102d4610c6b565b6040518082815260200191505060405180910390f35b34156102f557600080fd5b6102fd610c71565b604051808273ffffffffffffffffffffffffffffffffffffffff1673ffffffffffffffffffffffffffffffffffffffff16815260200191505060405180910390f35b341561034a57600080fd5b610376600480803573ffffffffffffffffffffffffffffffffffffffff16906020019091905050610c97565b604051808381526020018281526020019250505060405180910390f35b341561039e57600080fd5b6103c1600480803561ffff16906020019091908035906020019091905050610cbb565b604051808215151515815260200191505060405180910390f35b34156103e657600080fd5b610412600480803573ffffffffffffffffffffffffffffffffffffffff16906020019091905050610d41565b005b341561041f57600080fd5b610427610ee3565b6040518082815260200191505060405180910390f35b341561044857600080fd5b610450610ee9565b6040518082815260200191505060405180910390f35b341561047157600080fd5b61049d600480803573ffffffffffffffffffffffffffffffffffffffff16906020019091905050610eef565b604051808215151515815260200191505060405180910390f35b34156104c257600080fd5b6104ca611003565b6040518082815260200191505060405180910390f35b34156104eb57600080fd5b6104f3611009565b604051808215151515815260200191505060405180910390f35b341561051857600080fd5b610520611126565b6040518082815260200191505060405180910390f35b341561054157600080fd5b61054961112c565b6040518082815260200191505060405180910390f35b341561056a57600080fd5b61059b6004808035906020019091908035906020019091908035906020019091908035906020019091905050611132565b604051808215151515815260200191505060405180910390f35b34156105c057600080fd5b6105c8611242565b6040518082815260200191505060405180910390f35b60006020528060005260406000206000915090508060000160009054906101000a900460ff16908060010154905082565b60018181548110151561061e57fe5b90600052602060002090016000915054906101000a900473ffffffffffffffffffffffffffffffffffffffff1681565b60008060003373ffffffffffffffffffffffffffffffffffffffff1673ffffffffffffffffffffffffffffffffffffffff16815260200190815260200160002060000160009054906101000a900460ff1615156106aa57600080fd5b600180805490501115156106bd57600080fd5b6000808373ffffffffffffffffffffffffffffffffffffffff1673ffffffffffffffffffffffffffffffffffffffff16815260200190815260200160002060010154905060018080805490500381548110151561071657fe5b906000526020600020900160009054906101000a900473ffffffffffffffffffffffffffffffffffffffff1660018281548110151561075157fe5b906000526020600020900160006101000a81548173ffffffffffffffffffffffffffffffffffffffff021916908373ffffffffffffffffffffffffffffffffffffffff160217905550806000806001848154811015156107ad57fe5b906000526020600020900160009054906101000a900473ffffffffffffffffffffffffffffffffffffffff1673ffffffffffffffffffffffffffffffffffffffff1673ffffffffffffffffffffffffffffffffffffffff16815260200190815260200160002060010181905550600180548091906001900361082f91906112d1565b506000808373ffffffffffffffffffffffffffffffffffffffff1673ffffffffffffffffffffffffffffffffffffffff168152602001908152602001600020600080820160006101000a81549060ff0219169055600182016000905550503373ffffffffffffffffffffffffffffffffffffffff168273ffffffffffffffffffffffffffffffffffffffff167fe594d081b4382713733fe631966432c9cea5199afb2db5c3c1931f9f9300367960405160405180910390a35050565b60008060018054905011151561090057600080fd5b6001600081548110151561091057fe5b906000526020600020900160009054906101000a900473ffffffffffffffffffffffffffffffffffffffff16905090565b6000806000806000600260009054906101000a900473ffffffffffffffffffffffffffffffffffffffff1673ffffffffffffffffffffffffffffffffffffffff1663ec56a3736000604051602001526040518163ffffffff167c010000000000000000000000000000000000000000000000000000000002815260040180807f62616c616e63655f6d616e6167657200000000000000000000000000000000008152506020019050602060405180830381600087803b1515610a0257600080fd5b6102c65a03f11515610a1357600080fd5b5050506040518051905094508473ffffffffffffffffffffffffffffffffffffffff1663539c47d432600860009054906101000a900473ffffffffffffffffffffffffffffffffffffffff166000604051604001526040518363ffffffff167c0100000000000000000000000000000000000000000000000000000000028152600401808373ffffffffffffffffffffffffffffffffffffffff1673ffffffffffffffffffffffffffffffffffffffff1681526020018273ffffffffffffffffffffffffffffffffffffffff1673ffffffffffffffffffffffffffffffffffffffff168152602001925050506040805180830381600087803b1515610b1757600080fd5b6102c65a03f11515610b2857600080fd5b505050604051805190602001805190509350935042600354840110151515610b4f57600080fd5b600c60003273ffffffffffffffffffffffffffffffffffffffff1673ffffffffffffffffffffffffffffffffffffffff1681526020019081526020016000209150600a5482600101541015610bb45760008260000181905550600a5482600101819055505b60076000876008811115610bc457fe5b61ffff1661ffff16815260200190815260200160002054905080610c1d8360000154610c0f600554610c016009548a61124890919063ffffffff16565b61128390919063ffffffff16565b61129e90919063ffffffff16565b111515610c2957600080fd5b80826000016000828254019250508190555080600b60008282540192505081905550505050505050565b60076020528060005260406000206000915090505481565b60045481565b600860009054906101000a900473ffffffffffffffffffffffffffffffffffffffff1681565b600c6020528060005260406000206000915090508060000154908060010154905082565b60008060003373ffffffffffffffffffffffffffffffffffffffff1673ffffffffffffffffffffffffffffffffffffffff16815260200190815260200160002060000160009054906101000a900460ff161515610d1757600080fd5b81600760008561ffff1661ffff168152602001908152602001600020819055506001905092915050565b6000803373ffffffffffffffffffffffffffffffffffffffff1673ffffffffffffffffffffffffffffffffffffffff16815260200190815260200160002060000160009054906101000a900460ff161515610d9b57600080fd5b60408051908101604052806001151581526020016001805490508152506000808373ffffffffffffffffffffffffffffffffffffffff1673ffffffffffffffffffffffffffffffffffffffff16815260200190815260200160002060008201518160000160006101000a81548160ff0219169083151502179055506020820151816001015590505060018054806001018281610e3791906112fd565b9160005260206000209001600083909190916101000a81548173ffffffffffffffffffffffffffffffffffffffff021916908373ffffffffffffffffffffffffffffffffffffffff160217905550503373ffffffffffffffffffffffffffffffffffffffff168173ffffffffffffffffffffffffffffffffffffffff167fc82bdbbf677a2462f2a7e22e4ba9abd209496b69cd7b868b3b1d28f76e09a40a60405160405180910390a350565b600b5481565b600a5481565b6000808273ffffffffffffffffffffffffffffffffffffffff1614151515610f1657600080fd5b6000600260009054906101000a900473ffffffffffffffffffffffffffffffffffffffff1673ffffffffffffffffffffffffffffffffffffffff161480610faa5750600260009054906101000a900473ffffffffffffffffffffffffffffffffffffffff1673ffffffffffffffffffffffffffffffffffffffff163373ffffffffffffffffffffffffffffffffffffffff16145b15610ff95781600260006101000a81548173ffffffffffffffffffffffffffffffffffffffff021916908373ffffffffffffffffffffffffffffffffffffffff16021790555060019050610ffe565b600090505b919050565b60065481565b60008060008042600354600a5401101561111b5761107b60045461107661103d60055460055461124890919063ffffffff16565b61106860095461105a600654600b5461124890919063ffffffff16565b61124890919063ffffffff16565b61128390919063ffffffff16565b6112b7565b92506110a66004546110986005548661124890919063ffffffff16565b61128390919063ffffffff16565b9150600954821190506110bb600954836112b7565b6009819055508260048190555042600a81905550600a547f66d5ff3a0a2813a8824c96898147228566a7f87c9732acbadbc97d697975cd6c600b546040518082815260200191505060405180910390a26000600b81905550809350611120565b600093505b50505090565b60095481565b60055481565b60008060003373ffffffffffffffffffffffffffffffffffffffff1673ffffffffffffffffffffffffffffffffffffffff16815260200190815260200160002060000160009054906101000a900460ff16151561118e57600080fd5b60008511151561119d57600080fd5b6000841115156111ac57600080fd5b6000831115156111bb57600080fd5b6000821115156111ca57600080fd5b84600381905550836004819055508260058190555081600681905550427ff099a0881e1819bb4d9dd18ca7d327442a535d8cc420e5cbb94fd124897e3234868686866040518085815260200184815260200183815260200182815260200194505050505060405180910390a260019050949350505050565b60035481565b600080600084141561125d576000915061127c565b828402905082848281151561126e57fe5b0414151561127857fe5b8091505b5092915050565b600080828481151561129157fe5b0490508091505092915050565b60008282111515156112ac57fe5b818303905092915050565b6000818310156112c757816112c9565b825b905092915050565b8154818355818115116112f8578183600052602060002091820191016112f79190611329565b5b505050565b815481835581811511611324578183600052602060002091820191016113239190611329565b5b505050565b61134b91905b8082111561134757600081600090555060010161132f565b5090565b905600a165627a7a72305820e34fdc7a76d58c5e741dd64979ac268d7184b0e46257b2478d589ad09815846f0029",
  "source": "/* Contract for ensuring that a user has enough of a balance to cover an action.\n *\n * Fractional numbers are handled at a fixed precision determined by the\n * precision parameter.\n *\n */\n\npragma solidity ^0.4.17;\n\nimport './interfaces/IActivityLimiter.sol';\nimport './interfaces/IBalanceManager.sol';\nimport './interfaces/IContractProvider.sol';\nimport './interfaces/IEntityRegistry.sol';\n\nimport './ContractProviderEnabled.sol';\nimport './MultipleOwners.sol';\nimport './WithActions.sol';\nimport './WithTokenBalance.sol';\n\nimport 'zeppelin-solidity/contracts/math/SafeMath.sol';\nimport 'zeppelin-solidity/contracts/math/Math.sol';\n\n\ncontract ActivityLimiter is IActivityLimiter, MultipleOwners, ContractProviderEnabled, WithTokenBalance {\n    using SafeMath for uint256;\n\n    // Configuration\n    uint256 public intervalLength = 1 weeks;\n    uint256 public capacity = 10 ** 6; // Set this to the total token supply\n    uint256 public precision = 10 ** 6;  // Precision for fractions\n    uint256 public beta = 1111111; // [ (10 / 9) * precision ]\n    mapping(uint16 => uint256) public weightTable;\n    address public tokenAddr;\n   \n    // The multiplier applied to token balances \n    uint256 public tokenMultiplier = precision; // Start with multiplier = 1\n\n    // Keep track of aggregate token consumption\n    uint256 public intervalStart = 0;\n    uint256 public sumConsumptionThisInterval = 0;\n\n    // Keep track of individual token consumption\n    mapping(address => TokenBalance) public consumption;\n\n    // Interval rolls over\n    event LogNewInterval(uint256 prevTokenConsumption, uint256 indexed startTime);\n\n    // Update to parameters\n    event LogParameterUpdate(uint256 indexed timestamp, uint256 _intervaLength, uint256 _capacity, uint256 _precision, uint256 _beta);\n\n    // Adjust the length of the ofn \"day\" and other system parameters\n    function setParameters(uint256 _intervalLength, uint256 _capacity, uint256 _precision, uint256 _beta)\n        public\n        onlyOwner\n        returns (bool)\n    {\n        require(_intervalLength > 0);\n        require(_capacity > 0);\n        require(_precision > 0);\n        require(_beta > 0);\n\n        intervalLength = _intervalLength;\n        capacity = _capacity;\n        precision = _precision;\n        beta = _beta;\n\n        LogParameterUpdate(now, _intervalLength, _capacity, _precision, _beta);\n\n        return true;\n    }\n\n    // Construct the contract, setting the default weights\n    function ActivityLimiter(address tokenAddr_)\n        public\n    {\n        tokenAddr = tokenAddr_;\n\n        weightTable[ uint16(NetworkActivity.AddAsset) ]                        = 1000;\n        weightTable[ uint16(NetworkActivity.UpdateAsset) ]                     = 750;\n        weightTable[ uint16(NetworkActivity.ManageShareholder) ]               = 1000;\n        weightTable[ uint16(NetworkActivity.RegisterEntity) ]                  = 100;\n        weightTable[ uint16(NetworkActivity.ModifyEntity) ]                    = 100;\n        weightTable[ uint16(NetworkActivity.InitiateTransaction) ]             = 10;\n        weightTable[ uint16(NetworkActivity.ReverseTransaction) ]              = 500;\n        weightTable[ uint16(NetworkActivity.ApproveTransaction) ]              = 50;\n        weightTable[ uint16(NetworkActivity.ApproveTransactionAsParticipant) ] = 1;\n    }\n\n\n    // Update a weight\n    function setWeight(uint16 activity, uint256 weight)\n        public\n        onlyOwner\n        returns (bool)\n    {\n        weightTable[activity] = weight;\n        return true;\n    }\n\n\n    /// \n    /// Periodically, the token multiplier can be increased.\n    /// @return whether or not the multiplier changed\n    function recomputeMultiplier()\n        public\n        returns (bool)\n    {\n\n        if (intervalStart + intervalLength < now) {\n            // Recompute the capacity and multiplier\n\n            // In natural units:\n            // impliedCapacity = max { capacity, sumConsumptionThisInterval * beta * tokenMultiplier }\n            uint256 impliedCapacity =\n                Math.max256(capacity,\n                    sumConsumptionThisInterval\n                    .mul(beta)\n                    .mul(tokenMultiplier)\n                    .div(precision.mul(precision))\n                    );\n\n            // altAlpha = impliedCapacity / capacity\n            uint256 altAlpha =\n                impliedCapacity\n                .mul(precision)\n                .div(capacity);\n\n            // tokenMultiplier = max { tokenMultiplier, altAlpha }\n            bool result = altAlpha > tokenMultiplier;\n            tokenMultiplier = Math.max256(tokenMultiplier, altAlpha);\n            capacity = impliedCapacity;\n\n            // Update time-tracking parameters\n            intervalStart = now;\n            LogNewInterval(sumConsumptionThisInterval, intervalStart);\n            sumConsumptionThisInterval = 0;\n\n            return result;\n        } \n\n        return false; \n    }\n\n    // Attempt to perform an action, throwing a reverting exception if it is not possible\n    function performAction(NetworkActivity activity)\n        public\n    {\n\n        // Fetch user's balance and the weight of the activity that they are trying to perform\n        address balanceManagerAddr = IContractProvider(cp).contracts(\"balance_manager\");\n        var (balance, queryTime) = IBalanceManager(balanceManagerAddr).getDistribution(tx.origin, tokenAddr);\n\n        // The user must have a fresh token balance\n        require(queryTime + intervalLength >= now);\n\n        // Fetch user's token consumption, zeroing if it is not fresh enough\n        TokenBalance storage userConsumption = consumption[tx.origin];\n        if (userConsumption.queryTime < intervalStart) {\n            userConsumption.balance = 0;\n            userConsumption.queryTime = intervalStart;\n        }\n\n        uint256 weight = weightTable[ uint16(activity) ];\n\n        // Make sure the token holdings cover the activity\n        require(balance.mul(tokenMultiplier).div(precision).sub(userConsumption.balance) > weight);\n\n        // Add weight to the consumption\n        userConsumption.balance += weight;\n\n        // Update total consumption\n        sumConsumptionThisInterval += weight;\n\n    }\n\n}\n",
  "sourcePath": "/home/user/ofn-engine/contracts/ActivityLimiter.sol",
  "compiler": {
    "name": "solc",
    "version": "0.4.19+commit.c4cbbb05.Emscripten.clang"
  },
  "schemaVersion": "2.0.0",
  "updatedAt": "2018-03-01T22:11:38.048Z"
}