{
  "contractName": "AssetRegistry",
  "abi": [
    {
      "constant": true,
      "inputs": [
        {
          "name": "",
          "type": "uint256"
        }
      ],
      "name": "assetsLUT",
      "outputs": [
        {
          "name": "",
          "type": "bytes32"
        }
      ],
      "payable": false,
      "stateMutability": "view",
      "type": "function"
    },
    {
      "constant": false,
      "inputs": [
        {
          "name": "_cp",
          "type": "address"
        }
      ],
      "name": "setContractProvider",
      "outputs": [
        {
          "name": "",
          "type": "bool"
        }
      ],
      "payable": false,
      "stateMutability": "nonpayable",
      "type": "function"
    },
    {
      "constant": true,
      "inputs": [
        {
          "name": "",
          "type": "bytes32"
        }
      ],
      "name": "assets",
      "outputs": [
        {
          "name": "name",
          "type": "string"
        },
        {
          "name": "totalShareNumber",
          "type": "uint256"
        },
        {
          "name": "index",
          "type": "uint256"
        }
      ],
      "payable": false,
      "stateMutability": "view",
      "type": "function"
    },
    {
      "constant": true,
      "inputs": [
        {
          "name": "",
          "type": "bytes32"
        }
      ],
      "name": "confirmations",
      "outputs": [
        {
          "name": "count",
          "type": "uint8"
        }
      ],
      "payable": false,
      "stateMutability": "view",
      "type": "function"
    },
    {
      "anonymous": false,
      "inputs": [
        {
          "indexed": true,
          "name": "assetId",
          "type": "bytes32"
        },
        {
          "indexed": true,
          "name": "entityId",
          "type": "bytes32"
        },
        {
          "indexed": false,
          "name": "numberOfShares",
          "type": "uint256"
        },
        {
          "indexed": false,
          "name": "count",
          "type": "uint8"
        },
        {
          "indexed": false,
          "name": "key",
          "type": "bytes32"
        },
        {
          "indexed": false,
          "name": "sender",
          "type": "address"
        }
      ],
      "name": "LogPendingConfirmation",
      "type": "event"
    },
    {
      "anonymous": false,
      "inputs": [
        {
          "indexed": true,
          "name": "assetId",
          "type": "bytes32"
        },
        {
          "indexed": false,
          "name": "name",
          "type": "string"
        },
        {
          "indexed": true,
          "name": "totalShareNumber",
          "type": "uint256"
        },
        {
          "indexed": false,
          "name": "index",
          "type": "uint256"
        }
      ],
      "name": "LogNewAsset",
      "type": "event"
    },
    {
      "anonymous": false,
      "inputs": [
        {
          "indexed": true,
          "name": "assetId",
          "type": "bytes32"
        },
        {
          "indexed": false,
          "name": "name",
          "type": "string"
        },
        {
          "indexed": true,
          "name": "totalShareNumber",
          "type": "uint256"
        },
        {
          "indexed": false,
          "name": "index",
          "type": "uint256"
        }
      ],
      "name": "LogAssetUpdated",
      "type": "event"
    },
    {
      "anonymous": false,
      "inputs": [
        {
          "indexed": true,
          "name": "assetId",
          "type": "bytes32"
        },
        {
          "indexed": true,
          "name": "entityId",
          "type": "bytes32"
        },
        {
          "indexed": true,
          "name": "numberOfShares",
          "type": "uint256"
        }
      ],
      "name": "LogNewShareholder",
      "type": "event"
    },
    {
      "anonymous": false,
      "inputs": [
        {
          "indexed": true,
          "name": "assetId",
          "type": "bytes32"
        },
        {
          "indexed": true,
          "name": "entityId",
          "type": "bytes32"
        },
        {
          "indexed": true,
          "name": "numberOfShares",
          "type": "uint256"
        }
      ],
      "name": "LogShareholderUpdated",
      "type": "event"
    },
    {
      "constant": true,
      "inputs": [
        {
          "name": "assetId",
          "type": "bytes32"
        }
      ],
      "name": "doesAssetExist",
      "outputs": [
        {
          "name": "",
          "type": "bool"
        }
      ],
      "payable": false,
      "stateMutability": "view",
      "type": "function"
    },
    {
      "constant": true,
      "inputs": [
        {
          "name": "assetId",
          "type": "bytes32"
        },
        {
          "name": "sellerId",
          "type": "bytes32"
        },
        {
          "name": "numberOfShares",
          "type": "uint256"
        }
      ],
      "name": "validateSeller",
      "outputs": [
        {
          "name": "",
          "type": "bool"
        }
      ],
      "payable": false,
      "stateMutability": "view",
      "type": "function"
    },
    {
      "constant": true,
      "inputs": [
        {
          "name": "data",
          "type": "bytes"
        }
      ],
      "name": "hashData",
      "outputs": [
        {
          "name": "hashed",
          "type": "bytes32"
        }
      ],
      "payable": false,
      "stateMutability": "pure",
      "type": "function"
    },
    {
      "constant": false,
      "inputs": [
        {
          "name": "assetId",
          "type": "bytes32"
        },
        {
          "name": "name",
          "type": "string"
        },
        {
          "name": "totalShareNumber",
          "type": "uint256"
        },
        {
          "name": "approvals",
          "type": "bytes32[30]"
        }
      ],
      "name": "addAsset",
      "outputs": [
        {
          "name": "",
          "type": "bool"
        }
      ],
      "payable": false,
      "stateMutability": "nonpayable",
      "type": "function"
    },
    {
      "constant": false,
      "inputs": [
        {
          "name": "assetId",
          "type": "bytes32"
        },
        {
          "name": "name",
          "type": "string"
        },
        {
          "name": "totalShareNumber",
          "type": "uint256"
        },
        {
          "name": "approvals",
          "type": "bytes32[30]"
        }
      ],
      "name": "updateAsset",
      "outputs": [
        {
          "name": "",
          "type": "bool"
        }
      ],
      "payable": false,
      "stateMutability": "nonpayable",
      "type": "function"
    },
    {
      "constant": true,
      "inputs": [
        {
          "name": "assetId",
          "type": "bytes32"
        }
      ],
      "name": "getTotalShareNumber",
      "outputs": [
        {
          "name": "",
          "type": "uint256"
        }
      ],
      "payable": false,
      "stateMutability": "view",
      "type": "function"
    },
    {
      "constant": true,
      "inputs": [
        {
          "name": "assetId",
          "type": "bytes32"
        }
      ],
      "name": "getName",
      "outputs": [
        {
          "name": "",
          "type": "bytes"
        }
      ],
      "payable": false,
      "stateMutability": "view",
      "type": "function"
    },
    {
      "constant": true,
      "inputs": [],
      "name": "getAssetsCount",
      "outputs": [
        {
          "name": "",
          "type": "uint256"
        }
      ],
      "payable": false,
      "stateMutability": "view",
      "type": "function"
    },
    {
      "constant": true,
      "inputs": [
        {
          "name": "assetId",
          "type": "bytes32"
        }
      ],
      "name": "getShareholdersCount",
      "outputs": [
        {
          "name": "",
          "type": "uint256"
        }
      ],
      "payable": false,
      "stateMutability": "view",
      "type": "function"
    },
    {
      "constant": true,
      "inputs": [
        {
          "name": "assetId",
          "type": "bytes32"
        },
        {
          "name": "shareholderId",
          "type": "bytes32"
        }
      ],
      "name": "getShareholderShares",
      "outputs": [
        {
          "name": "",
          "type": "uint256"
        }
      ],
      "payable": false,
      "stateMutability": "view",
      "type": "function"
    },
    {
      "constant": false,
      "inputs": [
        {
          "name": "assetId",
          "type": "bytes32"
        },
        {
          "name": "entityId",
          "type": "bytes32"
        },
        {
          "name": "numberOfShares",
          "type": "uint256"
        }
      ],
      "name": "addShareholder",
      "outputs": [
        {
          "name": "",
          "type": "bool"
        }
      ],
      "payable": false,
      "stateMutability": "nonpayable",
      "type": "function"
    },
    {
      "constant": false,
      "inputs": [
        {
          "name": "assetId",
          "type": "bytes32"
        },
        {
          "name": "entityId",
          "type": "bytes32"
        },
        {
          "name": "numberOfShares",
          "type": "uint256"
        }
      ],
      "name": "updateShareholder",
      "outputs": [
        {
          "name": "",
          "type": "bool"
        }
      ],
      "payable": false,
      "stateMutability": "nonpayable",
      "type": "function"
    },
    {
      "constant": false,
      "inputs": [
        {
          "name": "assetId",
          "type": "bytes32"
        },
        {
          "name": "entityId",
          "type": "bytes32"
        },
        {
          "name": "numberOfShares",
          "type": "uint256"
        }
      ],
      "name": "increaseHoldings",
      "outputs": [
        {
          "name": "",
          "type": "bool"
        }
      ],
      "payable": false,
      "stateMutability": "nonpayable",
      "type": "function"
    },
    {
      "constant": false,
      "inputs": [
        {
          "name": "assetId",
          "type": "bytes32"
        },
        {
          "name": "entityId",
          "type": "bytes32"
        },
        {
          "name": "numberOfShares",
          "type": "uint256"
        }
      ],
      "name": "decreaseHoldings",
      "outputs": [
        {
          "name": "",
          "type": "bool"
        }
      ],
      "payable": false,
      "stateMutability": "nonpayable",
      "type": "function"
    },
    {
      "constant": true,
      "inputs": [
        {
          "name": "assetId",
          "type": "bytes32"
        },
        {
          "name": "i",
          "type": "uint256"
        }
      ],
      "name": "getRequiredApproval",
      "outputs": [
        {
          "name": "",
          "type": "bytes32"
        }
      ],
      "payable": false,
      "stateMutability": "view",
      "type": "function"
    },
    {
      "constant": true,
      "inputs": [
        {
          "name": "assetId",
          "type": "bytes32"
        }
      ],
      "name": "getApprovalsCount",
      "outputs": [
        {
          "name": "",
          "type": "uint256"
        }
      ],
      "payable": false,
      "stateMutability": "view",
      "type": "function"
    }
  ],
  "bytecode": "0x6060604052341561000f57600080fd5b6129ff8061001e6000396000f300606060405260043610610112576000357c0100000000000000000000000000000000000000000000000000000000900463ffffffff1680630aac5dfd146101175780631bb08793146101405780633904ae6c1461017b57806354b8d5e3146101b65780636ba565ab14610256578063717798391461029557806385c6b25f146102ea5780639f577c15146103295780639fda5b661461037a578063b29195ce14610445578063b8b9ad221461049a578063d7dfc1ea146104e6578063da3613e41461053b578063e66ef92d14610583578063e893d85d146105fc578063ec95bfe714610651578063ed9d25ae14610692578063f3f8d54d1461074a578063f800972214610802578063fcda268514610857575b600080fd5b341561012257600080fd5b61012a610892565b6040518082815260200191505060405180910390f35b341561014b57600080fd5b61016560048080356000191690602001909190505061089f565b6040518082815260200191505060405180910390f35b341561018657600080fd5b6101a06004808035600019169060200190919050506108ca565b6040518082815260200191505060405180910390f35b34156101c157600080fd5b6101db6004808035600019169060200190919050506108f2565b6040518080602001828103825283818151815260200191508051906020019080838360005b8381101561021b578082015181840152602081019050610200565b50505050905090810190601f1680156102485780820380516001836020036101000a031916815260200191505b509250505060405180910390f35b341561026157600080fd5b61027760048080359060200190919050506109b8565b60405180826000191660001916815260200191505060405180910390f35b34156102a057600080fd5b6102d0600480803560001916906020019091908035600019169060200190919080359060200190919050506109dc565b604051808215151515815260200191505060405180910390f35b34156102f557600080fd5b61030f600480803560001916906020019091905050610ec0565b604051808215151515815260200191505060405180910390f35b341561033457600080fd5b610360600480803573ffffffffffffffffffffffffffffffffffffffff16906020019091905050610fbc565b604051808215151515815260200191505060405180910390f35b341561038557600080fd5b61039f6004808035600019169060200190919050506110cd565b60405180806020018481526020018381526020018281038252858181546001816001161561010002031660029004815260200191508054600181600116156101000203166002900480156104345780601f1061040957610100808354040283529160200191610434565b820191906000526020600020905b81548152906001019060200180831161041757829003601f168201915b505094505050505060405180910390f35b341561045057600080fd5b610480600480803560001916906020019091908035600019169060200190919080359060200190919050506110f6565b604051808215151515815260200191505060405180910390f35b34156104a557600080fd5b6104c860048080356000191690602001909190803590602001909190505061119b565b60405180826000191660001916815260200191505060405180910390f35b34156104f157600080fd5b610521600480803560001916906020019091908035600019169060200190919080359060200190919050506111e5565b604051808215151515815260200191505060405180910390f35b341561054657600080fd5b61056d60048080356000191690602001909190803560001916906020019091905050611683565b6040518082815260200191505060405180910390f35b341561058e57600080fd5b6105de600480803590602001908201803590602001908080601f016020809104026020016040519081016040528093929190818152602001838380828437820191505050505050919050506116c5565b60405180826000191660001916815260200191505060405180910390f35b341561060757600080fd5b61063760048080356000191690602001909190803560001916906020019091908035906020019091905050611731565b604051808215151515815260200191505060405180910390f35b341561065c57600080fd5b610676600480803560001916906020019091905050611981565b604051808260ff1660ff16815260200191505060405180910390f35b341561069d57600080fd5b61073060048080356000191690602001909190803590602001908201803590602001908080601f0160208091040260200160405190810160405280939291908181526020018383808284378201915050505050509190803590602001909190806103c00190601e806020026040519081016040528092919082601e602002808284378201915050505050919050506119ac565b604051808215151515815260200191505060405180910390f35b341561075557600080fd5b6107e860048080356000191690602001909190803590602001908201803590602001908080601f0160208091040260200160405190810160405280939291908181526020018383808284378201915050505050509190803590602001909190806103c00190601e806020026040519081016040528092919082601e60200280828437820191505050505091905050611c62565b604051808215151515815260200191505060405180910390f35b341561080d57600080fd5b61083d600480803560001916906020019091908035600019169060200190919080359060200190919050506120e2565b604051808215151515815260200191505060405180910390f35b341561086257600080fd5b61087c600480803560001916906020019091905050612332565b6040518082815260200191505060405180910390f35b6000600380549050905090565b6000600260008360001916600019168152602001908152602001600020600301805490509050919050565b6000600260008360001916600019168152602001908152602001600020600101549050919050565b6108fa612756565b6002600083600019166000191681526020019081526020016000206000018054600181600116156101000203166002900480601f0160208091040260200160405190810160405280929190818152602001828054600181600116156101000203166002900480156109ac5780601f10610981576101008083540402835291602001916109ac565b820191906000526020600020905b81548152906001019060200180831161098f57829003601f168201915b50505050509050919050565b6003818154811015156109c757fe5b90600052602060002090016000915090505481565b600080600260008060009054906101000a900473ffffffffffffffffffffffffffffffffffffffff1673ffffffffffffffffffffffffffffffffffffffff1663ec56a3736000604051602001526040518163ffffffff167c010000000000000000000000000000000000000000000000000000000002815260040180807f61637469766974795f6c696d69746572000000000000000000000000000000008152506020019050602060405180830381600087803b1515610a9b57600080fd5b6102c65a03f11515610aac57600080fd5b5050506040518051905090508073ffffffffffffffffffffffffffffffffffffffff16631c9a2337836040518263ffffffff167c010000000000000000000000000000000000000000000000000000000002815260040180826008811115610b1057fe5b60ff168152602001915050600060405180830381600087803b1515610b3457600080fd5b6102c65a03f11515610b4557600080fd5b50505086610b5281610ec0565b1515610b5d57600080fd5b878787600080610b9f6000368080601f0160208091040260200160405190810160405280939291908181526020018383808284378201915050505050506116c5565b9150610bab85836123b2565b90506001600083600019166000191681526020019081526020016000206001016000826000191660001916815260200190815260200160002060009054906101000a900460ff1615610bfc57610eb0565b600180600084600019166000191681526020019081526020016000206001016000836000191660001916815260200190815260200160002060006101000a81548160ff021916908315150217905550600160008360001916600019168152602001908152602001600020600001600081819054906101000a900460ff168092919060010191906101000a81548160ff021916908360ff1602179055505060016000836000191660001916815260200190815260200160002060000160009054906101000a900460ff1660ff16610cd186612332565b1115610d9a57836000191685600019167fcd7ff0b862a90438a54f6ade4ed323ba44d5ddc819225285d6478d76ea7cfc868560016000876000191660001916815260200190815260200160002060000160009054906101000a900460ff168633604051808581526020018460ff1660ff16815260200183600019166000191681526020018273ffffffffffffffffffffffffffffffffffffffff1673ffffffffffffffffffffffffffffffffffffffff16815260200194505050505060405180910390a3610eb0565b600160008360001916600019168152602001908152602001600020600080820160006101000a81549060ff0219169055505060008d6000191614151515610de057600080fd5b60008c6000191614151515610df457600080fd5b60008b14151515610e0457600080fd5b600260008e6000191660001916815260200190815260200160002098508a8960020160008e6000191660001916815260200190815260200160002081905550886003018054806001018281610e59919061276a565b916000526020600020900160008e909190915090600019169055508a8c600019168e600019167fedeb5b0baf09c84318482b1858b84ff041be1fb9f675eb18872ece002349545c60405160405180910390a4600199505b5050505050505050509392505050565b6000610eca612756565b6002600084600019166000191681526020019081526020016000206000018054600181600116156101000203166002900480601f016020809104026020016040519081016040528092919081815260200182805460018160011615610100020316600290048015610f7c5780601f10610f5157610100808354040283529160200191610f7c565b820191906000526020600020905b815481529060010190602001808311610f5f57829003601f168201915b505050505090506000815114158015610fb4575060006002600085600019166000191681526020019081526020016000206001015414155b915050919050565b6000808273ffffffffffffffffffffffffffffffffffffffff1614151515610fe357600080fd5b60008060009054906101000a900473ffffffffffffffffffffffffffffffffffffffff1673ffffffffffffffffffffffffffffffffffffffff16148061107557506000809054906101000a900473ffffffffffffffffffffffffffffffffffffffff1673ffffffffffffffffffffffffffffffffffffffff163373ffffffffffffffffffffffffffffffffffffffff16145b156110c357816000806101000a81548173ffffffffffffffffffffffffffffffffffffffff021916908373ffffffffffffffffffffffffffffffffffffffff160217905550600190506110c8565b600090505b919050565b600260205280600052604060002060009150905080600001908060010154908060220154905083565b60008361110281610ec0565b151561110d57600080fd5b600085600019161415151561112157600080fd5b600084600019161415151561113557600080fd5b6000831415151561114557600080fd5b82600260008760001916600019168152602001908152602001600020600201600086600019166000191681526020019081526020016000205410151561118e5760019150611193565b600091505b509392505050565b6000808360001916141515156111b057600080fd5b60026000846000191660001916815260200190815260200160002060040182601e811015156111db57fe5b0154905092915050565b6000600260008060009054906101000a900473ffffffffffffffffffffffffffffffffffffffff1673ffffffffffffffffffffffffffffffffffffffff1663ec56a3736000604051602001526040518163ffffffff167c010000000000000000000000000000000000000000000000000000000002815260040180807f61637469766974795f6c696d69746572000000000000000000000000000000008152506020019050602060405180830381600087803b15156112a357600080fd5b6102c65a03f115156112b457600080fd5b5050506040518051905090508073ffffffffffffffffffffffffffffffffffffffff16631c9a2337836040518263ffffffff167c01000000000000000000000000000000000000000000000000000000000281526004018082600881111561131857fe5b60ff168152602001915050600060405180830381600087803b151561133c57600080fd5b6102c65a03f1151561134d57600080fd5b5050508561135a81610ec0565b151561136557600080fd5b8686866000806113a76000368080601f0160208091040260200160405190810160405280939291908181526020018383808284378201915050505050506116c5565b91506113b385836123b2565b90506001600083600019166000191681526020019081526020016000206001016000826000191660001916815260200190815260200160002060009054906101000a900460ff161561140457611674565b600180600084600019166000191681526020019081526020016000206001016000836000191660001916815260200190815260200160002060006101000a81548160ff021916908315150217905550600160008360001916600019168152602001908152602001600020600001600081819054906101000a900460ff168092919060010191906101000a81548160ff021916908360ff1602179055505060016000836000191660001916815260200190815260200160002060000160009054906101000a900460ff1660ff166114d986612332565b11156115a257836000191685600019167fcd7ff0b862a90438a54f6ade4ed323ba44d5ddc819225285d6478d76ea7cfc868560016000876000191660001916815260200190815260200160002060000160009054906101000a900460ff168633604051808581526020018460ff1660ff16815260200183600019166000191681526020018273ffffffffffffffffffffffffffffffffffffffff1673ffffffffffffffffffffffffffffffffffffffff16815260200194505050505060405180910390a3611674565b600160008360001916600019168152602001908152602001600020600080820160006101000a81549060ff0219169055505060008c60001916141515156115e857600080fd5b60008b60001916141515156115fc57600080fd5b89600260008e6000191660001916815260200190815260200160002060020160008d6000191660001916815260200190815260200160002081905550898b600019168d600019167fb811800e135d90c36288c9b6b7b74f4d5e4e7252aa2bfaf0d1d2bae4a0287f5b60405160405180910390a4600198505b50505050505050509392505050565b60006002600084600019166000191681526020019081526020016000206002016000836000191660001916815260200190815260200160002054905092915050565b6000816040518082805190602001908083835b6020831015156116fd57805182526020820191506020810190506020830392506116d8565b6001836020036101000a03801982511681845116808217855250505050505090500191505060405180910390209050919050565b60008361173d81610ec0565b151561174857600080fd5b60008060009054906101000a900473ffffffffffffffffffffffffffffffffffffffff1673ffffffffffffffffffffffffffffffffffffffff1663ec56a3736000604051602001526040518163ffffffff167c010000000000000000000000000000000000000000000000000000000002815260040180807f736574746c656d656e74000000000000000000000000000000000000000000008152506020019050602060405180830381600087803b151561180257600080fd5b6102c65a03f1151561181357600080fd5b5050506040518051905090508073ffffffffffffffffffffffffffffffffffffffff163373ffffffffffffffffffffffffffffffffffffffff1614151561185957600080fd5b600086600019161415151561186d57600080fd5b600085600019161415151561188157600080fd5b6118cb84600260008960001916600019168152602001908152602001600020600201600088600019166000191681526020019081526020016000205461271f90919063ffffffff16565b60026000886000191660001916815260200190815260200160002060020160008760001916600019168152602001908152602001600020819055506002600087600019166000191681526020019081526020016000206002016000866000191660001916815260200190815260200160002054856000191687600019167fb811800e135d90c36288c9b6b7b74f4d5e4e7252aa2bfaf0d1d2bae4a0287f5b60405160405180910390a46001925050509392505050565b60016020528060005260406000206000915090508060000160009054906101000a900460ff16905081565b600080600160008060009054906101000a900473ffffffffffffffffffffffffffffffffffffffff1673ffffffffffffffffffffffffffffffffffffffff1663ec56a3736000604051602001526040518163ffffffff167c010000000000000000000000000000000000000000000000000000000002815260040180807f61637469766974795f6c696d69746572000000000000000000000000000000008152506020019050602060405180830381600087803b1515611a6b57600080fd5b6102c65a03f11515611a7c57600080fd5b5050506040518051905090508073ffffffffffffffffffffffffffffffffffffffff16631c9a2337836040518263ffffffff167c010000000000000000000000000000000000000000000000000000000002815260040180826008811115611ae057fe5b60ff168152602001915050600060405180830381600087803b1515611b0457600080fd5b6102c65a03f11515611b1557600080fd5b50505087611b2281610ec0565b1515611b2d57600080fd5b600260008a60001916600019168152602001908152602001600020935087846000019080519060200190611b62929190612796565b50868460010181905550858460040190601e611b7f929190612816565b50836001015489600019167f16e486da132bad7067c4bc110c161c04dc91e46d8a35788ba38cc394cfabd6fb8660000187602201546040518080602001838152602001828103825284818154600181600116156101000203166002900481526020019150805460018160011615610100020316600290048015611c435780601f10611c1857610100808354040283529160200191611c43565b820191906000526020600020905b815481529060010190602001808311611c2657829003601f168201915b5050935050505060405180910390a36001945050505050949350505050565b6000611c6c612756565b611c74612756565b611c7c61285c565b6000806000809054906101000a900473ffffffffffffffffffffffffffffffffffffffff1673ffffffffffffffffffffffffffffffffffffffff1663ec56a3736000604051602001526040518163ffffffff167c010000000000000000000000000000000000000000000000000000000002815260040180807f61637469766974795f6c696d69746572000000000000000000000000000000008152506020019050602060405180830381600087803b1515611d3757600080fd5b6102c65a03f11515611d4857600080fd5b5050506040518051905090508073ffffffffffffffffffffffffffffffffffffffff16631c9a2337836040518263ffffffff167c010000000000000000000000000000000000000000000000000000000002815260040180826008811115611dac57fe5b60ff168152602001915050600060405180830381600087803b1515611dd057600080fd5b6102c65a03f11515611de157600080fd5b505050600260008b600019166000191681526020019081526020016000206000018054600181600116156101000203166002900480601f016020809104026020016040519081016040528092919081815260200182805460018160011615610100020316600290048015611e965780601f10611e6b57610100808354040283529160200191611e96565b820191906000526020600020905b815481529060010190602001808311611e7957829003601f168201915b5050505050945060008551141515611ead57600080fd5b6000600260008c6000191660001916815260200190815260200160002060010154141515611eda57600080fd5b6000600260008c6000191660001916815260200190815260200160002060220154141515611f0757600080fd5b60008a6000191614151515611f1b57600080fd5b8893506000845114151515611f2f57600080fd5b60008814151515611f3f57600080fd5b60a0604051908101604052808a8152602001898152602001848152602001888152602001600380549050815250600260008c600019166000191681526020019081526020016000206000820151816000019080519060200190611fa3929190612870565b50602082015181600101556040820151816003019080519060200190611fca9291906128f0565b5060608201518160040190601e611fe2929190612943565b506080820151816022015590505060038054806001018281612004919061276a565b916000526020600020900160008c90919091509060001916905550878a600019167f815090066c2255a4393479427eaa8c2420508e5f127e14b653b4e7e9619ee0118b6001600380549050036040518080602001838152602001828103825284818151815260200191508051906020019080838360005b8381101561209657808201518184015260208101905061207b565b50505050905090810190601f1680156120c35780820380516001836020036101000a031916815260200191505b50935050505060405180910390a3600195505050505050949350505050565b6000836120ee81610ec0565b15156120f957600080fd5b60008060009054906101000a900473ffffffffffffffffffffffffffffffffffffffff1673ffffffffffffffffffffffffffffffffffffffff1663ec56a3736000604051602001526040518163ffffffff167c010000000000000000000000000000000000000000000000000000000002815260040180807f736574746c656d656e74000000000000000000000000000000000000000000008152506020019050602060405180830381600087803b15156121b357600080fd5b6102c65a03f115156121c457600080fd5b5050506040518051905090508073ffffffffffffffffffffffffffffffffffffffff163373ffffffffffffffffffffffffffffffffffffffff1614151561220a57600080fd5b600086600019161415151561221e57600080fd5b600085600019161415151561223257600080fd5b61227c84600260008960001916600019168152602001908152602001600020600201600088600019166000191681526020019081526020016000205461273890919063ffffffff16565b60026000886000191660001916815260200190815260200160002060020160008760001916600019168152602001908152602001600020819055506002600087600019166000191681526020019081526020016000206002016000866000191660001916815260200190815260200160002054856000191687600019167fb811800e135d90c36288c9b6b7b74f4d5e4e7252aa2bfaf0d1d2bae4a0287f5b60405160405180910390a46001925050509392505050565b60008060006002600085600019166000191681526020019081526020016000206004019150600090505b601e8160ff1610156123a657600060010260001916828260ff16601e8110151561238257fe5b0154600019161415612399578060ff1692506123ab565b808060010191505061235c565b601e92505b5050919050565b60008060008060008060009054906101000a900473ffffffffffffffffffffffffffffffffffffffff1673ffffffffffffffffffffffffffffffffffffffff1663ec56a3736000604051602001526040518163ffffffff167c010000000000000000000000000000000000000000000000000000000002815260040180807f656e746974795f726567697374727900000000000000000000000000000000008152506020019050602060405180830381600087803b151561247257600080fd5b6102c65a03f1151561248357600080fd5b5050506040518051905093506002600088600019166000191681526020019081526020016000206004019250600091505b601e8260ff161015612710578373ffffffffffffffffffffffffffffffffffffffff1663deb931a2848460ff16601e811015156124ed57fe5b01546000604051602001526040518263ffffffff167c0100000000000000000000000000000000000000000000000000000000028152600401808260001916600019168152602001915050602060405180830381600087803b151561255157600080fd5b6102c65a03f1151561256257600080fd5b5050506040518051905090506001600087600019166000191681526020019081526020016000206001016000848460ff16601e8110151561259f57fe5b01546000191660001916815260200190815260200160002060009054906101000a900460ff161580156126e457503373ffffffffffffffffffffffffffffffffffffffff168173ffffffffffffffffffffffffffffffffffffffff1614806126e357508373ffffffffffffffffffffffffffffffffffffffff16636a10fbba848460ff16601e8110151561262f57fe5b0154336000604051602001526040518363ffffffff167c01000000000000000000000000000000000000000000000000000000000281526004018083600019166000191681526020018273ffffffffffffffffffffffffffffffffffffffff1673ffffffffffffffffffffffffffffffffffffffff16815260200192505050602060405180830381600087803b15156126c757600080fd5b6102c65a03f115156126d857600080fd5b505050604051805190505b5b1561270357828260ff16601e811015156126fa57fe5b01549450612715565b81806001019250506124b4565b600080fd5b5050505092915050565b600082821115151561272d57fe5b818303905092915050565b600080828401905083811015151561274c57fe5b8091505092915050565b602060405190810160405280600081525090565b815481835581811511612791578183600052602060002091820191016127909190612989565b5b505050565b828054600181600116156101000203166002900490600052602060002090601f016020900481019282601f106127d757805160ff1916838001178555612805565b82800160010185558215612805579182015b828111156128045782518255916020019190600101906127e9565b5b50905061281291906129ae565b5090565b82601e810192821561284b579160200282015b8281111561284a578251829060001916905591602001919060010190612829565b5b5090506128589190612989565b5090565b602060405190810160405280600081525090565b828054600181600116156101000203166002900490600052602060002090601f016020900481019282601f106128b157805160ff19168380011785556128df565b828001600101855582156128df579182015b828111156128de5782518255916020019190600101906128c3565b5b5090506128ec91906129ae565b5090565b828054828255906000526020600020908101928215612932579160200282015b82811115612931578251829060001916905591602001919060010190612910565b5b50905061293f9190612989565b5090565b82601e8101928215612978579160200282015b82811115612977578251829060001916905591602001919060010190612956565b5b5090506129859190612989565b5090565b6129ab91905b808211156129a757600081600090555060010161298f565b5090565b90565b6129d091905b808211156129cc5760008160009055506001016129b4565b5090565b905600a165627a7a723058202b73e5a49d3c1a813262c36e96f1a42f1c5ad11c96bc21880f07756d6b1d03a70029",
  "source": "pragma solidity ^0.4.17;\n\nimport './ContractProviderEnabled.sol';\nimport './Limited.sol';\n\nimport './interfaces/IAssetRegistry.sol';\nimport './interfaces/IEntityRegistry.sol';\nimport './interfaces/IContractProvider.sol';\nimport 'zeppelin-solidity/contracts/math/SafeMath.sol';\n\ncontract AssetRegistry is ContractProviderEnabled, Limited, IAssetRegistry {\n    using SafeMath for uint256;\n\n    struct Asset {\n        string name;\n        uint256 totalShareNumber;\n        mapping(bytes32 => uint256) shareholders;\n        bytes32[] shareholdersLUT;\n        bytes32[30] requiredApprovals;\n        uint256 index;\n    }\n\n    struct Confirmation {\n        uint8 count;\n        mapping(bytes32 => bool) approvals;\n    }\n\n    mapping(bytes32 => Confirmation) public confirmations;\n\n    mapping(bytes32 => Asset) public assets;\n    bytes32[] public assetsLUT;\n\n    event LogPendingConfirmation(\n        bytes32 indexed assetId,\n        bytes32 indexed entityId,\n        uint256 numberOfShares,\n        uint8 count,\n        bytes32 key,\n        address sender\n    );\n\n    event LogNewAsset(\n        bytes32 indexed assetId,\n        string name,\n        uint256 indexed totalShareNumber,\n        uint256 index\n    );\n\n    event LogAssetUpdated(\n        bytes32 indexed assetId,\n        string name,\n        uint256 indexed totalShareNumber,\n        uint256 index\n    );\n\n    event LogNewShareholder(\n        bytes32 indexed assetId,\n        bytes32 indexed entityId,\n        uint256 indexed numberOfShares\n    );\n\n    event LogShareholderUpdated(\n        bytes32 indexed assetId,\n        bytes32 indexed entityId,\n        uint256 indexed numberOfShares\n    );\n\n    /**\n     * Check if asset exists\n     */\n    modifier assetExists(bytes32 assetId) {\n        require(doesAssetExist(assetId));\n        _;\n    }\n\n    modifier onlySettlement() {\n        address settlement = IContractProvider(cp).contracts(\"settlement\");\n        require(msg.sender == settlement);\n        _;\n    }\n\n    modifier onlyApproved(bytes32 assetId, bytes32 entityId, uint256 numberOfShares) {\n        bytes32 key = hashData(msg.data);\n        bytes32 approvingEntityId = onlyRequiredApproval(assetId, key);\n\n        // if you already confirmed that transaction, do nothing\n        if (confirmations[key].approvals[approvingEntityId]) return;\n\n        confirmations[key].approvals[approvingEntityId] = true;\n        confirmations[key].count++;\n\n        // is it not confirmed?\n        if (getApprovalsCount(assetId) > confirmations[key].count) {\n            LogPendingConfirmation(\n                assetId,\n                entityId,\n                numberOfShares,\n                confirmations[key].count,\n                key,\n                msg.sender\n            );\n            return;\n        }\n        delete confirmations[key];\n        _;\n    }\n\n    function doesAssetExist(bytes32 assetId)\n        public\n        view\n        returns(bool)\n    {\n        bytes memory name = bytes(assets[assetId].name);\n        return name.length != 0 && assets[assetId].totalShareNumber != 0;\n    }\n\n    function validateSeller(bytes32 assetId, bytes32 sellerId, uint256 numberOfShares)\n        external\n        view\n        assetExists(assetId)\n        returns (bool)\n    {\n        require(assetId != \"\");\n        require(sellerId != \"\");\n        require(numberOfShares != 0);\n\n        if (assets[assetId].shareholders[sellerId] >= numberOfShares) {\n            return true;\n        } else {\n            return false;\n        }\n    }\n\n    function hashData(bytes data)\n        public\n        pure\n        returns (bytes32 hashed)\n    {\n        return keccak256(data);\n    }\n\n    /**\n     * Add new asset\n     * Note: approvals should have the property that all addresses at indices\n     * greater than the index of a zero address are also zero.\n     */\n    function addAsset(bytes32 assetId, string name, uint256 totalShareNumber, bytes32[30] approvals)\n        public\n        performs(NetworkActivity.AddAsset)\n        returns (bool)\n    {\n        bytes memory assetName = bytes(assets[assetId].name);\n        require(assetName.length == 0);\n        require(assets[assetId].totalShareNumber == 0);\n        require(assets[assetId].index == 0);\n\n        require(assetId != \"\");\n        bytes memory bytesName = bytes(name);\n        require(bytesName.length != 0);\n        require(totalShareNumber != 0);\n\n        bytes32[] memory emptyArray;\n        assets[assetId] = Asset({\n            name: name,\n            totalShareNumber: totalShareNumber,\n            shareholdersLUT: emptyArray,\n            requiredApprovals: approvals,\n            index: assetsLUT.length\n            });\n        assetsLUT.push(assetId);\n\n        LogNewAsset(assetId, name, totalShareNumber, assetsLUT.length - 1);\n        return true;\n    }\n\n    /**\n    * Update existing asset\n    * Note: approvals should have the property that all addresses at indices\n    * greater than the index of a zero address are also zero.\n    */\n    function updateAsset(bytes32 assetId, string name, uint256 totalShareNumber, bytes32[30] approvals)\n        public\n        performs(NetworkActivity.UpdateAsset)\n        assetExists(assetId)\n        returns (bool)\n    {\n        Asset storage asset = assets[assetId];\n        asset.name = name;\n        asset.totalShareNumber = totalShareNumber;\n        asset.requiredApprovals = approvals;\n\n        LogAssetUpdated(assetId, asset.name, asset.totalShareNumber, asset.index);\n        return true;\n    }\n\n\n    function getTotalShareNumber(bytes32 assetId) public view returns (uint256) {\n        return assets[assetId].totalShareNumber;\n    }\n\n    function getName(bytes32 assetId) public view returns (bytes) {\n        return bytes(assets[assetId].name);\n    }\n\n    function getAssetsCount() public view returns (uint256) {\n        return assetsLUT.length;\n    }\n\n    function getShareholdersCount(bytes32 assetId) public view returns (uint256) {\n        return assets[assetId].shareholdersLUT.length;\n    }\n\n    function getShareholderShares(bytes32 assetId, bytes32 shareholderId)\n        public\n        view\n        returns (uint256)\n    {\n        return assets[assetId].shareholders[shareholderId];\n    }\n\n    /**\n     * Add shareholder to already existing asset\n     */\n    function addShareholder(bytes32 assetId, bytes32 entityId, uint256 numberOfShares)\n        public\n        performs(NetworkActivity.ManageShareholder)\n        assetExists(assetId)\n        onlyApproved(assetId, entityId, numberOfShares)\n        returns (bool)\n    {\n        require(assetId != \"\");\n        require(entityId != \"\");\n        require(numberOfShares != 0);\n\n        Asset storage asset = assets[assetId];\n        asset.shareholders[entityId] = numberOfShares;\n        asset.shareholdersLUT.push(entityId);\n\n        LogNewShareholder(assetId, entityId, numberOfShares);\n        return true;\n    }\n\n    /**\n     * Update existing shareholder\n     */\n    function updateShareholder(bytes32 assetId, bytes32 entityId, uint256 numberOfShares)\n        public\n        performs(NetworkActivity.ManageShareholder)\n        assetExists(assetId)\n        onlyApproved(assetId, entityId, numberOfShares)\n        returns(bool)\n    {\n        require(assetId != \"\");\n        require(entityId != \"\");\n\n        assets[assetId].shareholders[entityId] = numberOfShares;\n\n        LogShareholderUpdated(assetId, entityId, numberOfShares);\n        return true;\n    }\n\n    function increaseHoldings(bytes32 assetId, bytes32 entityId, uint256 numberOfShares)\n        public\n        assetExists(assetId)\n        onlySettlement\n        returns(bool)\n    {\n        require(assetId != \"\");\n        require(entityId != \"\");\n\n        assets[assetId].shareholders[entityId] =\n            assets[assetId].shareholders[entityId].add(numberOfShares);\n\n        LogShareholderUpdated(assetId, entityId, assets[assetId].shareholders[entityId]);\n        return true;\n    }\n\n    function decreaseHoldings(bytes32 assetId, bytes32 entityId, uint256 numberOfShares)\n        public\n        assetExists(assetId)\n        onlySettlement\n        returns(bool)\n    {\n        require(assetId != \"\");\n        require(entityId != \"\");\n\n        assets[assetId].shareholders[entityId] =\n            assets[assetId].shareholders[entityId].sub(numberOfShares);\n\n        LogShareholderUpdated(assetId, entityId, assets[assetId].shareholders[entityId]);\n        return true;\n    }\n\n    /**\n     * Fetch the list of required approvals\n     */\n    function getRequiredApproval(bytes32 assetId, uint256 i)\n        public\n        view\n        returns (bytes32)\n    {\n        require(assetId != \"\");\n        return assets[assetId].requiredApprovals[i];\n    }\n\n    /**\n     * Get the number of required approvals\n     */\n    function getApprovalsCount(bytes32 assetId)\n        public\n        view\n        returns (uint256)\n    {\n        bytes32[30] storage approvals = assets[assetId].requiredApprovals;\n        for (uint8 i = 0; i < approvals.length; i++) {\n            if (approvals[i] == bytes32(0))\n                return i;\n        }\n        return approvals.length;\n    }\n\n    function onlyRequiredApproval(bytes32 assetId, bytes32 key)\n        internal\n        view\n        returns (bytes32 entityId)\n    {\n        address entityRegistryAddr = IContractProvider(cp).contracts(\"entity_registry\");\n\n        bytes32[30] storage approvals = assets[assetId].requiredApprovals;\n        for (uint8 i = 0; i < approvals.length; i++) {\n            address entityOwner = IEntityRegistry(entityRegistryAddr).getOwner(approvals[i]);\n            if (\n                !confirmations[key].approvals[approvals[i]]\n                && (entityOwner == msg.sender\n                || IEntityRegistry(entityRegistryAddr).delegates(approvals[i], msg.sender))\n                ) {\n                return approvals[i];\n            }\n        }\n        revert();\n    }\n\n}\n\n",
  "sourcePath": "/home/user/ofn-engine/contracts/AssetRegistry.sol",
  "compiler": {
    "name": "solc",
    "version": "0.4.19+commit.c4cbbb05.Emscripten.clang"
  },
  "schemaVersion": "2.0.0",
  "updatedAt": "2018-03-01T22:11:38.050Z"
}