{
  "contractName": "BalanceManager",
  "abi": [
    {
      "constant": true,
      "inputs": [
        {
          "name": "",
          "type": "address"
        }
      ],
      "name": "owners",
      "outputs": [
        {
          "name": "isOwner",
          "type": "bool"
        },
        {
          "name": "index",
          "type": "uint256"
        }
      ],
      "payable": false,
      "stateMutability": "view",
      "type": "function"
    },
    {
      "constant": true,
      "inputs": [
        {
          "name": "",
          "type": "uint256"
        }
      ],
      "name": "ownersLUT",
      "outputs": [
        {
          "name": "",
          "type": "address"
        }
      ],
      "payable": false,
      "stateMutability": "view",
      "type": "function"
    },
    {
      "constant": false,
      "inputs": [
        {
          "name": "_owner",
          "type": "address"
        }
      ],
      "name": "removeOwner",
      "outputs": [],
      "payable": false,
      "stateMutability": "nonpayable",
      "type": "function"
    },
    {
      "constant": true,
      "inputs": [],
      "name": "defaultOwner",
      "outputs": [
        {
          "name": "",
          "type": "address"
        }
      ],
      "payable": false,
      "stateMutability": "view",
      "type": "function"
    },
    {
      "constant": true,
      "inputs": [
        {
          "name": "",
          "type": "address"
        },
        {
          "name": "",
          "type": "bytes32"
        }
      ],
      "name": "distribution",
      "outputs": [
        {
          "name": "balance",
          "type": "uint256"
        },
        {
          "name": "queryTime",
          "type": "uint256"
        }
      ],
      "payable": false,
      "stateMutability": "view",
      "type": "function"
    },
    {
      "constant": false,
      "inputs": [
        {
          "name": "newOwner",
          "type": "address"
        }
      ],
      "name": "addOwner",
      "outputs": [],
      "payable": false,
      "stateMutability": "nonpayable",
      "type": "function"
    },
    {
      "constant": false,
      "inputs": [
        {
          "name": "_cp",
          "type": "address"
        }
      ],
      "name": "setContractProvider",
      "outputs": [
        {
          "name": "",
          "type": "bool"
        }
      ],
      "payable": false,
      "stateMutability": "nonpayable",
      "type": "function"
    },
    {
      "anonymous": false,
      "inputs": [
        {
          "indexed": true,
          "name": "agent",
          "type": "address"
        },
        {
          "indexed": true,
          "name": "tokenId",
          "type": "bytes32"
        },
        {
          "indexed": false,
          "name": "quantity",
          "type": "uint256"
        }
      ],
      "name": "LogBalanceUpdate",
      "type": "event"
    },
    {
      "anonymous": false,
      "inputs": [
        {
          "indexed": true,
          "name": "ownerAddress",
          "type": "address"
        },
        {
          "indexed": true,
          "name": "addedBy",
          "type": "address"
        }
      ],
      "name": "OwnerAdded",
      "type": "event"
    },
    {
      "anonymous": false,
      "inputs": [
        {
          "indexed": true,
          "name": "ownerAddress",
          "type": "address"
        },
        {
          "indexed": true,
          "name": "removedBy",
          "type": "address"
        }
      ],
      "name": "OwnerRemoved",
      "type": "event"
    },
    {
      "constant": false,
      "inputs": [
        {
          "name": "agent",
          "type": "address"
        },
        {
          "name": "tokenId",
          "type": "bytes32"
        },
        {
          "name": "quantity",
          "type": "uint256"
        }
      ],
      "name": "updateTokenBalance",
      "outputs": [
        {
          "name": "",
          "type": "bool"
        }
      ],
      "payable": false,
      "stateMutability": "nonpayable",
      "type": "function"
    },
    {
      "constant": true,
      "inputs": [
        {
          "name": "agent",
          "type": "address"
        },
        {
          "name": "tokenId",
          "type": "bytes32"
        }
      ],
      "name": "getDistribution",
      "outputs": [
        {
          "name": "balance",
          "type": "uint256"
        },
        {
          "name": "time",
          "type": "uint256"
        }
      ],
      "payable": false,
      "stateMutability": "view",
      "type": "function"
    }
  ],
  "bytecode": "0x60606040526040805190810160405280600115158152602001600280549050815250600160003373ffffffffffffffffffffffffffffffffffffffff1673ffffffffffffffffffffffffffffffffffffffff16815260200190815260200160002060008201518160000160006101000a81548160ff02191690831515021790555060208201518160010155905050600280548060010182816100a1919061014f565b9160005260206000209001600033909190916101000a81548173ffffffffffffffffffffffffffffffffffffffff021916908373ffffffffffffffffffffffffffffffffffffffff160217905550503373ffffffffffffffffffffffffffffffffffffffff163373ffffffffffffffffffffffffffffffffffffffff167fc82bdbbf677a2462f2a7e22e4ba9abd209496b69cd7b868b3b1d28f76e09a40a60405160405180910390a36101a0565b81548183558181151161017657818360005260206000209182019101610175919061017b565b5b505050565b61019d91905b80821115610199576000816000905550600101610181565b5090565b90565b610ce8806101af6000396000f300606060405260043610610099576000357c0100000000000000000000000000000000000000000000000000000000900463ffffffff168063022914a71461009e57806313b3cdf6146100f6578063173825d91461015957806317de2f1f14610192578063554aff2b146101e75780636486a2321461024e5780637065cb48146102af5780639f577c15146102e8578063b6bff48214610339575b600080fd5b34156100a957600080fd5b6100d5600480803573ffffffffffffffffffffffffffffffffffffffff1690602001909190505061039a565b60405180831515151581526020018281526020019250505060405180910390f35b341561010157600080fd5b61011760048080359060200190919050506103cb565b604051808273ffffffffffffffffffffffffffffffffffffffff1673ffffffffffffffffffffffffffffffffffffffff16815260200191505060405180910390f35b341561016457600080fd5b610190600480803573ffffffffffffffffffffffffffffffffffffffff1690602001909190505061040a565b005b341561019d57600080fd5b6101a56106ae565b604051808273ffffffffffffffffffffffffffffffffffffffff1673ffffffffffffffffffffffffffffffffffffffff16815260200191505060405180910390f35b34156101f257600080fd5b610234600480803573ffffffffffffffffffffffffffffffffffffffff1690602001909190803560001916906020019091908035906020019091905050610704565b604051808215151515815260200191505060405180910390f35b341561025957600080fd5b610292600480803573ffffffffffffffffffffffffffffffffffffffff1690602001909190803560001916906020019091905050610893565b604051808381526020018281526020019250505060405180910390f35b34156102ba57600080fd5b6102e6600480803573ffffffffffffffffffffffffffffffffffffffff169060200190919050506108c4565b005b34156102f357600080fd5b61031f600480803573ffffffffffffffffffffffffffffffffffffffff16906020019091905050610a68565b604051808215151515815260200191505060405180910390f35b341561034457600080fd5b61037d600480803573ffffffffffffffffffffffffffffffffffffffff1690602001909190803560001916906020019091905050610b79565b604051808381526020018281526020019250505060405180910390f35b60016020528060005260406000206000915090508060000160009054906101000a900460ff16908060010154905082565b6002818154811015156103da57fe5b90600052602060002090016000915054906101000a900473ffffffffffffffffffffffffffffffffffffffff1681565b6000600160003373ffffffffffffffffffffffffffffffffffffffff1673ffffffffffffffffffffffffffffffffffffffff16815260200190815260200160002060000160009054906101000a900460ff16151561046757600080fd5b600160028054905011151561047b57600080fd5b600160008373ffffffffffffffffffffffffffffffffffffffff1673ffffffffffffffffffffffffffffffffffffffff16815260200190815260200160002060010154905060026001600280549050038154811015156104d757fe5b906000526020600020900160009054906101000a900473ffffffffffffffffffffffffffffffffffffffff1660028281548110151561051257fe5b906000526020600020900160006101000a81548173ffffffffffffffffffffffffffffffffffffffff021916908373ffffffffffffffffffffffffffffffffffffffff160217905550806001600060028481548110151561056f57fe5b906000526020600020900160009054906101000a900473ffffffffffffffffffffffffffffffffffffffff1673ffffffffffffffffffffffffffffffffffffffff1673ffffffffffffffffffffffffffffffffffffffff1681526020019081526020016000206001018190555060028054809190600190036105f19190610c3f565b50600160008373ffffffffffffffffffffffffffffffffffffffff1673ffffffffffffffffffffffffffffffffffffffff168152602001908152602001600020600080820160006101000a81549060ff0219169055600182016000905550503373ffffffffffffffffffffffffffffffffffffffff168273ffffffffffffffffffffffffffffffffffffffff167fe594d081b4382713733fe631966432c9cea5199afb2db5c3c1931f9f9300367960405160405180910390a35050565b6000806002805490501115156106c357600080fd5b600260008154811015156106d357fe5b906000526020600020900160009054906101000a900473ffffffffffffffffffffffffffffffffffffffff16905090565b6000600160003373ffffffffffffffffffffffffffffffffffffffff1673ffffffffffffffffffffffffffffffffffffffff16815260200190815260200160002060000160009054906101000a900460ff16151561076157600080fd5b600073ffffffffffffffffffffffffffffffffffffffff168473ffffffffffffffffffffffffffffffffffffffff161415151561079d57600080fd5b60008360001916141515156107b157600080fd5b604080519081016040528083815260200142815250600360008673ffffffffffffffffffffffffffffffffffffffff1673ffffffffffffffffffffffffffffffffffffffff16815260200190815260200160002060008560001916600019168152602001908152602001600020600082015181600001556020820151816001015590505082600019168473ffffffffffffffffffffffffffffffffffffffff167fee66120083b8e5f32703f6ebf3b391b969a647eb5cb1975817a85c32c5e9c176846040518082815260200191505060405180910390a3600190509392505050565b6003602052816000526040600020602052806000526040600020600091509150508060000154908060010154905082565b600160003373ffffffffffffffffffffffffffffffffffffffff1673ffffffffffffffffffffffffffffffffffffffff16815260200190815260200160002060000160009054906101000a900460ff16151561091f57600080fd5b6040805190810160405280600115158152602001600280549050815250600160008373ffffffffffffffffffffffffffffffffffffffff1673ffffffffffffffffffffffffffffffffffffffff16815260200190815260200160002060008201518160000160006101000a81548160ff02191690831515021790555060208201518160010155905050600280548060010182816109bc9190610c6b565b9160005260206000209001600083909190916101000a81548173ffffffffffffffffffffffffffffffffffffffff021916908373ffffffffffffffffffffffffffffffffffffffff160217905550503373ffffffffffffffffffffffffffffffffffffffff168173ffffffffffffffffffffffffffffffffffffffff167fc82bdbbf677a2462f2a7e22e4ba9abd209496b69cd7b868b3b1d28f76e09a40a60405160405180910390a350565b6000808273ffffffffffffffffffffffffffffffffffffffff1614151515610a8f57600080fd5b60008060009054906101000a900473ffffffffffffffffffffffffffffffffffffffff1673ffffffffffffffffffffffffffffffffffffffff161480610b2157506000809054906101000a900473ffffffffffffffffffffffffffffffffffffffff1673ffffffffffffffffffffffffffffffffffffffff163373ffffffffffffffffffffffffffffffffffffffff16145b15610b6f57816000806101000a81548173ffffffffffffffffffffffffffffffffffffffff021916908373ffffffffffffffffffffffffffffffffffffffff16021790555060019050610b74565b600090505b919050565b600080600360008573ffffffffffffffffffffffffffffffffffffffff1673ffffffffffffffffffffffffffffffffffffffff1681526020019081526020016000206000846000191660001916815260200190815260200160002060000154600360008673ffffffffffffffffffffffffffffffffffffffff1673ffffffffffffffffffffffffffffffffffffffff1681526020019081526020016000206000856000191660001916815260200190815260200160002060010154915091509250929050565b815481835581811511610c6657818360005260206000209182019101610c659190610c97565b5b505050565b815481835581811511610c9257818360005260206000209182019101610c919190610c97565b5b505050565b610cb991905b80821115610cb5576000816000905550600101610c9d565b5090565b905600a165627a7a72305820c9d8273db300f5a1fc157a3133c1b127fc6e07692372533d35d48b5bc545245a0029",
  "source": "/* Source for main-net token balances \n * \n * Version 1.0: The OFN oracle operated by CFX sets the token balances\n * \n * Version N: This contract is replaced via the contract provider by a contract\n * which determines main-chain token balances by some distributed mechanism,\n * possibly an extension to the network consensus rules allowing main-chain\n * state to be represented on the OFN chain.\n *\n */\n\npragma solidity ^0.4.17;\n\nimport './MultipleOwners.sol';\nimport './WithTokenBalance.sol';\nimport './ContractProviderEnabled.sol';\n\nimport './interfaces/IBalanceManager.sol';\n\ncontract BalanceManager is IBalanceManager, ContractProviderEnabled, MultipleOwners, WithTokenBalance {\n \n  // Record of the update\n  event LogBalanceUpdate(address indexed agent, bytes32 indexed tokenId, uint256 quantity);\n  \n  // Map an address and a token-id to a token balance \n  mapping(address => mapping(bytes32 => TokenBalance)) public distribution;\n\n  // Update the token balance\n  function updateTokenBalance(address agent, bytes32 tokenId, uint256 quantity)\n      public \n      onlyOwner\n      returns (bool)\n  {\n      require(agent != address(0));\n      require(tokenId != '');\n\n      distribution[agent][tokenId] = TokenBalance(quantity, now);\n      LogBalanceUpdate(agent, tokenId, quantity);\n\n      return true;\n  }\n\n  // Retrieve the token balance\n  function getDistribution(address agent, bytes32 tokenId)\n      public\n      view\n      returns (uint256 balance, uint256 time)\n  {\n      return (distribution[agent][tokenId].balance, distribution[agent][tokenId].queryTime);\n  } \n\n}\n",
  "sourcePath": "/home/user/ofn-engine/contracts/BalanceManager.sol",
  "compiler": {
    "name": "solc",
    "version": "0.4.19+commit.c4cbbb05.Emscripten.clang"
  },
  "schemaVersion": "1.0.1",
  "updatedAt": "2018-02-19T23:48:08.930Z"
}