{
  "contractName": "ContractProviderEnabled",
  "abi": [
    {
      "constant": false,
      "inputs": [
        {
          "name": "_cp",
          "type": "address"
        }
      ],
      "name": "setContractProvider",
      "outputs": [
        {
          "name": "",
          "type": "bool"
        }
      ],
      "payable": false,
      "stateMutability": "nonpayable",
      "type": "function"
    }
  ],
  "bytecode": "0x6060604052341561000f57600080fd5b6101d48061001e6000396000f300606060405260043610610041576000357c0100000000000000000000000000000000000000000000000000000000900463ffffffff1680639f577c1514610046575b600080fd5b341561005157600080fd5b61007d600480803573ffffffffffffffffffffffffffffffffffffffff16906020019091905050610097565b604051808215151515815260200191505060405180910390f35b6000808273ffffffffffffffffffffffffffffffffffffffff16141515156100be57600080fd5b60008060009054906101000a900473ffffffffffffffffffffffffffffffffffffffff1673ffffffffffffffffffffffffffffffffffffffff16148061015057506000809054906101000a900473ffffffffffffffffffffffffffffffffffffffff1673ffffffffffffffffffffffffffffffffffffffff163373ffffffffffffffffffffffffffffffffffffffff16145b1561019e57816000806101000a81548173ffffffffffffffffffffffffffffffffffffffff021916908373ffffffffffffffffffffffffffffffffffffffff160217905550600190506101a3565b600090505b9190505600a165627a7a72305820089be2217cd39c36649357fff1035762712e3bc71431995b7ebebe43110bbd450029",
  "source": "pragma solidity ^0.4.17;\n\n\nimport './interfaces/IContractProvider.sol';\n\n\ncontract ContractProviderEnabled {\n    address cp;\n\n    function setContractProvider(address _cp) public returns(bool) {\n        require(_cp != 0x0);\n        if(cp == 0x0 || msg.sender == cp) {\n            cp = _cp;\n            return true;\n        } else {\n            return false;\n        }\n    }\n}",
  "sourcePath": "/home/user/ofn-engine/contracts/ContractProviderEnabled.sol",
  "compiler": {
    "name": "solc",
    "version": "0.4.19+commit.c4cbbb05.Emscripten.clang"
  },
  "schemaVersion": "1.0.1",
  "updatedAt": "2018-02-19T23:47:32.797Z"
}