{
  "contractName": "Document",
  "abi": [
    {
      "anonymous": false,
      "inputs": [
        {
          "indexed": false,
          "name": "documentHash",
          "type": "bytes32"
        },
        {
          "indexed": false,
          "name": "publisher",
          "type": "address"
        },
        {
          "indexed": false,
          "name": "timestamp",
          "type": "uint256"
        }
      ],
      "name": "LogDocumentPublish",
      "type": "event"
    },
    {
      "constant": false,
      "inputs": [
        {
          "name": "documentHash",
          "type": "bytes32"
        }
      ],
      "name": "publish",
      "outputs": [],
      "payable": false,
      "stateMutability": "nonpayable",
      "type": "function"
    }
  ],
  "bytecode": "0x60606040523415600e57600080fd5b6101128061001d6000396000f300606060405260043610603f576000357c0100000000000000000000000000000000000000000000000000000000900463ffffffff1680638b2e6dcf146044575b600080fd5b3415604e57600080fd5b60666004808035600019169060200190919050506068565b005b7f45091a1623091cbbef614900f48c87e31e76ba152d7164bdaa222ff7aa6ba9598133426040518084600019166000191681526020018373ffffffffffffffffffffffffffffffffffffffff1673ffffffffffffffffffffffffffffffffffffffff168152602001828152602001935050505060405180910390a1505600a165627a7a7230582058edbea9afc455d8140660cd3278a295f9fd57ededa725f4a5344acfd3476eb00029",
  "source": "pragma solidity ^0.4.10;\n\n\n///\n/// @title A contract for publishing document hashes\ncontract Document {\n    \n    /// \n    /// The event emitted when a document hash is published\n    event LogDocumentPublish(bytes32 documentHash, address publisher, uint256 timestamp);\n\n    ///\n    /// Cause the event to be emitted\n    function publish(bytes32 documentHash) \n        public\n    {\n        LogDocumentPublish(documentHash, msg.sender, now);\n    }\n\n}\n",
  "sourcePath": "/home/user/ofn-engine/contracts/Document.sol",
  "compiler": {
    "name": "solc",
    "version": "0.4.19+commit.c4cbbb05.Emscripten.clang"
  },
  "schemaVersion": "2.0.0",
  "updatedAt": "2018-03-01T22:11:38.054Z"
}