{
  "contractName": "DoublyLinkedList",
  "abi": [
    {
      "constant": true,
      "inputs": [
        {
          "name": "self",
          "type": "DoublyLinkedList.Elements storage"
        },
        {
          "name": "key",
          "type": "bytes32"
        }
      ],
      "name": "getNext",
      "outputs": [
        {
          "name": "",
          "type": "bytes32"
        }
      ],
      "payable": false,
      "stateMutability": "view",
      "type": "function"
    },
    {
      "constant": true,
      "inputs": [
        {
          "name": "self",
          "type": "DoublyLinkedList.Elements storage"
        },
        {
          "name": "key",
          "type": "bytes32"
        }
      ],
      "name": "getElement",
      "outputs": [
        {
          "name": "",
          "type": "bool"
        }
      ],
      "payable": false,
      "stateMutability": "view",
      "type": "function"
    },
    {
      "constant": false,
      "inputs": [
        {
          "name": "self",
          "type": "DoublyLinkedList.Elements storage"
        },
        {
          "name": "key",
          "type": "bytes32"
        }
      ],
      "name": "addElement",
      "outputs": [
        {
          "name": "success",
          "type": "bool"
        }
      ],
      "payable": false,
      "stateMutability": "nonpayable",
      "type": "function"
    },
    {
      "constant": false,
      "inputs": [
        {
          "name": "self",
          "type": "DoublyLinkedList.Elements storage"
        },
        {
          "name": "key",
          "type": "bytes32"
        }
      ],
      "name": "removeElement",
      "outputs": [
        {
          "name": "success",
          "type": "bool"
        }
      ],
      "payable": false,
      "stateMutability": "nonpayable",
      "type": "function"
    }
  ],
  "bytecode": "0x6060604052341561000f57600080fd5b6104638061001e6000396000f300606060405260043610610062576000357c0100000000000000000000000000000000000000000000000000000000900463ffffffff16806302544a391461006757806353af6e8b146100a45780637a4aafe3146100e1578063828cce6d1461011e575b600080fd5b61008a60048080359060200190919080356000191690602001909190505061015f565b604051808215151515815260200191505060405180910390f35b6100c7600480803590602001909190803560001916906020019091905050610197565b604051808215151515815260200191505060405180910390f35b61010460048080359060200190919080356000191690602001909190505061031a565b604051808215151515815260200191505060405180910390f35b61014160048080359060200190919080356000191690602001909190505061040c565b60405180826000191660001916815260200191505060405180910390f35b6000826003016000836000191660001916815260200190815260200160002060020160009054906101000a900460ff16905092915050565b600080836003016000846000191660001916815260200190815260200160002090508060020160009054906101000a900460ff1615156101d657600080fd5b600084600201541115156101e957600080fd5b60018460020154141561021d57600060010284600001816000191690555060006001028460010181600019169055506102d6565b836000015460001916836000191614156102475780600001548460000181600019169055506102d5565b836001015460001916836000191614156102715780600101548460010181600019169055506102d4565b80600101548460030160008360000154600019166000191681526020019081526020016000206001018160001916905550806000015484600301600083600101546000191660001916815260200190815260200160002060000181600019169055505b5b5b8060020160006101000a81549060ff021916905580600001600090558060010160009055836002016000815480929190600190039190505550600191505092915050565b600080836003016000846000191660001916815260200190815260200160002090508060020160009054906101000a900460ff161561035857600080fd5b6000846002015414156103845782846000018160001916905550828460010181600019169055506103d0565b8284600301600086600001546000191660001916815260200190815260200160002060010181600019169055508360000154816000018160001916905550828460000181600019169055505b60018160020160006101000a81548160ff0219169083151502179055508360020160008154809291906001019190505550600191505092915050565b60008260030160008360001916600019168152602001908152602001600020600101549050929150505600a165627a7a723058203521c943ffabeee72b20e7f44830debd206fb510052ac285e6a666e43a7ceb970029",
  "source": "pragma solidity ^0.4.13;\n\n\nlibrary DoublyLinkedList {\n    struct Elements {\n        bytes32 head;\n        bytes32 tail;\n        uint256 size;\n        mapping(bytes32 => Element) elements;\n    }\n\n    struct Element {\n        bytes32 previous;\n        bytes32 next;\n        bool data;\n    }\n\n    function getNext(Elements storage self, bytes32 key) public view returns (bytes32) {\n        return self.elements[key].next;\n    }\n\n    function getElement(Elements storage self, bytes32 key) public view returns (bool) {\n        return self.elements[key].data;\n    }\n\n    function addElement(Elements storage self, bytes32 key) public returns (bool success) {\n        Element storage elem = self.elements[key];\n        if (elem.data) {\n            revert();\n        }\n\n        if (self.size == 0) {\n            self.head = key;\n            self.tail = key;\n        } else {\n            self.elements[self.head].next = key;\n            elem.previous = self.head;\n            self.head = key;\n        }\n        elem.data = true;\n        self.size++;\n        return true;\n    }\n\n    function removeElement(Elements storage self, bytes32 key) public returns (bool success) {\n        Element storage elem = self.elements[key];\n        require(elem.data);\n        require(self.size > 0);\n\n        if (self.size == 1) {\n            self.head = bytes32(0);\n            self.tail = bytes32(0);\n        } else if (key == self.head) {\n            self.head = elem.previous;\n        } else if (key == self.tail) {\n            self.tail = elem.next;\n        } else {\n            self.elements[elem.previous].next = elem.next;\n            self.elements[elem.next].previous = elem.previous;\n        }\n        delete elem.data;\n        delete elem.previous;\n        delete elem.next;\n        self.size--;\n        return true;\n    }\n}",
  "sourcePath": "/home/user/ofn-engine/contracts/libraries/DoublyLinkedList.sol",
  "compiler": {
    "name": "solc",
    "version": "0.4.19+commit.c4cbbb05.Emscripten.clang"
  },
  "schemaVersion": "1.0.1",
  "updatedAt": "2018-02-23T21:15:20.163Z"
}