{
  "contractName": "Endorsement",
  "abi": [
    {
      "constant": true,
      "inputs": [
        {
          "name": "",
          "type": "bytes32"
        }
      ],
      "name": "entityEndorsements",
      "outputs": [
        {
          "name": "head",
          "type": "bytes32"
        },
        {
          "name": "tail",
          "type": "bytes32"
        },
        {
          "name": "size",
          "type": "uint256"
        }
      ],
      "payable": false,
      "stateMutability": "view",
      "type": "function"
    },
    {
      "constant": true,
      "inputs": [
        {
          "name": "",
          "type": "bytes32"
        }
      ],
      "name": "assetEndorsements",
      "outputs": [
        {
          "name": "head",
          "type": "bytes32"
        },
        {
          "name": "tail",
          "type": "bytes32"
        },
        {
          "name": "size",
          "type": "uint256"
        }
      ],
      "payable": false,
      "stateMutability": "view",
      "type": "function"
    },
    {
      "constant": false,
      "inputs": [
        {
          "name": "_cp",
          "type": "address"
        }
      ],
      "name": "setContractProvider",
      "outputs": [
        {
          "name": "",
          "type": "bool"
        }
      ],
      "payable": false,
      "stateMutability": "nonpayable",
      "type": "function"
    },
    {
      "anonymous": false,
      "inputs": [
        {
          "indexed": true,
          "name": "endorsedEntityId",
          "type": "bytes32"
        },
        {
          "indexed": true,
          "name": "endorserId",
          "type": "bytes32"
        },
        {
          "indexed": false,
          "name": "sender",
          "type": "address"
        }
      ],
      "name": "LogEntityEndorsed",
      "type": "event"
    },
    {
      "anonymous": false,
      "inputs": [
        {
          "indexed": true,
          "name": "endorsedAssetId",
          "type": "bytes32"
        },
        {
          "indexed": true,
          "name": "endorserId",
          "type": "bytes32"
        },
        {
          "indexed": false,
          "name": "sender",
          "type": "address"
        }
      ],
      "name": "LogAssetEndorsed",
      "type": "event"
    },
    {
      "anonymous": false,
      "inputs": [
        {
          "indexed": true,
          "name": "endorsedEntityId",
          "type": "bytes32"
        },
        {
          "indexed": true,
          "name": "endorserId",
          "type": "bytes32"
        },
        {
          "indexed": false,
          "name": "sender",
          "type": "address"
        }
      ],
      "name": "LogEntityRevokeEndorsement",
      "type": "event"
    },
    {
      "anonymous": false,
      "inputs": [
        {
          "indexed": true,
          "name": "endorsedAssetId",
          "type": "bytes32"
        },
        {
          "indexed": true,
          "name": "endorserId",
          "type": "bytes32"
        },
        {
          "indexed": false,
          "name": "sender",
          "type": "address"
        }
      ],
      "name": "LogAssetRevokeEndorsement",
      "type": "event"
    },
    {
      "constant": false,
      "inputs": [
        {
          "name": "entityId",
          "type": "bytes32"
        },
        {
          "name": "endorserId",
          "type": "bytes32"
        }
      ],
      "name": "endorseEntity",
      "outputs": [
        {
          "name": "",
          "type": "bool"
        }
      ],
      "payable": false,
      "stateMutability": "nonpayable",
      "type": "function"
    },
    {
      "constant": false,
      "inputs": [
        {
          "name": "assetId",
          "type": "bytes32"
        },
        {
          "name": "endorserId",
          "type": "bytes32"
        }
      ],
      "name": "endorseAsset",
      "outputs": [
        {
          "name": "",
          "type": "bool"
        }
      ],
      "payable": false,
      "stateMutability": "nonpayable",
      "type": "function"
    },
    {
      "constant": false,
      "inputs": [
        {
          "name": "entityId",
          "type": "bytes32"
        },
        {
          "name": "endorserId",
          "type": "bytes32"
        }
      ],
      "name": "revokeEntityEndorsement",
      "outputs": [
        {
          "name": "",
          "type": "bool"
        }
      ],
      "payable": false,
      "stateMutability": "nonpayable",
      "type": "function"
    },
    {
      "constant": false,
      "inputs": [
        {
          "name": "assetId",
          "type": "bytes32"
        },
        {
          "name": "endorserId",
          "type": "bytes32"
        }
      ],
      "name": "revokeAssetEndorsement",
      "outputs": [
        {
          "name": "",
          "type": "bool"
        }
      ],
      "payable": false,
      "stateMutability": "nonpayable",
      "type": "function"
    },
    {
      "constant": true,
      "inputs": [
        {
          "name": "entityId",
          "type": "bytes32"
        }
      ],
      "name": "getEntityEndorsementCount",
      "outputs": [
        {
          "name": "",
          "type": "uint256"
        }
      ],
      "payable": false,
      "stateMutability": "view",
      "type": "function"
    },
    {
      "constant": true,
      "inputs": [
        {
          "name": "entityId",
          "type": "bytes32"
        }
      ],
      "name": "getFirstEntityEndorsement",
      "outputs": [
        {
          "name": "",
          "type": "bytes32"
        }
      ],
      "payable": false,
      "stateMutability": "view",
      "type": "function"
    },
    {
      "constant": true,
      "inputs": [
        {
          "name": "entityId",
          "type": "bytes32"
        },
        {
          "name": "endorserId",
          "type": "bytes32"
        }
      ],
      "name": "getNextEntityEndorsement",
      "outputs": [
        {
          "name": "",
          "type": "bytes32"
        }
      ],
      "payable": false,
      "stateMutability": "view",
      "type": "function"
    },
    {
      "constant": true,
      "inputs": [
        {
          "name": "entityId",
          "type": "bytes32"
        },
        {
          "name": "endorserId",
          "type": "bytes32"
        }
      ],
      "name": "isEntityEndorsed",
      "outputs": [
        {
          "name": "",
          "type": "bool"
        }
      ],
      "payable": false,
      "stateMutability": "view",
      "type": "function"
    },
    {
      "constant": true,
      "inputs": [
        {
          "name": "assetId",
          "type": "bytes32"
        }
      ],
      "name": "getAssetEndorsementCount",
      "outputs": [
        {
          "name": "",
          "type": "uint256"
        }
      ],
      "payable": false,
      "stateMutability": "view",
      "type": "function"
    },
    {
      "constant": true,
      "inputs": [
        {
          "name": "assetId",
          "type": "bytes32"
        }
      ],
      "name": "getFirstAssetEndorsement",
      "outputs": [
        {
          "name": "",
          "type": "bytes32"
        }
      ],
      "payable": false,
      "stateMutability": "view",
      "type": "function"
    },
    {
      "constant": true,
      "inputs": [
        {
          "name": "assetId",
          "type": "bytes32"
        },
        {
          "name": "endorserId",
          "type": "bytes32"
        }
      ],
      "name": "getNextAssetEndorsement",
      "outputs": [
        {
          "name": "",
          "type": "bytes32"
        }
      ],
      "payable": false,
      "stateMutability": "view",
      "type": "function"
    },
    {
      "constant": true,
      "inputs": [
        {
          "name": "assetId",
          "type": "bytes32"
        },
        {
          "name": "endorserId",
          "type": "bytes32"
        }
      ],
      "name": "isAssetEndorsed",
      "outputs": [
        {
          "name": "",
          "type": "bool"
        }
      ],
      "payable": false,
      "stateMutability": "view",
      "type": "function"
    }
  ],
  "bytecode": "0x6060604052341561000f57600080fd5b611f648061001e6000396000f3006060604052600436106100db576000357c0100000000000000000000000000000000000000000000000000000000900463ffffffff1680630bb07cc0146100e0578063393f09c7146101395780635da1d0bf146101855780636176e670146101de5780636b3ffa841461022e57806370dba7fc1461027a5780637dfaf5c9146102b5578063939202b3146103055780639c743f18146103515780639eed66ac146103945780639f577c15146103d7578063ad1f312714610428578063ded0d4ab14610474578063ef773f35146104c0578063fcb326511461050c575b600080fd5b34156100eb57600080fd5b610105600480803560001916906020019091905050610547565b6040518084600019166000191681526020018360001916600019168152602001828152602001935050505060405180910390f35b341561014457600080fd5b61016b60048080356000191690602001909190803560001916906020019091905050610571565b604051808215151515815260200191505060405180910390f35b341561019057600080fd5b6101aa600480803560001916906020019091905050610aa8565b6040518084600019166000191681526020018360001916600019168152602001828152602001935050505060405180910390f35b34156101e957600080fd5b61021060048080356000191690602001909190803560001916906020019091905050610ad2565b60405180826000191660001916815260200191505060405180910390f35b341561023957600080fd5b61026060048080356000191690602001909190803560001916906020019091905050610b96565b604051808215151515815260200191505060405180910390f35b341561028557600080fd5b61029f6004808035600019169060200190919050506110cd565b6040518082815260200191505060405180910390f35b34156102c057600080fd5b6102e7600480803560001916906020019091908035600019169060200190919050506110f5565b60405180826000191660001916815260200191505060405180910390f35b341561031057600080fd5b610337600480803560001916906020019091908035600019169060200190919050506111b9565b604051808215151515815260200191505060405180910390f35b341561035c57600080fd5b6103766004808035600019169060200190919050506116f0565b60405180826000191660001916815260200191505060405180910390f35b341561039f57600080fd5b6103b9600480803560001916906020019091905050611718565b60405180826000191660001916815260200191505060405180910390f35b34156103e257600080fd5b61040e600480803573ffffffffffffffffffffffffffffffffffffffff16906020019091905050611740565b604051808215151515815260200191505060405180910390f35b341561043357600080fd5b61045a60048080356000191690602001909190803560001916906020019091905050611851565b604051808215151515815260200191505060405180910390f35b341561047f57600080fd5b6104a660048080356000191690602001909190803560001916906020019091905050611915565b604051808215151515815260200191505060405180910390f35b34156104cb57600080fd5b6104f2600480803560001916906020019091908035600019169060200190919050506119d9565b604051808215151515815260200191505060405180910390f35b341561051757600080fd5b610531600480803560001916906020019091905050611f10565b6040518082815260200191505060405180910390f35b60016020528060005260406000206000915090508060000154908060010154908060020154905083565b6000816000806000809054906101000a900473ffffffffffffffffffffffffffffffffffffffff1673ffffffffffffffffffffffffffffffffffffffff1663ec56a3736000604051602001526040518163ffffffff167c010000000000000000000000000000000000000000000000000000000002815260040180807f656e746974795f726567697374727900000000000000000000000000000000008152506020019050602060405180830381600087803b151561062f57600080fd5b6102c65a03f1151561064057600080fd5b5050506040518051905091508173ffffffffffffffffffffffffffffffffffffffff1663deb931a2846000604051602001526040518263ffffffff167c0100000000000000000000000000000000000000000000000000000000028152600401808260001916600019168152602001915050602060405180830381600087803b15156106cb57600080fd5b6102c65a03f115156106dc57600080fd5b5050506040518051905090508073ffffffffffffffffffffffffffffffffffffffff163373ffffffffffffffffffffffffffffffffffffffff1614806107ec57508173ffffffffffffffffffffffffffffffffffffffff16636a10fbba84336000604051602001526040518363ffffffff167c01000000000000000000000000000000000000000000000000000000000281526004018083600019166000191681526020018273ffffffffffffffffffffffffffffffffffffffff1673ffffffffffffffffffffffffffffffffffffffff16815260200192505050602060405180830381600087803b15156107d057600080fd5b6102c65a03f115156107e157600080fd5b505050604051805190505b15156107f757600080fd5b8560008060009054906101000a900473ffffffffffffffffffffffffffffffffffffffff1673ffffffffffffffffffffffffffffffffffffffff1663ec56a3736000604051602001526040518163ffffffff167c010000000000000000000000000000000000000000000000000000000002815260040180807f656e746974795f726567697374727900000000000000000000000000000000008152506020019050602060405180830381600087803b15156108b257600080fd5b6102c65a03f115156108c357600080fd5b5050506040518051905090508073ffffffffffffffffffffffffffffffffffffffff16637b435b58836000604051602001526040518263ffffffff167c0100000000000000000000000000000000000000000000000000000000028152600401808260001916600019168152602001915050602060405180830381600087803b151561094e57600080fd5b6102c65a03f1151561095f57600080fd5b50505060405180519050151561097457600080fd5b866000191688600019167f52d771f95851fcfeb138705968daab312003439059767ee232b42fcbb7b5eb4f33604051808273ffffffffffffffffffffffffffffffffffffffff1673ffffffffffffffffffffffffffffffffffffffff16815260200191505060405180910390a360016000896000191660001916815260200190815260200160002073__DoublyLinkedList______________________637a4aafe39091896000604051602001526040518363ffffffff167c01000000000000000000000000000000000000000000000000000000000281526004018083815260200182600019166000191681526020019250505060206040518083038186803b1515610a8057600080fd5b6102c65a03f41515610a9157600080fd5b505050604051805190509550505050505092915050565b60026020528060005260406000206000915090508060000154908060010154908060020154905083565b600060026000846000191660001916815260200190815260200160002073__DoublyLinkedList______________________63828cce6d9091846000604051602001526040518363ffffffff167c01000000000000000000000000000000000000000000000000000000000281526004018083815260200182600019166000191681526020019250505060206040518083038186803b1515610b7357600080fd5b6102c65a03f41515610b8457600080fd5b50505060405180519050905092915050565b6000816000806000809054906101000a900473ffffffffffffffffffffffffffffffffffffffff1673ffffffffffffffffffffffffffffffffffffffff1663ec56a3736000604051602001526040518163ffffffff167c010000000000000000000000000000000000000000000000000000000002815260040180807f656e746974795f726567697374727900000000000000000000000000000000008152506020019050602060405180830381600087803b1515610c5457600080fd5b6102c65a03f11515610c6557600080fd5b5050506040518051905091508173ffffffffffffffffffffffffffffffffffffffff1663deb931a2846000604051602001526040518263ffffffff167c0100000000000000000000000000000000000000000000000000000000028152600401808260001916600019168152602001915050602060405180830381600087803b1515610cf057600080fd5b6102c65a03f11515610d0157600080fd5b5050506040518051905090508073ffffffffffffffffffffffffffffffffffffffff163373ffffffffffffffffffffffffffffffffffffffff161480610e1157508173ffffffffffffffffffffffffffffffffffffffff16636a10fbba84336000604051602001526040518363ffffffff167c01000000000000000000000000000000000000000000000000000000000281526004018083600019166000191681526020018273ffffffffffffffffffffffffffffffffffffffff1673ffffffffffffffffffffffffffffffffffffffff16815260200192505050602060405180830381600087803b1515610df557600080fd5b6102c65a03f11515610e0657600080fd5b505050604051805190505b1515610e1c57600080fd5b8560008060009054906101000a900473ffffffffffffffffffffffffffffffffffffffff1673ffffffffffffffffffffffffffffffffffffffff1663ec56a3736000604051602001526040518163ffffffff167c010000000000000000000000000000000000000000000000000000000002815260040180807f61737365745f72656769737472790000000000000000000000000000000000008152506020019050602060405180830381600087803b1515610ed757600080fd5b6102c65a03f11515610ee857600080fd5b5050506040518051905090508073ffffffffffffffffffffffffffffffffffffffff166385c6b25f836000604051602001526040518263ffffffff167c0100000000000000000000000000000000000000000000000000000000028152600401808260001916600019168152602001915050602060405180830381600087803b1515610f7357600080fd5b6102c65a03f11515610f8457600080fd5b505050604051805190501515610f9957600080fd5b866000191688600019167fb9e22fa0f6e2ec90aae781a442c18e1548d2356503cf21b27ad57939a10880b633604051808273ffffffffffffffffffffffffffffffffffffffff1673ffffffffffffffffffffffffffffffffffffffff16815260200191505060405180910390a360026000896000191660001916815260200190815260200160002073__DoublyLinkedList______________________637a4aafe39091896000604051602001526040518363ffffffff167c01000000000000000000000000000000000000000000000000000000000281526004018083815260200182600019166000191681526020019250505060206040518083038186803b15156110a557600080fd5b6102c65a03f415156110b657600080fd5b505050604051805190509550505050505092915050565b6000600160008360001916600019168152602001908152602001600020600201549050919050565b600060016000846000191660001916815260200190815260200160002073__DoublyLinkedList______________________63828cce6d9091846000604051602001526040518363ffffffff167c01000000000000000000000000000000000000000000000000000000000281526004018083815260200182600019166000191681526020019250505060206040518083038186803b151561119657600080fd5b6102c65a03f415156111a757600080fd5b50505060405180519050905092915050565b6000816000806000809054906101000a900473ffffffffffffffffffffffffffffffffffffffff1673ffffffffffffffffffffffffffffffffffffffff1663ec56a3736000604051602001526040518163ffffffff167c010000000000000000000000000000000000000000000000000000000002815260040180807f656e746974795f726567697374727900000000000000000000000000000000008152506020019050602060405180830381600087803b151561127757600080fd5b6102c65a03f1151561128857600080fd5b5050506040518051905091508173ffffffffffffffffffffffffffffffffffffffff1663deb931a2846000604051602001526040518263ffffffff167c0100000000000000000000000000000000000000000000000000000000028152600401808260001916600019168152602001915050602060405180830381600087803b151561131357600080fd5b6102c65a03f1151561132457600080fd5b5050506040518051905090508073ffffffffffffffffffffffffffffffffffffffff163373ffffffffffffffffffffffffffffffffffffffff16148061143457508173ffffffffffffffffffffffffffffffffffffffff16636a10fbba84336000604051602001526040518363ffffffff167c01000000000000000000000000000000000000000000000000000000000281526004018083600019166000191681526020018273ffffffffffffffffffffffffffffffffffffffff1673ffffffffffffffffffffffffffffffffffffffff16815260200192505050602060405180830381600087803b151561141857600080fd5b6102c65a03f1151561142957600080fd5b505050604051805190505b151561143f57600080fd5b8560008060009054906101000a900473ffffffffffffffffffffffffffffffffffffffff1673ffffffffffffffffffffffffffffffffffffffff1663ec56a3736000604051602001526040518163ffffffff167c010000000000000000000000000000000000000000000000000000000002815260040180807f61737365745f72656769737472790000000000000000000000000000000000008152506020019050602060405180830381600087803b15156114fa57600080fd5b6102c65a03f1151561150b57600080fd5b5050506040518051905090508073ffffffffffffffffffffffffffffffffffffffff166385c6b25f836000604051602001526040518263ffffffff167c0100000000000000000000000000000000000000000000000000000000028152600401808260001916600019168152602001915050602060405180830381600087803b151561159657600080fd5b6102c65a03f115156115a757600080fd5b5050506040518051905015156115bc57600080fd5b866000191688600019167ff1bcd1d43f5f24da2d09fe3f28b6c404eaee096e7884b2f9a0a1a5f0be6e8e6233604051808273ffffffffffffffffffffffffffffffffffffffff1673ffffffffffffffffffffffffffffffffffffffff16815260200191505060405180910390a360026000896000191660001916815260200190815260200160002073__DoublyLinkedList______________________6353af6e8b9091896000604051602001526040518363ffffffff167c01000000000000000000000000000000000000000000000000000000000281526004018083815260200182600019166000191681526020019250505060206040518083038186803b15156116c857600080fd5b6102c65a03f415156116d957600080fd5b505050604051805190509550505050505092915050565b6000600260008360001916600019168152602001908152602001600020600101549050919050565b6000600160008360001916600019168152602001908152602001600020600101549050919050565b6000808273ffffffffffffffffffffffffffffffffffffffff161415151561176757600080fd5b60008060009054906101000a900473ffffffffffffffffffffffffffffffffffffffff1673ffffffffffffffffffffffffffffffffffffffff1614806117f957506000809054906101000a900473ffffffffffffffffffffffffffffffffffffffff1673ffffffffffffffffffffffffffffffffffffffff163373ffffffffffffffffffffffffffffffffffffffff16145b1561184757816000806101000a81548173ffffffffffffffffffffffffffffffffffffffff021916908373ffffffffffffffffffffffffffffffffffffffff1602179055506001905061184c565b600090505b919050565b600060026000846000191660001916815260200190815260200160002073__DoublyLinkedList______________________6302544a399091846000604051602001526040518363ffffffff167c01000000000000000000000000000000000000000000000000000000000281526004018083815260200182600019166000191681526020019250505060206040518083038186803b15156118f257600080fd5b6102c65a03f4151561190357600080fd5b50505060405180519050905092915050565b600060016000846000191660001916815260200190815260200160002073__DoublyLinkedList______________________6302544a399091846000604051602001526040518363ffffffff167c01000000000000000000000000000000000000000000000000000000000281526004018083815260200182600019166000191681526020019250505060206040518083038186803b15156119b657600080fd5b6102c65a03f415156119c757600080fd5b50505060405180519050905092915050565b6000816000806000809054906101000a900473ffffffffffffffffffffffffffffffffffffffff1673ffffffffffffffffffffffffffffffffffffffff1663ec56a3736000604051602001526040518163ffffffff167c010000000000000000000000000000000000000000000000000000000002815260040180807f656e746974795f726567697374727900000000000000000000000000000000008152506020019050602060405180830381600087803b1515611a9757600080fd5b6102c65a03f11515611aa857600080fd5b5050506040518051905091508173ffffffffffffffffffffffffffffffffffffffff1663deb931a2846000604051602001526040518263ffffffff167c0100000000000000000000000000000000000000000000000000000000028152600401808260001916600019168152602001915050602060405180830381600087803b1515611b3357600080fd5b6102c65a03f11515611b4457600080fd5b5050506040518051905090508073ffffffffffffffffffffffffffffffffffffffff163373ffffffffffffffffffffffffffffffffffffffff161480611c5457508173ffffffffffffffffffffffffffffffffffffffff16636a10fbba84336000604051602001526040518363ffffffff167c01000000000000000000000000000000000000000000000000000000000281526004018083600019166000191681526020018273ffffffffffffffffffffffffffffffffffffffff1673ffffffffffffffffffffffffffffffffffffffff16815260200192505050602060405180830381600087803b1515611c3857600080fd5b6102c65a03f11515611c4957600080fd5b505050604051805190505b1515611c5f57600080fd5b8560008060009054906101000a900473ffffffffffffffffffffffffffffffffffffffff1673ffffffffffffffffffffffffffffffffffffffff1663ec56a3736000604051602001526040518163ffffffff167c010000000000000000000000000000000000000000000000000000000002815260040180807f656e746974795f726567697374727900000000000000000000000000000000008152506020019050602060405180830381600087803b1515611d1a57600080fd5b6102c65a03f11515611d2b57600080fd5b5050506040518051905090508073ffffffffffffffffffffffffffffffffffffffff16637b435b58836000604051602001526040518263ffffffff167c0100000000000000000000000000000000000000000000000000000000028152600401808260001916600019168152602001915050602060405180830381600087803b1515611db657600080fd5b6102c65a03f11515611dc757600080fd5b505050604051805190501515611ddc57600080fd5b866000191688600019167f91dd95807a64b338c3032a8ff7ae6842785e143d29a35d6d3f997e218be46f6133604051808273ffffffffffffffffffffffffffffffffffffffff1673ffffffffffffffffffffffffffffffffffffffff16815260200191505060405180910390a360016000896000191660001916815260200190815260200160002073__DoublyLinkedList______________________6353af6e8b9091896000604051602001526040518363ffffffff167c01000000000000000000000000000000000000000000000000000000000281526004018083815260200182600019166000191681526020019250505060206040518083038186803b1515611ee857600080fd5b6102c65a03f41515611ef957600080fd5b505050604051805190509550505050505092915050565b60006002600083600019166000191681526020019081526020016000206002015490509190505600a165627a7a7230582008763f1323f5bbf69a9019e81178d4408b6ef1133f10c702f854b33914b3ae640029",
  "source": "pragma solidity ^0.4.17;\n\n\nimport './interfaces/IContractProvider.sol';\nimport './interfaces/IAssetRegistry.sol';\nimport './interfaces/IEntityRegistry.sol';\n\nimport './ContractProviderEnabled.sol';\nimport './libraries/DoublyLinkedList.sol';\n\n\ncontract Endorsement is ContractProviderEnabled {\n    using DoublyLinkedList for DoublyLinkedList.Elements;\n\n    /**\n     * Stores entity endorsements\n     * @param bytes32 Entity to be endorsed\n     * @param DoublyLinkedList.Elements Entities that endorse given entity\n     */\n    mapping(bytes32 => DoublyLinkedList.Elements) public entityEndorsements;\n\n    /**\n     * Stores asset endorsements\n     * @param bytes32 Asset to be endorsed\n     * @param DoublyLinkedList.Elements Entities that endorse given asset\n     */\n    mapping(bytes32 => DoublyLinkedList.Elements) public assetEndorsements;\n\n    /**\n     * Event emmited when entity endorse another entity\n     */\n    event LogEntityEndorsed(\n        bytes32 indexed endorsedEntityId,\n        bytes32 indexed endorserId,\n        address sender\n    );\n\n    /**\n     * Event emitted when entity endorsed an asset\n     */\n    event LogAssetEndorsed(\n        bytes32 indexed endorsedAssetId,\n        bytes32 indexed endorserId,\n        address sender\n    );\n\n    /**\n     * Event emitted when entity revokes its endorsement of another entity\n     */\n    event LogEntityRevokeEndorsement(\n        bytes32 indexed endorsedEntityId,\n        bytes32 indexed endorserId,\n        address sender\n    );\n\n    /**\n     * Event emitted when entity revokes its endorsement of an asset\n     */\n    event LogAssetRevokeEndorsement(\n        bytes32 indexed endorsedAssetId,\n        bytes32 indexed endorserId,\n        address sender\n    );\n\n    /**\n     * Allow only owner of delegate of given entity to run action\n     * @param endorserId Entity id that sender represents\n     */\n    modifier onlyOwnerOrDelegate(bytes32 endorserId) {\n        address entityRegistryAddress = IContractProvider(cp).contracts(\"entity_registry\");\n        address owner = IEntityRegistry(entityRegistryAddress).getOwner(endorserId);\n        require(msg.sender == owner\n            || IEntityRegistry(entityRegistryAddress).delegates(endorserId, msg.sender));\n        _;\n    }\n\n    /**\n     * Allow action only if entity exists\n     * @param entityId Entity id that should be validated\n     */\n    modifier entityExists(bytes32 entityId) {\n        address entityRegistryAddress = IContractProvider(cp).contracts(\"entity_registry\");\n        require(IEntityRegistry(entityRegistryAddress).confirmRegisteredEntity(entityId));\n        _;\n    }\n\n    /**\n     * Allow action only if asset exists\n     * @param assetId Asset id that should be validated\n     */\n    modifier assetExists(bytes32 assetId) {\n        address assetRegistryAddress = IContractProvider(cp).contracts(\"asset_registry\");\n        require(IAssetRegistry(assetRegistryAddress).doesAssetExist(assetId));\n        _;\n    }\n\n    /**\n     * Endorse entity by other entity. Simply says endorserId trusts entityId\n     * @param  entityId Entity id to be endorsed\n     * @param  endorserId Entity id that is endorsing\n     * @return Success of operation\n     */\n    function endorseEntity(bytes32 entityId, bytes32 endorserId)\n        public\n        onlyOwnerOrDelegate(endorserId)\n        entityExists(entityId)\n        returns(bool)\n    {\n        LogEntityEndorsed(entityId, endorserId, msg.sender);\n        return entityEndorsements[entityId].addElement(endorserId);\n    }\n\n    /**\n     * Endorse asset by entity. Simply says endorserId trusts assetId\n     * @param  assetId Asset id to be endorsed\n     * @param  endorserId Entity id that is endorsing\n     * @return Success of operation\n     */\n    function endorseAsset(bytes32 assetId, bytes32 endorserId)\n        public\n        onlyOwnerOrDelegate(endorserId)\n        assetExists(assetId)\n        returns(bool)\n    {\n        LogAssetEndorsed(assetId, endorserId, msg.sender);\n        return assetEndorsements[assetId].addElement(endorserId);\n    }\n\n    /**\n     * Revoke endorsement of given entity by another entity\n     * @param  entityId Entity id that is getting its endorsement revoked\n     * @param  endorserId Entity id that is revoking its endoresement\n     * @return Success of operation\n     */\n    function revokeEntityEndorsement(bytes32 entityId, bytes32 endorserId)\n        public\n        onlyOwnerOrDelegate(endorserId)\n        entityExists(entityId)\n        returns(bool)\n    {\n        LogEntityRevokeEndorsement(entityId, endorserId, msg.sender);\n        return entityEndorsements[entityId].removeElement(endorserId);\n    }\n\n    /**\n     * Revoke endorsement of given asset by entity\n     * @param  assetId Asset id that is getting its endorsement revoked\n     * @param  endorserId Entity id that is revoking its endoresement for asset\n     * @return Success of operation\n     */\n    function revokeAssetEndorsement(bytes32 assetId, bytes32 endorserId)\n        public\n        onlyOwnerOrDelegate(endorserId)\n        assetExists(assetId)\n        returns(bool)\n    {\n        LogAssetRevokeEndorsement(assetId, endorserId, msg.sender);\n        return assetEndorsements[assetId].removeElement(endorserId);\n    }\n\n    /**\n     * Returns count of all endorsements for given entity\n     * @param  entityId Entity id for which to calculate endorsements\n     * @return Number of endorsements\n     */\n    function getEntityEndorsementCount(bytes32 entityId)\n        public\n        view\n        returns(uint256)\n    {\n        return entityEndorsements[entityId].size;\n    }\n\n    /**\n     * Get first (end of FIFO queue) endorsement for an entity\n     * @param  entityId Entity id for which to get endorsement\n     * @return First entity on the list\n     */\n    function getFirstEntityEndorsement(bytes32 entityId)\n        public\n        view\n        returns(bytes32)\n    {\n        return entityEndorsements[entityId].tail;\n    }\n\n    /**\n     * Returns next endorser in list.\n     * @param  entityId Entity id of endorsed entity\n     * @param  endorserId Entity id of current endorser in the loop\n     * @return Next endorser in the list\n     */\n    function getNextEntityEndorsement(bytes32 entityId, bytes32 endorserId)\n        public\n        view\n        returns(bytes32)\n    {\n        return entityEndorsements[entityId].getNext(endorserId);\n    }\n\n    /**\n     * Returns whether or not entity is endorsed by given entity\n     * @param  entityId Entity to endorse\n     * @param  endorserId Entity that should endorse\n     * @return True if is endorsed, false otherwise\n     */\n    function isEntityEndorsed(bytes32 entityId, bytes32 endorserId)\n        public\n        view\n        returns(bool)\n    {\n        return entityEndorsements[entityId].getElement(endorserId);\n    }\n\n    /**\n     * Returns count of all endorsements for given asset\n     * @param  assetId Asset id for which to calculate endorsements\n     * @return Number of endorsements\n     */\n    function getAssetEndorsementCount(bytes32 assetId)\n        public\n        view\n        returns(uint256)\n    {\n        return assetEndorsements[assetId].size;\n    }\n\n    /**\n     * Get first (end of FIFO queue) endorsement for an asset\n     * @param  assetId Asset id for which to get endorsement\n     * @return First assset id on the list\n     */\n    function getFirstAssetEndorsement(bytes32 assetId)\n        public\n        view\n        returns(bytes32)\n    {\n        return assetEndorsements[assetId].tail;\n    }\n\n    /**\n     * Returns next endorser in list.\n     * @param  assetId Asset id of endorsed asset\n     * @param  endorserId Entity id of current endorser in the loop\n     * @return Next endorser in the list\n     */\n    function getNextAssetEndorsement(bytes32 assetId, bytes32 endorserId)\n        public\n        view\n        returns(bytes32)\n    {\n        return assetEndorsements[assetId].getNext(endorserId);\n    }\n\n    /**\n     * Returns whether or not asset is endorsed by given entity\n     * @param  assetId Asset to endorse\n     * @param  endorserId Entity that should endorse\n     * @return True if is endorsed, false otherwise\n     */\n    function isAssetEndorsed(bytes32 assetId, bytes32 endorserId)\n        public\n        view\n        returns(bool)\n    {\n        return assetEndorsements[assetId].getElement(endorserId);\n    }\n}\n",
  "sourcePath": "/home/user/ofn-engine/contracts/Endorsement.sol",
  "compiler": {
    "name": "solc",
    "version": "0.4.19+commit.c4cbbb05.Emscripten.clang"
  },
  "schemaVersion": "1.0.1",
  "updatedAt": "2018-02-23T21:15:20.155Z"
}