{
  "contractName": "EntityRegistry",
  "abi": [
    {
      "constant": true,
      "inputs": [
        {
          "name": "",
          "type": "bytes32"
        },
        {
          "name": "",
          "type": "address"
        }
      ],
      "name": "delegates",
      "outputs": [
        {
          "name": "",
          "type": "bool"
        }
      ],
      "payable": false,
      "stateMutability": "view",
      "type": "function"
    },
    {
      "constant": false,
      "inputs": [
        {
          "name": "_cp",
          "type": "address"
        }
      ],
      "name": "setContractProvider",
      "outputs": [
        {
          "name": "",
          "type": "bool"
        }
      ],
      "payable": false,
      "stateMutability": "nonpayable",
      "type": "function"
    },
    {
      "constant": true,
      "inputs": [
        {
          "name": "",
          "type": "bytes32"
        }
      ],
      "name": "entities",
      "outputs": [
        {
          "name": "name",
          "type": "bytes32"
        },
        {
          "name": "owner",
          "type": "address"
        },
        {
          "name": "phone",
          "type": "bytes32"
        },
        {
          "name": "email",
          "type": "bytes32"
        },
        {
          "name": "index",
          "type": "uint256"
        }
      ],
      "payable": false,
      "stateMutability": "view",
      "type": "function"
    },
    {
      "constant": true,
      "inputs": [
        {
          "name": "",
          "type": "uint256"
        }
      ],
      "name": "entitiesLUT",
      "outputs": [
        {
          "name": "",
          "type": "bytes32"
        }
      ],
      "payable": false,
      "stateMutability": "view",
      "type": "function"
    },
    {
      "anonymous": false,
      "inputs": [
        {
          "indexed": true,
          "name": "entityId",
          "type": "bytes32"
        },
        {
          "indexed": false,
          "name": "owner",
          "type": "address"
        },
        {
          "indexed": true,
          "name": "name",
          "type": "bytes32"
        },
        {
          "indexed": false,
          "name": "phone",
          "type": "bytes32"
        },
        {
          "indexed": true,
          "name": "email",
          "type": "bytes32"
        },
        {
          "indexed": false,
          "name": "index",
          "type": "uint256"
        }
      ],
      "name": "LogNewEntity",
      "type": "event"
    },
    {
      "anonymous": false,
      "inputs": [
        {
          "indexed": true,
          "name": "entityId",
          "type": "bytes32"
        },
        {
          "indexed": false,
          "name": "owner",
          "type": "address"
        },
        {
          "indexed": true,
          "name": "name",
          "type": "bytes32"
        },
        {
          "indexed": false,
          "name": "phone",
          "type": "bytes32"
        },
        {
          "indexed": true,
          "name": "email",
          "type": "bytes32"
        },
        {
          "indexed": false,
          "name": "index",
          "type": "uint256"
        }
      ],
      "name": "LogEntityUpdated",
      "type": "event"
    },
    {
      "anonymous": false,
      "inputs": [
        {
          "indexed": true,
          "name": "entityId",
          "type": "bytes32"
        },
        {
          "indexed": false,
          "name": "owner",
          "type": "address"
        },
        {
          "indexed": true,
          "name": "name",
          "type": "bytes32"
        },
        {
          "indexed": false,
          "name": "phone",
          "type": "bytes32"
        },
        {
          "indexed": true,
          "name": "email",
          "type": "bytes32"
        },
        {
          "indexed": false,
          "name": "index",
          "type": "uint256"
        }
      ],
      "name": "LogEntityRemoved",
      "type": "event"
    },
    {
      "anonymous": false,
      "inputs": [
        {
          "indexed": true,
          "name": "entityId",
          "type": "bytes32"
        },
        {
          "indexed": false,
          "name": "delegate",
          "type": "address"
        },
        {
          "indexed": false,
          "name": "sender",
          "type": "address"
        }
      ],
      "name": "LogNewDelegate",
      "type": "event"
    },
    {
      "anonymous": false,
      "inputs": [
        {
          "indexed": true,
          "name": "entityId",
          "type": "bytes32"
        },
        {
          "indexed": false,
          "name": "delegate",
          "type": "address"
        },
        {
          "indexed": false,
          "name": "sender",
          "type": "address"
        }
      ],
      "name": "LogRemoveDelegate",
      "type": "event"
    },
    {
      "constant": true,
      "inputs": [
        {
          "name": "entityId",
          "type": "bytes32"
        }
      ],
      "name": "confirmRegisteredEntity",
      "outputs": [
        {
          "name": "",
          "type": "bool"
        }
      ],
      "payable": false,
      "stateMutability": "view",
      "type": "function"
    },
    {
      "constant": true,
      "inputs": [
        {
          "name": "entityId",
          "type": "bytes32"
        }
      ],
      "name": "getOwner",
      "outputs": [
        {
          "name": "",
          "type": "address"
        }
      ],
      "payable": false,
      "stateMutability": "view",
      "type": "function"
    },
    {
      "constant": true,
      "inputs": [
        {
          "name": "entityId",
          "type": "bytes32"
        }
      ],
      "name": "getEntity",
      "outputs": [
        {
          "name": "name",
          "type": "bytes32"
        },
        {
          "name": "owner",
          "type": "address"
        },
        {
          "name": "phone",
          "type": "bytes32"
        },
        {
          "name": "email",
          "type": "bytes32"
        },
        {
          "name": "index",
          "type": "uint256"
        }
      ],
      "payable": false,
      "stateMutability": "view",
      "type": "function"
    },
    {
      "constant": false,
      "inputs": [
        {
          "name": "entityId",
          "type": "bytes32"
        },
        {
          "name": "delegate",
          "type": "address"
        }
      ],
      "name": "delegateAddress",
      "outputs": [
        {
          "name": "",
          "type": "bool"
        }
      ],
      "payable": false,
      "stateMutability": "nonpayable",
      "type": "function"
    },
    {
      "constant": false,
      "inputs": [
        {
          "name": "entityId",
          "type": "bytes32"
        },
        {
          "name": "delegate",
          "type": "address"
        }
      ],
      "name": "removeDelegateAddress",
      "outputs": [
        {
          "name": "",
          "type": "bool"
        }
      ],
      "payable": false,
      "stateMutability": "nonpayable",
      "type": "function"
    },
    {
      "constant": false,
      "inputs": [
        {
          "name": "entityId",
          "type": "bytes32"
        },
        {
          "name": "owner",
          "type": "address"
        },
        {
          "name": "name",
          "type": "bytes32"
        },
        {
          "name": "phone",
          "type": "bytes32"
        },
        {
          "name": "email",
          "type": "bytes32"
        }
      ],
      "name": "registerEntity",
      "outputs": [
        {
          "name": "",
          "type": "bool"
        }
      ],
      "payable": false,
      "stateMutability": "nonpayable",
      "type": "function"
    },
    {
      "constant": false,
      "inputs": [
        {
          "name": "entityId",
          "type": "bytes32"
        },
        {
          "name": "owner",
          "type": "address"
        },
        {
          "name": "name",
          "type": "bytes32"
        },
        {
          "name": "phone",
          "type": "bytes32"
        },
        {
          "name": "email",
          "type": "bytes32"
        }
      ],
      "name": "updateEntity",
      "outputs": [
        {
          "name": "",
          "type": "bool"
        }
      ],
      "payable": false,
      "stateMutability": "nonpayable",
      "type": "function"
    },
    {
      "constant": false,
      "inputs": [
        {
          "name": "entityId",
          "type": "bytes32"
        }
      ],
      "name": "removeEntity",
      "outputs": [
        {
          "name": "",
          "type": "bool"
        }
      ],
      "payable": false,
      "stateMutability": "nonpayable",
      "type": "function"
    }
  ],
  "bytecode": "0x6060604052341561000f57600080fd5b611dd48061001e6000396000f3006060604052600436106100ba576000357c0100000000000000000000000000000000000000000000000000000000900463ffffffff16806305b70578146100bf57806353b66f36146101445780636a10fbba146101df5780637b435b581461023d57806381cba3271461027c5780639f577c1514610301578063b9749f4514610352578063deb931a2146103b0578063e5b338fd14610417578063f47e201a146104b2578063f58635c914610510578063f75c97231461054f575b600080fd5b34156100ca57600080fd5b61012a60048080356000191690602001909190803573ffffffffffffffffffffffffffffffffffffffff1690602001909190803560001916906020019091908035600019169060200190919080356000191690602001909190505061058e565b604051808215151515815260200191505060405180910390f35b341561014f57600080fd5b61016960048080356000191690602001909190505061099a565b6040518086600019166000191681526020018573ffffffffffffffffffffffffffffffffffffffff1673ffffffffffffffffffffffffffffffffffffffff168152602001846000191660001916815260200183600019166000191681526020018281526020019550505050505060405180910390f35b34156101ea57600080fd5b61022360048080356000191690602001909190803573ffffffffffffffffffffffffffffffffffffffff16906020019091905050610a21565b604051808215151515815260200191505060405180910390f35b341561024857600080fd5b610262600480803560001916906020019091905050610a50565b604051808215151515815260200191505060405180910390f35b341561028757600080fd5b6102e760048080356000191690602001909190803573ffffffffffffffffffffffffffffffffffffffff16906020019091908035600019169060200190919080356000191690602001909190803560001916906020019091905050610b04565b604051808215151515815260200191505060405180910390f35b341561030c57600080fd5b610338600480803573ffffffffffffffffffffffffffffffffffffffff16906020019091905050610f75565b604051808215151515815260200191505060405180910390f35b341561035d57600080fd5b61039660048080356000191690602001909190803573ffffffffffffffffffffffffffffffffffffffff16906020019091905050611086565b604051808215151515815260200191505060405180910390f35b34156103bb57600080fd5b6103d56004808035600019169060200190919050506113f4565b604051808273ffffffffffffffffffffffffffffffffffffffff1673ffffffffffffffffffffffffffffffffffffffff16815260200191505060405180910390f35b341561042257600080fd5b61043c60048080356000191690602001909190505061143c565b6040518086600019166000191681526020018573ffffffffffffffffffffffffffffffffffffffff1673ffffffffffffffffffffffffffffffffffffffff168152602001846000191660001916815260200183600019166000191681526020018281526020019550505050505060405180910390f35b34156104bd57600080fd5b6104f660048080356000191690602001909190803573ffffffffffffffffffffffffffffffffffffffff16906020019091905050611492565b604051808215151515815260200191505060405180910390f35b341561051b57600080fd5b610535600480803560001916906020019091905050611800565b604051808215151515815260200191505060405180910390f35b341561055a57600080fd5b6105706004808035906020019091905050611cb8565b60405180826000191660001916815260200191505060405180910390f35b600080600460008060009054906101000a900473ffffffffffffffffffffffffffffffffffffffff1673ffffffffffffffffffffffffffffffffffffffff1663ec56a3736000604051602001526040518163ffffffff167c010000000000000000000000000000000000000000000000000000000002815260040180807f61637469766974795f6c696d69746572000000000000000000000000000000008152506020019050602060405180830381600087803b151561064d57600080fd5b6102c65a03f1151561065e57600080fd5b5050506040518051905090508073ffffffffffffffffffffffffffffffffffffffff16631c9a2337836040518263ffffffff167c0100000000000000000000000000000000000000000000000000000000028152600401808260088111156106c257fe5b60ff168152602001915050600060405180830381600087803b15156106e657600080fd5b6102c65a03f115156106f757600080fd5b505050600089600019161415151561070e57600080fd5b600160008a6000191660001916815260200190815260200160002092508260010160009054906101000a900473ffffffffffffffffffffffffffffffffffffffff1673ffffffffffffffffffffffffffffffffffffffff163373ffffffffffffffffffffffffffffffffffffffff1614806107eb5750600260008a6000191660001916815260200190815260200160002060003373ffffffffffffffffffffffffffffffffffffffff1673ffffffffffffffffffffffffffffffffffffffff16815260200190815260200160002060009054906101000a900460ff165b15156107f657600080fd5b600083600001546000191614158061085f5750600073ffffffffffffffffffffffffffffffffffffffff168360010160009054906101000a900473ffffffffffffffffffffffffffffffffffffffff1673ffffffffffffffffffffffffffffffffffffffff1614155b806108735750600083600201546000191614155b806108875750600083600301546000191614155b151561089257600080fd5b86836000018160001916905550878360010160006101000a81548173ffffffffffffffffffffffffffffffffffffffff021916908373ffffffffffffffffffffffffffffffffffffffff1602179055508583600201816000191690555084836003018160001916905550846000191687600019168a600019167fa8f97ea40c84de13110c4e26f849f92f1fb78de2be4e8efb024b968e77dbdc138b8a8860040154604051808473ffffffffffffffffffffffffffffffffffffffff1673ffffffffffffffffffffffffffffffffffffffff1681526020018360001916600019168152602001828152602001935050505060405180910390a46001935050505095945050505050565b60008060008060008060008760001916141515156109b757600080fd5b600160008860001916600019168152602001908152602001600020905080600001548160010160009054906101000a900473ffffffffffffffffffffffffffffffffffffffff16826002015483600301548460040154955095509550955095505091939590929450565b60026020528160005260406000206020528060005260406000206000915091509054906101000a900460ff1681565b600080826000191614151515610a6557600080fd5b6000600160008460001916600019168152602001908152602001600020600001546000191614151515610a9757600080fd5b6000600160008460001916600019168152602001908152602001600020600201546000191614151515610ac957600080fd5b6000600160008460001916600019168152602001908152602001600020600301546000191614151515610afb57600080fd5b60019050919050565b6000600360008060009054906101000a900473ffffffffffffffffffffffffffffffffffffffff1673ffffffffffffffffffffffffffffffffffffffff1663ec56a3736000604051602001526040518163ffffffff167c010000000000000000000000000000000000000000000000000000000002815260040180807f61637469766974795f6c696d69746572000000000000000000000000000000008152506020019050602060405180830381600087803b1515610bc257600080fd5b6102c65a03f11515610bd357600080fd5b5050506040518051905090508073ffffffffffffffffffffffffffffffffffffffff16631c9a2337836040518263ffffffff167c010000000000000000000000000000000000000000000000000000000002815260040180826008811115610c3757fe5b60ff168152602001915050600060405180830381600087803b1515610c5b57600080fd5b6102c65a03f11515610c6c57600080fd5b505050600073ffffffffffffffffffffffffffffffffffffffff168773ffffffffffffffffffffffffffffffffffffffff1614151515610cab57600080fd5b600073ffffffffffffffffffffffffffffffffffffffff16600160008a6000191660001916815260200190815260200160002060010160009054906101000a900473ffffffffffffffffffffffffffffffffffffffff1673ffffffffffffffffffffffffffffffffffffffff16141515610d2457600080fd5b6000600160008a600019166000191681526020019081526020016000206000015460001916141515610d5557600080fd5b6000600160008a600019166000191681526020019081526020016000206002015460001916141515610d8657600080fd5b6000600160008a600019166000191681526020019081526020016000206003015460001916141515610db757600080fd5b60a060405190810160405280876000191681526020018873ffffffffffffffffffffffffffffffffffffffff1681526020018660001916815260200185600019168152602001600380549050815250600160008a600019166000191681526020019081526020016000206000820151816000019060001916905560208201518160010160006101000a81548173ffffffffffffffffffffffffffffffffffffffff021916908373ffffffffffffffffffffffffffffffffffffffff16021790555060408201518160020190600019169055606082015181600301906000191690556080820151816004015590505060038054806001018281610eb99190611cdc565b916000526020600020900160008a909190915090600019169055508360001916866000191689600019167f017635042843e66e953df9ec36ad3208ce9ac1336fed99c62b7cf33c51c7ec128a89600160038054905003604051808473ffffffffffffffffffffffffffffffffffffffff1673ffffffffffffffffffffffffffffffffffffffff1681526020018360001916600019168152602001828152602001935050505060405180910390a460019250505095945050505050565b6000808273ffffffffffffffffffffffffffffffffffffffff1614151515610f9c57600080fd5b60008060009054906101000a900473ffffffffffffffffffffffffffffffffffffffff1673ffffffffffffffffffffffffffffffffffffffff16148061102e57506000809054906101000a900473ffffffffffffffffffffffffffffffffffffffff1673ffffffffffffffffffffffffffffffffffffffff163373ffffffffffffffffffffffffffffffffffffffff16145b1561107c57816000806101000a81548173ffffffffffffffffffffffffffffffffffffffff021916908373ffffffffffffffffffffffffffffffffffffffff16021790555060019050611081565b600090505b919050565b600080600460008060009054906101000a900473ffffffffffffffffffffffffffffffffffffffff1673ffffffffffffffffffffffffffffffffffffffff1663ec56a3736000604051602001526040518163ffffffff167c010000000000000000000000000000000000000000000000000000000002815260040180807f61637469766974795f6c696d69746572000000000000000000000000000000008152506020019050602060405180830381600087803b151561114557600080fd5b6102c65a03f1151561115657600080fd5b5050506040518051905090508073ffffffffffffffffffffffffffffffffffffffff16631c9a2337836040518263ffffffff167c0100000000000000000000000000000000000000000000000000000000028152600401808260088111156111ba57fe5b60ff168152602001915050600060405180830381600087803b15156111de57600080fd5b6102c65a03f115156111ef57600080fd5b50505060016000876000191660001916815260200190815260200160002060010160009054906101000a900473ffffffffffffffffffffffffffffffffffffffff1692508273ffffffffffffffffffffffffffffffffffffffff163373ffffffffffffffffffffffffffffffffffffffff1614806112cf575060026000876000191660001916815260200190815260200160002060003373ffffffffffffffffffffffffffffffffffffffff1673ffffffffffffffffffffffffffffffffffffffff16815260200190815260200160002060009054906101000a900460ff165b15156112da57600080fd5b600160026000886000191660001916815260200190815260200160002060008773ffffffffffffffffffffffffffffffffffffffff1673ffffffffffffffffffffffffffffffffffffffff16815260200190815260200160002060006101000a81548160ff02191690831515021790555085600019167f8365f36e7e7660d1949049c5b84ce43bda8c55e1bef5ae15e14565b669cf743e8633604051808373ffffffffffffffffffffffffffffffffffffffff1673ffffffffffffffffffffffffffffffffffffffff1681526020018273ffffffffffffffffffffffffffffffffffffffff1673ffffffffffffffffffffffffffffffffffffffff1681526020019250505060405180910390a26001935050505092915050565b600060016000836000191660001916815260200190815260200160002060010160009054906101000a900473ffffffffffffffffffffffffffffffffffffffff169050919050565b60016020528060005260406000206000915090508060000154908060010160009054906101000a900473ffffffffffffffffffffffffffffffffffffffff16908060020154908060030154908060040154905085565b600080600460008060009054906101000a900473ffffffffffffffffffffffffffffffffffffffff1673ffffffffffffffffffffffffffffffffffffffff1663ec56a3736000604051602001526040518163ffffffff167c010000000000000000000000000000000000000000000000000000000002815260040180807f61637469766974795f6c696d69746572000000000000000000000000000000008152506020019050602060405180830381600087803b151561155157600080fd5b6102c65a03f1151561156257600080fd5b5050506040518051905090508073ffffffffffffffffffffffffffffffffffffffff16631c9a2337836040518263ffffffff167c0100000000000000000000000000000000000000000000000000000000028152600401808260088111156115c657fe5b60ff168152602001915050600060405180830381600087803b15156115ea57600080fd5b6102c65a03f115156115fb57600080fd5b50505060016000876000191660001916815260200190815260200160002060010160009054906101000a900473ffffffffffffffffffffffffffffffffffffffff1692508273ffffffffffffffffffffffffffffffffffffffff163373ffffffffffffffffffffffffffffffffffffffff1614806116db575060026000876000191660001916815260200190815260200160002060003373ffffffffffffffffffffffffffffffffffffffff1673ffffffffffffffffffffffffffffffffffffffff16815260200190815260200160002060009054906101000a900460ff165b15156116e657600080fd5b600060026000886000191660001916815260200190815260200160002060008773ffffffffffffffffffffffffffffffffffffffff1673ffffffffffffffffffffffffffffffffffffffff16815260200190815260200160002060006101000a81548160ff02191690831515021790555085600019167f358e5b20cdbccae3839d3473c7ddf14b80d5a1474e0f468c2679d97a5d05787c8633604051808373ffffffffffffffffffffffffffffffffffffffff1673ffffffffffffffffffffffffffffffffffffffff1681526020018273ffffffffffffffffffffffffffffffffffffffff1673ffffffffffffffffffffffffffffffffffffffff1681526020019250505060405180910390a26001935050505092915050565b600061180a611d08565b6000600460008060009054906101000a900473ffffffffffffffffffffffffffffffffffffffff1673ffffffffffffffffffffffffffffffffffffffff1663ec56a3736000604051602001526040518163ffffffff167c010000000000000000000000000000000000000000000000000000000002815260040180807f61637469766974795f6c696d69746572000000000000000000000000000000008152506020019050602060405180830381600087803b15156118c857600080fd5b6102c65a03f115156118d957600080fd5b5050506040518051905090508073ffffffffffffffffffffffffffffffffffffffff16631c9a2337836040518263ffffffff167c01000000000000000000000000000000000000000000000000000000000281526004018082600881111561193d57fe5b60ff168152602001915050600060405180830381600087803b151561196157600080fd5b6102c65a03f1151561197257600080fd5b505050600086600019161415151561198957600080fd5b60016000876000191660001916815260200190815260200160002060a060405190810160405290816000820154600019166000191681526020016001820160009054906101000a900473ffffffffffffffffffffffffffffffffffffffff1673ffffffffffffffffffffffffffffffffffffffff1673ffffffffffffffffffffffffffffffffffffffff1681526020016002820154600019166000191681526020016003820154600019166000191681526020016004820154815250509350836020015173ffffffffffffffffffffffffffffffffffffffff163373ffffffffffffffffffffffffffffffffffffffff161480611ae8575060026000876000191660001916815260200190815260200160002060003373ffffffffffffffffffffffffffffffffffffffff1673ffffffffffffffffffffffffffffffffffffffff16815260200190815260200160002060009054906101000a900460ff165b1515611af357600080fd5b6001600087600019166000191681526020019081526020016000206004015492506003600160038054905003815481101515611b2b57fe5b906000526020600020900154600384815481101515611b4657fe5b906000526020600020900181600019169055508260016000600386815481101515611b6d57fe5b90600052602060002090015460001916600019168152602001908152602001600020600401819055506003805480919060019003611bab9190611d57565b506001600087600019166000191681526020019081526020016000206000808201600090556001820160006101000a81549073ffffffffffffffffffffffffffffffffffffffff0219169055600282016000905560038201600090556004820160009055505083606001516000191684600001516000191687600019167f582d4fa7b384dddc810f4355326e5905aa3a03eb9879d202a8c7809510ad6fce8760200151886040015188604051808473ffffffffffffffffffffffffffffffffffffffff1673ffffffffffffffffffffffffffffffffffffffff1681526020018360001916600019168152602001828152602001935050505060405180910390a46001945050505050919050565b600381815481101515611cc757fe5b90600052602060002090016000915090505481565b815481835581811511611d0357818360005260206000209182019101611d029190611d83565b5b505050565b60a06040519081016040528060008019168152602001600073ffffffffffffffffffffffffffffffffffffffff1681526020016000801916815260200160008019168152602001600081525090565b815481835581811511611d7e57818360005260206000209182019101611d7d9190611d83565b5b505050565b611da591905b80821115611da1576000816000905550600101611d89565b5090565b905600a165627a7a7230582009f9134a1b5ed162bcb60dbb2647a5011dbe67b0c04d04cc31efd1a8c8ed2d500029",
  "source": "pragma solidity ^0.4.17;\n\n\nimport './Limited.sol';\nimport './WithActions.sol';\n\nimport './interfaces/IContractProvider.sol';\n\n\ncontract EntityRegistry is ContractProviderEnabled, Limited {\n\n    struct Entity {\n        bytes32 name;\n        address owner;\n        bytes32 phone;\n        bytes32 email;\n        uint256 index;\n    }\n    \n    // entities hashtable, entityId => Entity\n    mapping(bytes32 => Entity) public entities;\n\n    // entityId => broker\n    mapping(bytes32 => mapping(address => bool)) public delegates;\n\n    // entities look up table\n    bytes32[] public entitiesLUT;\n\n    event LogNewEntity(\n        bytes32 indexed entityId,\n        address owner,\n        bytes32 indexed name,\n        bytes32 phone,\n        bytes32 indexed email,\n        uint256 index\n    );\n\n    event LogEntityUpdated(\n        bytes32 indexed entityId,\n        address owner,\n        bytes32 indexed name,\n        bytes32 phone,\n        bytes32 indexed email,\n        uint256 index\n    );\n\n    event LogEntityRemoved(\n        bytes32 indexed entityId,\n        address owner,\n        bytes32 indexed name,\n        bytes32 phone,\n        bytes32 indexed email,\n        uint256 index\n    );\n\n    event LogNewDelegate(\n        bytes32 indexed entityId,\n        address delegate,\n        address sender\n    );\n\n    event LogRemoveDelegate(\n        bytes32 indexed entityId,\n        address delegate,\n        address sender\n    );\n\n    function confirmRegisteredEntity(bytes32 entityId) public view returns (bool) {\n        require(entityId != '');\n        require(entities[entityId].name != '');\n        require(entities[entityId].phone != '');\n        require(entities[entityId].email != '');\n\n        return true;\n    }\n\n    function getOwner(bytes32 entityId) public view returns (address) {\n        return entities[entityId].owner;\n    }\n\n    /**\n     * Returns entity's attributes \n     */\n    function getEntity(bytes32 entityId)\n        public\n        view\n        returns (bytes32 name, address owner, bytes32 phone, bytes32 email, uint256 index)\n    {\n        require(entityId != '');\n\n        Entity storage entity = entities[entityId];\n        return (entity.name, entity.owner, entity.phone, entity.email, entity.index);\n    }\n\n    function delegateAddress(bytes32 entityId, address delegate)\n        public\n        performs(NetworkActivity.ModifyEntity)\n        returns(bool)\n    {\n        address entityOwner = entities[entityId].owner;\n        require(msg.sender == entityOwner || delegates[entityId][msg.sender]);\n        delegates[entityId][delegate] = true;\n        LogNewDelegate(entityId, delegate, msg.sender);\n        return true;\n    }\n\n    function removeDelegateAddress(bytes32 entityId, address delegate)\n        public\n        performs(NetworkActivity.ModifyEntity)\n        returns(bool)\n    {\n        address entityOwner = entities[entityId].owner;\n        require(msg.sender == entityOwner || delegates[entityId][msg.sender]);\n        delegates[entityId][delegate] = false;\n        LogRemoveDelegate(entityId, delegate, msg.sender);\n        return true;\n    }\n\n    /**\n     * Register new entity\n     */\n    function registerEntity(\n        bytes32 entityId,\n        address owner,\n        bytes32 name,\n        bytes32 phone,\n        bytes32 email\n    )\n        public\n        performs(NetworkActivity.RegisterEntity)\n        returns (bool)\n    {\n        require(owner != address(0));\n        require(entities[entityId].owner == address(0));\n        require(entities[entityId].name == '');\n        require(entities[entityId].phone == '');\n        require(entities[entityId].email == '');\n\n        entities[entityId] = Entity(name, owner, phone, email, entitiesLUT.length);\n        entitiesLUT.push(entityId);\n\n        LogNewEntity(entityId, owner, name, phone, email, entitiesLUT.length - 1);\n        return true;\n    }\n\n    /**\n     * Update existing entity\n     */\n    function updateEntity(\n        bytes32 entityId,\n        address owner,\n        bytes32 name,\n        bytes32 phone,\n        bytes32 email\n    )\n        public\n        performs(NetworkActivity.ModifyEntity)\n        returns (bool)\n    {\n        require(entityId != '');\n        Entity storage entity = entities[entityId];\n        // only owner or delegated address can update\n        require(msg.sender == entity.owner || delegates[entityId][msg.sender]);\n        require(entity.name != ''\n            || entity.owner != address(0)\n            || entity.phone != ''\n            || entity.email != ''\n        );\n\n        entity.name = name;\n        entity.owner = owner;\n        entity.phone = phone;\n        entity.email = email;\n\n        LogEntityUpdated(entityId, owner, name, phone, email, entity.index);\n        return true;\n    }\n\n    /**\n     * Remove existing entity\n     */\n    function removeEntity(bytes32 entityId)\n        public\n        performs(NetworkActivity.ModifyEntity)\n        returns (bool)\n    {\n        require(entityId != '');\n\n        Entity memory entity = entities[entityId];\n        // only owner or delegated address can remove\n        require(msg.sender == entity.owner || delegates[entityId][msg.sender]);\n        \n        uint256 index = entities[entityId].index;\n        // order does not matter so move last element to the deleted index\n        entitiesLUT[index] = entitiesLUT[entitiesLUT.length - 1];\n        entities[entitiesLUT[index]].index = index;\n        // remove last element\n        entitiesLUT.length--;\n        // remove Entity from mapping\n        delete entities[entityId];\n\n        LogEntityRemoved(\n            entityId,\n            entity.owner,\n            entity.name,\n            entity.phone,\n            entity.email,\n            index\n        );\n\n        return true;\n    }\n\n}\n",
  "sourcePath": "/home/user/ofn-engine/contracts/EntityRegistry.sol",
  "compiler": {
    "name": "solc",
    "version": "0.4.19+commit.c4cbbb05.Emscripten.clang"
  },
  "schemaVersion": "1.0.1",
  "updatedAt": "2018-02-19T23:48:08.955Z"
}