{
  "contractName": "Limited",
  "abi": [
    {
      "constant": false,
      "inputs": [
        {
          "name": "_cp",
          "type": "address"
        }
      ],
      "name": "setContractProvider",
      "outputs": [
        {
          "name": "",
          "type": "bool"
        }
      ],
      "payable": false,
      "stateMutability": "nonpayable",
      "type": "function"
    }
  ],
  "bytecode": "0x6060604052341561000f57600080fd5b6101d48061001e6000396000f300606060405260043610610041576000357c0100000000000000000000000000000000000000000000000000000000900463ffffffff1680639f577c1514610046575b600080fd5b341561005157600080fd5b61007d600480803573ffffffffffffffffffffffffffffffffffffffff16906020019091905050610097565b604051808215151515815260200191505060405180910390f35b6000808273ffffffffffffffffffffffffffffffffffffffff16141515156100be57600080fd5b60008060009054906101000a900473ffffffffffffffffffffffffffffffffffffffff1673ffffffffffffffffffffffffffffffffffffffff16148061015057506000809054906101000a900473ffffffffffffffffffffffffffffffffffffffff1673ffffffffffffffffffffffffffffffffffffffff163373ffffffffffffffffffffffffffffffffffffffff16145b1561019e57816000806101000a81548173ffffffffffffffffffffffffffffffffffffffff021916908373ffffffffffffffffffffffffffffffffffffffff160217905550600190506101a3565b600090505b9190505600a165627a7a723058200bf46493e95118ca4ce5de0f86b81b4fab41c96f1db146f252cd77abd2a9a43d0029",
  "source": "/* A contract which has to check with ActionLimiter before performing certain actions. */\n\npragma solidity ^0.4.17;\n\n\nimport './WithActions.sol';\nimport './ContractProviderEnabled.sol';\n\nimport './interfaces/IActivityLimiter.sol';\nimport './interfaces/IContractProvider.sol';\n\n\n\ncontract Limited is WithActions, ContractProviderEnabled {\n\n    modifier performs(NetworkActivity activity) {\n        \n        address activityLimiterAddr = IContractProvider(cp).contracts(\"activity_limiter\");\n        IActivityLimiter(activityLimiterAddr).performAction(activity);\n\n        _;\n        \n    }\n\n}\n",
  "sourcePath": "/home/user/ofn-engine/contracts/Limited.sol",
  "compiler": {
    "name": "solc",
    "version": "0.4.19+commit.c4cbbb05.Emscripten.clang"
  },
  "schemaVersion": "1.0.1",
  "updatedAt": "2018-02-23T21:15:20.156Z"
}