{
  "contractName": "MultipleOwners",
  "abi": [
    {
      "constant": true,
      "inputs": [
        {
          "name": "",
          "type": "address"
        }
      ],
      "name": "owners",
      "outputs": [
        {
          "name": "isOwner",
          "type": "bool"
        },
        {
          "name": "index",
          "type": "uint256"
        }
      ],
      "payable": false,
      "stateMutability": "view",
      "type": "function"
    },
    {
      "constant": true,
      "inputs": [
        {
          "name": "",
          "type": "uint256"
        }
      ],
      "name": "ownersLUT",
      "outputs": [
        {
          "name": "",
          "type": "address"
        }
      ],
      "payable": false,
      "stateMutability": "view",
      "type": "function"
    },
    {
      "inputs": [],
      "payable": false,
      "stateMutability": "nonpayable",
      "type": "constructor"
    },
    {
      "anonymous": false,
      "inputs": [
        {
          "indexed": true,
          "name": "ownerAddress",
          "type": "address"
        },
        {
          "indexed": true,
          "name": "addedBy",
          "type": "address"
        }
      ],
      "name": "OwnerAdded",
      "type": "event"
    },
    {
      "anonymous": false,
      "inputs": [
        {
          "indexed": true,
          "name": "ownerAddress",
          "type": "address"
        },
        {
          "indexed": true,
          "name": "removedBy",
          "type": "address"
        }
      ],
      "name": "OwnerRemoved",
      "type": "event"
    },
    {
      "constant": true,
      "inputs": [],
      "name": "defaultOwner",
      "outputs": [
        {
          "name": "",
          "type": "address"
        }
      ],
      "payable": false,
      "stateMutability": "view",
      "type": "function"
    },
    {
      "constant": false,
      "inputs": [
        {
          "name": "newOwner",
          "type": "address"
        }
      ],
      "name": "addOwner",
      "outputs": [],
      "payable": false,
      "stateMutability": "nonpayable",
      "type": "function"
    },
    {
      "constant": false,
      "inputs": [
        {
          "name": "_owner",
          "type": "address"
        }
      ],
      "name": "removeOwner",
      "outputs": [],
      "payable": false,
      "stateMutability": "nonpayable",
      "type": "function"
    }
  ],
  "bytecode": "0x6060604052341561000f57600080fd5b60408051908101604052806001151581526020016001805490508152506000803373ffffffffffffffffffffffffffffffffffffffff1673ffffffffffffffffffffffffffffffffffffffff16815260200190815260200160002060008201518160000160006101000a81548160ff02191690831515021790555060208201518160010155905050600180548060010182816100ab9190610159565b9160005260206000209001600033909190916101000a81548173ffffffffffffffffffffffffffffffffffffffff021916908373ffffffffffffffffffffffffffffffffffffffff160217905550503373ffffffffffffffffffffffffffffffffffffffff163373ffffffffffffffffffffffffffffffffffffffff167fc82bdbbf677a2462f2a7e22e4ba9abd209496b69cd7b868b3b1d28f76e09a40a60405160405180910390a36101aa565b8154818355818115116101805781836000526020600020918201910161017f9190610185565b5b505050565b6101a791905b808211156101a357600081600090555060010161018b565b5090565b90565b6107a2806101b96000396000f30060606040526004361061006d576000357c0100000000000000000000000000000000000000000000000000000000900463ffffffff168063022914a71461007257806313b3cdf6146100ca578063173825d91461012d57806317de2f1f146101665780637065cb48146101bb575b600080fd5b341561007d57600080fd5b6100a9600480803573ffffffffffffffffffffffffffffffffffffffff169060200190919050506101f4565b60405180831515151581526020018281526020019250505060405180910390f35b34156100d557600080fd5b6100eb6004808035906020019091905050610225565b604051808273ffffffffffffffffffffffffffffffffffffffff1673ffffffffffffffffffffffffffffffffffffffff16815260200191505060405180910390f35b341561013857600080fd5b610164600480803573ffffffffffffffffffffffffffffffffffffffff16906020019091905050610264565b005b341561017157600080fd5b610179610501565b604051808273ffffffffffffffffffffffffffffffffffffffff1673ffffffffffffffffffffffffffffffffffffffff16815260200191505060405180910390f35b34156101c657600080fd5b6101f2600480803573ffffffffffffffffffffffffffffffffffffffff16906020019091905050610557565b005b60006020528060005260406000206000915090508060000160009054906101000a900460ff16908060010154905082565b60018181548110151561023457fe5b90600052602060002090016000915054906101000a900473ffffffffffffffffffffffffffffffffffffffff1681565b60008060003373ffffffffffffffffffffffffffffffffffffffff1673ffffffffffffffffffffffffffffffffffffffff16815260200190815260200160002060000160009054906101000a900460ff1615156102c057600080fd5b600180805490501115156102d357600080fd5b6000808373ffffffffffffffffffffffffffffffffffffffff1673ffffffffffffffffffffffffffffffffffffffff16815260200190815260200160002060010154905060018080805490500381548110151561032c57fe5b906000526020600020900160009054906101000a900473ffffffffffffffffffffffffffffffffffffffff1660018281548110151561036757fe5b906000526020600020900160006101000a81548173ffffffffffffffffffffffffffffffffffffffff021916908373ffffffffffffffffffffffffffffffffffffffff160217905550806000806001848154811015156103c357fe5b906000526020600020900160009054906101000a900473ffffffffffffffffffffffffffffffffffffffff1673ffffffffffffffffffffffffffffffffffffffff1673ffffffffffffffffffffffffffffffffffffffff16815260200190815260200160002060010181905550600180548091906001900361044591906106f9565b506000808373ffffffffffffffffffffffffffffffffffffffff1673ffffffffffffffffffffffffffffffffffffffff168152602001908152602001600020600080820160006101000a81549060ff0219169055600182016000905550503373ffffffffffffffffffffffffffffffffffffffff168273ffffffffffffffffffffffffffffffffffffffff167fe594d081b4382713733fe631966432c9cea5199afb2db5c3c1931f9f9300367960405160405180910390a35050565b60008060018054905011151561051657600080fd5b6001600081548110151561052657fe5b906000526020600020900160009054906101000a900473ffffffffffffffffffffffffffffffffffffffff16905090565b6000803373ffffffffffffffffffffffffffffffffffffffff1673ffffffffffffffffffffffffffffffffffffffff16815260200190815260200160002060000160009054906101000a900460ff1615156105b157600080fd5b60408051908101604052806001151581526020016001805490508152506000808373ffffffffffffffffffffffffffffffffffffffff1673ffffffffffffffffffffffffffffffffffffffff16815260200190815260200160002060008201518160000160006101000a81548160ff021916908315150217905550602082015181600101559050506001805480600101828161064d9190610725565b9160005260206000209001600083909190916101000a81548173ffffffffffffffffffffffffffffffffffffffff021916908373ffffffffffffffffffffffffffffffffffffffff160217905550503373ffffffffffffffffffffffffffffffffffffffff168173ffffffffffffffffffffffffffffffffffffffff167fc82bdbbf677a2462f2a7e22e4ba9abd209496b69cd7b868b3b1d28f76e09a40a60405160405180910390a350565b8154818355818115116107205781836000526020600020918201910161071f9190610751565b5b505050565b81548183558181151161074c5781836000526020600020918201910161074b9190610751565b5b505050565b61077391905b8082111561076f576000816000905550600101610757565b5090565b905600a165627a7a72305820e817e4a37f41d4c7b5a6e905b044add63464b4f80d5e5f6db453eeb3824137950029",
  "source": "pragma solidity ^0.4.18;\n\n\ncontract MultipleOwners {\n    struct Owner {\n        bool isOwner;\n        uint256 index;\n    }\n    mapping(address => Owner) public owners;\n    address[] public ownersLUT;\n\n    event OwnerAdded(address indexed ownerAddress, address indexed addedBy);\n    event OwnerRemoved(address indexed ownerAddress, address indexed removedBy);\n\n    function MultipleOwners() public {\n        owners[msg.sender] = Owner(true, ownersLUT.length);\n        ownersLUT.push(msg.sender);\n        OwnerAdded(msg.sender, msg.sender);\n    }\n\n    modifier onlyOwner() {\n        require(owners[msg.sender].isOwner);\n        _;\n    }\n\n    function defaultOwner() public view returns (address) {\n        require(ownersLUT.length > 0);\n        return ownersLUT[0];\n    }\n\n    function addOwner(address newOwner) public onlyOwner {\n        owners[newOwner] = Owner(true, ownersLUT.length);\n        ownersLUT.push(newOwner);\n        OwnerAdded(newOwner, msg.sender);\n    }\n\n    function removeOwner(address _owner) public onlyOwner {\n        // make sure there is at least 1 owner left before removal\n        require(ownersLUT.length > 1);\n\n        uint256 index = owners[_owner].index;\n        // order does not matter so move last element to the deleted index\n        ownersLUT[index] = ownersLUT[ownersLUT.length - 1];\n        owners[ownersLUT[index]].index = index;\n        // remove last element\n        ownersLUT.length--;\n        // remove Owner from mapping\n        delete owners[_owner];\n        OwnerRemoved(_owner, msg.sender);\n    }\n}",
  "sourcePath": "/home/user/ofn-engine/contracts/MultipleOwners.sol",
  "compiler": {
    "name": "solc",
    "version": "0.4.19+commit.c4cbbb05.Emscripten.clang"
  },
  "schemaVersion": "1.0.1",
  "updatedAt": "2018-02-23T21:15:20.157Z"
}