{
  "contractName": "Settlement",
  "abi": [
    {
      "constant": true,
      "inputs": [
        {
          "name": "",
          "type": "uint256"
        }
      ],
      "name": "approvalsRemaining",
      "outputs": [
        {
          "name": "",
          "type": "uint256"
        }
      ],
      "payable": false,
      "stateMutability": "view",
      "type": "function"
    },
    {
      "constant": true,
      "inputs": [
        {
          "name": "",
          "type": "uint256"
        },
        {
          "name": "",
          "type": "bytes32"
        }
      ],
      "name": "pendingApprovals",
      "outputs": [
        {
          "name": "",
          "type": "bool"
        }
      ],
      "payable": false,
      "stateMutability": "view",
      "type": "function"
    },
    {
      "constant": true,
      "inputs": [
        {
          "name": "",
          "type": "uint256"
        }
      ],
      "name": "pendingTransactionsLUT",
      "outputs": [
        {
          "name": "",
          "type": "uint256"
        }
      ],
      "payable": false,
      "stateMutability": "view",
      "type": "function"
    },
    {
      "constant": true,
      "inputs": [
        {
          "name": "",
          "type": "uint256"
        }
      ],
      "name": "pendingTransactions",
      "outputs": [
        {
          "name": "sellerId",
          "type": "bytes32"
        },
        {
          "name": "buyerId",
          "type": "bytes32"
        },
        {
          "name": "assetId",
          "type": "bytes32"
        },
        {
          "name": "numberOfShares",
          "type": "uint256"
        },
        {
          "name": "price",
          "type": "uint256"
        },
        {
          "name": "timestamp",
          "type": "uint256"
        },
        {
          "name": "sender",
          "type": "address"
        },
        {
          "name": "deadline",
          "type": "uint256"
        },
        {
          "name": "isApproved",
          "type": "bool"
        }
      ],
      "payable": false,
      "stateMutability": "view",
      "type": "function"
    },
    {
      "constant": true,
      "inputs": [
        {
          "name": "",
          "type": "uint256"
        }
      ],
      "name": "transactionsLUT",
      "outputs": [
        {
          "name": "",
          "type": "uint256"
        }
      ],
      "payable": false,
      "stateMutability": "view",
      "type": "function"
    },
    {
      "constant": true,
      "inputs": [],
      "name": "approvalDeadline",
      "outputs": [
        {
          "name": "",
          "type": "uint256"
        }
      ],
      "payable": false,
      "stateMutability": "view",
      "type": "function"
    },
    {
      "constant": true,
      "inputs": [
        {
          "name": "",
          "type": "uint256"
        }
      ],
      "name": "transactions",
      "outputs": [
        {
          "name": "sellerId",
          "type": "bytes32"
        },
        {
          "name": "buyerId",
          "type": "bytes32"
        },
        {
          "name": "assetId",
          "type": "bytes32"
        },
        {
          "name": "numberOfShares",
          "type": "uint256"
        },
        {
          "name": "price",
          "type": "uint256"
        },
        {
          "name": "timestamp",
          "type": "uint256"
        },
        {
          "name": "sender",
          "type": "address"
        },
        {
          "name": "deadline",
          "type": "uint256"
        },
        {
          "name": "isApproved",
          "type": "bool"
        }
      ],
      "payable": false,
      "stateMutability": "view",
      "type": "function"
    },
    {
      "constant": false,
      "inputs": [
        {
          "name": "_cp",
          "type": "address"
        }
      ],
      "name": "setContractProvider",
      "outputs": [
        {
          "name": "",
          "type": "bool"
        }
      ],
      "payable": false,
      "stateMutability": "nonpayable",
      "type": "function"
    },
    {
      "anonymous": false,
      "inputs": [
        {
          "indexed": false,
          "name": "transactionId",
          "type": "uint256"
        },
        {
          "indexed": false,
          "name": "sellerId",
          "type": "bytes32"
        },
        {
          "indexed": false,
          "name": "buyerId",
          "type": "bytes32"
        },
        {
          "indexed": false,
          "name": "assetId",
          "type": "bytes32"
        },
        {
          "indexed": false,
          "name": "numberOfShares",
          "type": "uint256"
        },
        {
          "indexed": true,
          "name": "price",
          "type": "uint256"
        },
        {
          "indexed": true,
          "name": "date",
          "type": "uint256"
        },
        {
          "indexed": false,
          "name": "sender",
          "type": "address"
        },
        {
          "indexed": false,
          "name": "deadline",
          "type": "uint256"
        }
      ],
      "name": "LogNewPendingTransaction",
      "type": "event"
    },
    {
      "anonymous": false,
      "inputs": [
        {
          "indexed": true,
          "name": "transactionId",
          "type": "uint256"
        },
        {
          "indexed": false,
          "name": "sellerId",
          "type": "bytes32"
        },
        {
          "indexed": false,
          "name": "buyerId",
          "type": "bytes32"
        },
        {
          "indexed": false,
          "name": "assetId",
          "type": "bytes32"
        },
        {
          "indexed": false,
          "name": "numberOfShares",
          "type": "uint256"
        },
        {
          "indexed": true,
          "name": "price",
          "type": "uint256"
        },
        {
          "indexed": true,
          "name": "now",
          "type": "uint256"
        },
        {
          "indexed": false,
          "name": "sender",
          "type": "address"
        }
      ],
      "name": "LogNewTransactionByMetadata",
      "type": "event"
    },
    {
      "anonymous": false,
      "inputs": [
        {
          "indexed": false,
          "name": "transactionId",
          "type": "uint256"
        },
        {
          "indexed": true,
          "name": "sellerId",
          "type": "bytes32"
        },
        {
          "indexed": true,
          "name": "buyerId",
          "type": "bytes32"
        },
        {
          "indexed": true,
          "name": "assetId",
          "type": "bytes32"
        },
        {
          "indexed": false,
          "name": "numberOfShares",
          "type": "uint256"
        },
        {
          "indexed": false,
          "name": "price",
          "type": "uint256"
        },
        {
          "indexed": false,
          "name": "now",
          "type": "uint256"
        },
        {
          "indexed": false,
          "name": "sender",
          "type": "address"
        }
      ],
      "name": "LogNewTransactionByParticipants",
      "type": "event"
    },
    {
      "anonymous": false,
      "inputs": [
        {
          "indexed": true,
          "name": "transactionCounter",
          "type": "uint256"
        },
        {
          "indexed": false,
          "name": "sender",
          "type": "address"
        }
      ],
      "name": "LogInitiateReverseTransaction",
      "type": "event"
    },
    {
      "anonymous": false,
      "inputs": [
        {
          "indexed": false,
          "name": "pendingTxCounter",
          "type": "uint256"
        },
        {
          "indexed": false,
          "name": "sender",
          "type": "address"
        }
      ],
      "name": "LogNewApproval",
      "type": "event"
    },
    {
      "constant": false,
      "inputs": [
        {
          "name": "sellerId",
          "type": "bytes32"
        },
        {
          "name": "buyerId",
          "type": "bytes32"
        },
        {
          "name": "assetId",
          "type": "bytes32"
        },
        {
          "name": "numberOfShares",
          "type": "uint256"
        },
        {
          "name": "price",
          "type": "uint256"
        }
      ],
      "name": "initiateTransaction",
      "outputs": [
        {
          "name": "",
          "type": "bool"
        }
      ],
      "payable": false,
      "stateMutability": "nonpayable",
      "type": "function"
    },
    {
      "constant": false,
      "inputs": [
        {
          "name": "pendingTxCounter",
          "type": "uint256"
        }
      ],
      "name": "isApproved",
      "outputs": [
        {
          "name": "",
          "type": "bool"
        }
      ],
      "payable": false,
      "stateMutability": "nonpayable",
      "type": "function"
    },
    {
      "constant": false,
      "inputs": [
        {
          "name": "pendingTxCounter",
          "type": "uint256"
        },
        {
          "name": "entityId",
          "type": "bytes32"
        }
      ],
      "name": "approveTransactionFor",
      "outputs": [
        {
          "name": "",
          "type": "bool"
        }
      ],
      "payable": false,
      "stateMutability": "nonpayable",
      "type": "function"
    },
    {
      "constant": false,
      "inputs": [
        {
          "name": "transactionId",
          "type": "uint256"
        }
      ],
      "name": "initiateReverseTransaction",
      "outputs": [
        {
          "name": "",
          "type": "bool"
        }
      ],
      "payable": false,
      "stateMutability": "nonpayable",
      "type": "function"
    },
    {
      "constant": true,
      "inputs": [],
      "name": "getTransactionCount",
      "outputs": [
        {
          "name": "",
          "type": "uint256"
        }
      ],
      "payable": false,
      "stateMutability": "view",
      "type": "function"
    },
    {
      "constant": true,
      "inputs": [
        {
          "name": "transactionId",
          "type": "uint256"
        }
      ],
      "name": "getTransaction",
      "outputs": [
        {
          "name": "sellerId",
          "type": "bytes32"
        },
        {
          "name": "buyerId",
          "type": "bytes32"
        },
        {
          "name": "assetId",
          "type": "bytes32"
        },
        {
          "name": "numberOfShares",
          "type": "uint256"
        },
        {
          "name": "price",
          "type": "uint256"
        },
        {
          "name": "timestamp",
          "type": "uint256"
        }
      ],
      "payable": false,
      "stateMutability": "view",
      "type": "function"
    }
  ],
  "bytecode": "0x606060405260016005556001600855341561001957600080fd5b6127d3806100286000396000f3006060604052600436106100cf576000357c0100000000000000000000000000000000000000000000000000000000900463ffffffff16806238ca0f146100d45780630318172b1461010b57806327e8566e146101535780632e7700f01461018a57806333ea3dc8146101b357806363a8374d14610225578063668f0dc1146102dc5780637910867b146103135780639500dae61461034e5780639ace38c2146103775780639e30c4bc1461042e5780639f577c1514610476578063b4ce2084146104c7578063e92ce7c714610532575b600080fd5b34156100df57600080fd5b6100f5600480803590602001909190505061056d565b6040518082815260200191505060405180910390f35b341561011657600080fd5b610139600480803590602001909190803560001916906020019091905050610585565b604051808215151515815260200191505060405180910390f35b341561015e57600080fd5b61017460048080359060200190919050506105b4565b6040518082815260200191505060405180910390f35b341561019557600080fd5b61019d6105d8565b6040518082815260200191505060405180910390f35b34156101be57600080fd5b6101d460048080359060200190919050506105e5565b60405180876000191660001916815260200186600019166000191681526020018560001916600019168152602001848152602001838152602001828152602001965050505050505060405180910390f35b341561023057600080fd5b6102466004808035906020019091905050610648565b604051808a60001916600019168152602001896000191660001916815260200188600019166000191681526020018781526020018681526020018581526020018473ffffffffffffffffffffffffffffffffffffffff1673ffffffffffffffffffffffffffffffffffffffff16815260200183815260200182151515158152602001995050505050505050505060405180910390f35b34156102e757600080fd5b6102fd60048080359060200190919050506106c3565b6040518082815260200191505060405180910390f35b341561031e57600080fd5b61033460048080359060200190919050506106e7565b604051808215151515815260200191505060405180910390f35b341561035957600080fd5b61036161076c565b6040518082815260200191505060405180910390f35b341561038257600080fd5b6103986004808035906020019091905050610772565b604051808a60001916600019168152602001896000191660001916815260200188600019166000191681526020018781526020018681526020018581526020018473ffffffffffffffffffffffffffffffffffffffff1673ffffffffffffffffffffffffffffffffffffffff16815260200183815260200182151515158152602001995050505050505050505060405180910390f35b341561043957600080fd5b61045c6004808035906020019091908035600019169060200190919050506107ed565b604051808215151515815260200191505060405180910390f35b341561048157600080fd5b6104ad600480803573ffffffffffffffffffffffffffffffffffffffff16906020019091905050610dd9565b604051808215151515815260200191505060405180910390f35b34156104d257600080fd5b6105186004808035600019169060200190919080356000191690602001909190803560001916906020019091908035906020019091908035906020019091905050610eea565b604051808215151515815260200191505060405180910390f35b341561053d57600080fd5b61055360048080359060200190919050506112f7565b604051808215151515815260200191505060405180910390f35b60026020528060005260406000206000915090505481565b60016020528160005260406000206020528060005260406000206000915091509054906101000a900460ff1681565b6004818154811015156105c357fe5b90600052602060002090016000915090505481565b6000600780549050905090565b60008060008060008060008088141515156105ff57600080fd5b6006600089815260200190815260200160002090508060000154816001015482600201548360030154846004015485600501549650965096509650965096505091939550919395565b60036020528060005260406000206000915090508060000154908060010154908060020154908060030154908060040154908060050154908060060160009054906101000a900473ffffffffffffffffffffffffffffffffffffffff16908060070154908060080160009054906101000a900460ff16905089565b6007818154811015156106d257fe5b90600052602060002090016000915090505481565b6000806003600084815260200190815260200160002090508060080160009054906101000a900460ff161561071f5760019150610766565b6000600260008581526020019081526020016000205411156107445760009150610766565b60018160080160006101000a81548160ff021916908315150217905550600191505b50919050565b61a8c081565b60066020528060005260406000206000915090508060000154908060010154908060020154908060030154908060040154908060050154908060060160009054906101000a900473ffffffffffffffffffffffffffffffffffffffff16908060070154908060080160009054906101000a900460ff16905089565b600080600080600080600160008981526020019081526020016000206000886000191660001916815260200190815260200160002060009054906101000a900460ff16151561083b57600080fd5b60036000898152602001908152602001600020945060008560000154600019161415151561086857600080fd5b60008560010154600019161415151561088057600080fd5b4285600701541015151561089357600080fd5b8460080160009054906101000a900460ff161515156108b157600080fd5b60008760001916141515156108c557600080fd5b6000809054906101000a900473ffffffffffffffffffffffffffffffffffffffff1673ffffffffffffffffffffffffffffffffffffffff1663ec56a3736000604051602001526040518163ffffffff167c010000000000000000000000000000000000000000000000000000000002815260040180807f61637469766974795f6c696d69746572000000000000000000000000000000008152506020019050602060405180830381600087803b151561097d57600080fd5b6102c65a03f1151561098e57600080fd5b50505060405180519050935060079250866000191685600001546000191614806109c357508660001916856001015460001916145b156109cd57600892505b8373ffffffffffffffffffffffffffffffffffffffff16631c9a2337846040518263ffffffff167c010000000000000000000000000000000000000000000000000000000002815260040180826008811115610a2557fe5b60ff168152602001915050600060405180830381600087803b1515610a4957600080fd5b6102c65a03f11515610a5a57600080fd5b5050506000809054906101000a900473ffffffffffffffffffffffffffffffffffffffff1673ffffffffffffffffffffffffffffffffffffffff1663ec56a3736000604051602001526040518163ffffffff167c010000000000000000000000000000000000000000000000000000000002815260040180807f656e746974795f726567697374727900000000000000000000000000000000008152506020019050602060405180830381600087803b1515610b1557600080fd5b6102c65a03f11515610b2657600080fd5b5050506040518051905091508173ffffffffffffffffffffffffffffffffffffffff1663deb931a2886000604051602001526040518263ffffffff167c0100000000000000000000000000000000000000000000000000000000028152600401808260001916600019168152602001915050602060405180830381600087803b1515610bb157600080fd5b6102c65a03f11515610bc257600080fd5b5050506040518051905090503373ffffffffffffffffffffffffffffffffffffffff168173ffffffffffffffffffffffffffffffffffffffff161480610cd257508173ffffffffffffffffffffffffffffffffffffffff16636a10fbba88336000604051602001526040518363ffffffff167c01000000000000000000000000000000000000000000000000000000000281526004018083600019166000191681526020018273ffffffffffffffffffffffffffffffffffffffff1673ffffffffffffffffffffffffffffffffffffffff16815260200192505050602060405180830381600087803b1515610cb657600080fd5b6102c65a03f11515610cc757600080fd5b505050604051805190505b1515610cdd57600080fd5b6000600160008a81526020019081526020016000206000896000191660001916815260200190815260200160002060006101000a81548160ff0219169083151502179055506002600089815260200190815260200160002060008154809291906001900391905055507fda05d14bf39a3a1d3529f6a29834d52d5c8158bffbbc12541a219e1c4723c7d98833604051808381526020018273ffffffffffffffffffffffffffffffffffffffff1673ffffffffffffffffffffffffffffffffffffffff1681526020019250505060405180910390a1610dba886106e7565b15610dca57610dc88861150f565b505b60019550505050505092915050565b6000808273ffffffffffffffffffffffffffffffffffffffff1614151515610e0057600080fd5b60008060009054906101000a900473ffffffffffffffffffffffffffffffffffffffff1673ffffffffffffffffffffffffffffffffffffffff161480610e9257506000809054906101000a900473ffffffffffffffffffffffffffffffffffffffff1673ffffffffffffffffffffffffffffffffffffffff163373ffffffffffffffffffffffffffffffffffffffff16145b15610ee057816000806101000a81548173ffffffffffffffffffffffffffffffffffffffff021916908373ffffffffffffffffffffffffffffffffffffffff16021790555060019050610ee5565b600090505b919050565b6000600560008060009054906101000a900473ffffffffffffffffffffffffffffffffffffffff1673ffffffffffffffffffffffffffffffffffffffff1663ec56a3736000604051602001526040518163ffffffff167c010000000000000000000000000000000000000000000000000000000002815260040180807f61637469766974795f6c696d69746572000000000000000000000000000000008152506020019050602060405180830381600087803b1515610fa857600080fd5b6102c65a03f11515610fb957600080fd5b5050506040518051905090508073ffffffffffffffffffffffffffffffffffffffff16631c9a2337836040518263ffffffff167c01000000000000000000000000000000000000000000000000000000000281526004018082600881111561101d57fe5b60ff168152602001915050600060405180830381600087803b151561104157600080fd5b6102c65a03f1151561105257600080fd5b505050600088600019161415151561106957600080fd5b600087600019161415151561107d57600080fd5b600086600019161415151561109157600080fd5b600085141515156110a157600080fd5b6110ad88888888611a54565b506110b9868989611d73565b50610120604051908101604052808960001916815260200188600019168152602001876000191681526020018681526020018581526020014281526020013373ffffffffffffffffffffffffffffffffffffffff16815260200161a8c04201815260200160001515815250600360006005548152602001908152602001600020600082015181600001906000191690556020820151816001019060001916905560408201518160020190600019169055606082015181600301556080820151816004015560a0820151816005015560c08201518160060160006101000a81548173ffffffffffffffffffffffffffffffffffffffff021916908373ffffffffffffffffffffffffffffffffffffffff16021790555060e082015181600701556101008201518160080160006101000a81548160ff0219169083151502179055509050506004805480600101828161121091906126e8565b916000526020600020900160006005549091909150555042847fcd20c665c37b01c18d6962dfbb154359ad56707a4e25aa9c32fb70b0396981bc6005548b8b8b8b3361a8c04201604051808881526020018760001916600019168152602001866000191660001916815260200185600019166000191681526020018481526020018373ffffffffffffffffffffffffffffffffffffffff1673ffffffffffffffffffffffffffffffffffffffff16815260200182815260200197505050505050505060405180910390a3600560008154809291906001019190505550505095945050505050565b600080600660008060009054906101000a900473ffffffffffffffffffffffffffffffffffffffff1673ffffffffffffffffffffffffffffffffffffffff1663ec56a3736000604051602001526040518163ffffffff167c010000000000000000000000000000000000000000000000000000000002815260040180807f61637469766974795f6c696d69746572000000000000000000000000000000008152506020019050602060405180830381600087803b15156113b657600080fd5b6102c65a03f115156113c757600080fd5b5050506040518051905090508073ffffffffffffffffffffffffffffffffffffffff16631c9a2337836040518263ffffffff167c01000000000000000000000000000000000000000000000000000000000281526004018082600881111561142b57fe5b60ff168152602001915050600060405180830381600087803b151561144f57600080fd5b6102c65a03f1151561146057600080fd5b50505060066000868152602001908152602001600020925061149983600101548460000154856002015486600301548760040154610eea565b506001600554037ff3bcb84c7d765c66a98a6b67af060bca43925bedccd76dcd9760373b634848b933604051808273ffffffffffffffffffffffffffffffffffffffff1673ffffffffffffffffffffffffffffffffffffffff16815260200191505060405180910390a260019350505050919050565b6000611519612714565b60006003600085815260200190815260200160002061012060405190810160405290816000820154600019166000191681526020016001820154600019166000191681526020016002820154600019166000191681526020016003820154815260200160048201548152602001600582015481526020016006820160009054906101000a900473ffffffffffffffffffffffffffffffffffffffff1673ffffffffffffffffffffffffffffffffffffffff1673ffffffffffffffffffffffffffffffffffffffff168152602001600782015481526020016008820160009054906101000a900460ff1615151515815250509150816101000151151561161d57600080fd5b6116398260000151836020015184604001518560600151611a54565b506000809054906101000a900473ffffffffffffffffffffffffffffffffffffffff1673ffffffffffffffffffffffffffffffffffffffff1663ec56a3736000604051602001526040518163ffffffff167c010000000000000000000000000000000000000000000000000000000002815260040180807f61737365745f72656769737472790000000000000000000000000000000000008152506020019050602060405180830381600087803b15156116f257600080fd5b6102c65a03f1151561170357600080fd5b50505060405180519050905061172c82600001518360200151846040015185606001518561256e565b5081600660006008548152602001908152602001600020600082015181600001906000191690556020820151816001019060001916905560408201518160020190600019169055606082015181600301556080820151816004015560a0820151816005015560c08201518160060160006101000a81548173ffffffffffffffffffffffffffffffffffffffff021916908373ffffffffffffffffffffffffffffffffffffffff16021790555060e082015181600701556101008201518160080160006101000a81548160ff02191690831515021790555090505042600660006008548152602001908152602001600020600501819055506007805480600101828161183791906126e8565b91600052602060002090016000600854909190915055504282608001516008547f117c68eaf431fe5a2acccaeb58d1ecfc42c550dfbb366aa8c10402f1c05ccf3685600001518660200151876040015188606001518960c00151604051808660001916600019168152602001856000191660001916815260200184600019166000191681526020018381526020018273ffffffffffffffffffffffffffffffffffffffff1673ffffffffffffffffffffffffffffffffffffffff1681526020019550505050505060405180910390a48160400151600019168260200151600019168360000151600019167f27b609300fdd1fc2b4de412aab5f4925347f3c1e0c1d2323956258f3ecf69fa760085486606001518760800151428960c00151604051808681526020018581526020018481526020018381526020018273ffffffffffffffffffffffffffffffffffffffff1673ffffffffffffffffffffffffffffffffffffffff1681526020019550505050505060405180910390a460036000858152602001908152602001600020600080820160009055600182016000905560028201600090556003820160009055600482016000905560058201600090556006820160006101000a81549073ffffffffffffffffffffffffffffffffffffffff021916905560078201600090556008820160006101000a81549060ff021916905550506008600081548092919060010191905055505050919050565b60008060008060009054906101000a900473ffffffffffffffffffffffffffffffffffffffff1673ffffffffffffffffffffffffffffffffffffffff1663ec56a3736000604051602001526040518163ffffffff167c010000000000000000000000000000000000000000000000000000000002815260040180807f61737365745f72656769737472790000000000000000000000000000000000008152506020019050602060405180830381600087803b1515611b1157600080fd5b6102c65a03f11515611b2257600080fd5b5050506040518051905091508173ffffffffffffffffffffffffffffffffffffffff1663b29195ce8689876000604051602001526040518463ffffffff167c010000000000000000000000000000000000000000000000000000000002815260040180846000191660001916815260200183600019166000191681526020018281526020019350505050602060405180830381600087803b1515611bc557600080fd5b6102c65a03f11515611bd657600080fd5b505050604051805190501515611beb57600080fd5b6000809054906101000a900473ffffffffffffffffffffffffffffffffffffffff1673ffffffffffffffffffffffffffffffffffffffff1663ec56a3736000604051602001526040518163ffffffff167c010000000000000000000000000000000000000000000000000000000002815260040180807f656e746974795f726567697374727900000000000000000000000000000000008152506020019050602060405180830381600087803b1515611ca357600080fd5b6102c65a03f11515611cb457600080fd5b5050506040518051905090508073ffffffffffffffffffffffffffffffffffffffff16637b435b58876000604051602001526040518263ffffffff167c0100000000000000000000000000000000000000000000000000000000028152600401808260001916600019168152602001915050602060405180830381600087803b1515611d3f57600080fd5b6102c65a03f11515611d5057600080fd5b505050604051805190501515611d6557600080fd5b600192505050949350505050565b6000806000806000806000806000809054906101000a900473ffffffffffffffffffffffffffffffffffffffff1673ffffffffffffffffffffffffffffffffffffffff1663ec56a3736000604051602001526040518163ffffffff167c010000000000000000000000000000000000000000000000000000000002815260040180807f656e746974795f726567697374727900000000000000000000000000000000008152506020019050602060405180830381600087803b1515611e3757600080fd5b6102c65a03f11515611e4857600080fd5b5050506040518051905096508673ffffffffffffffffffffffffffffffffffffffff1663deb931a28b6000604051602001526040518263ffffffff167c0100000000000000000000000000000000000000000000000000000000028152600401808260001916600019168152602001915050602060405180830381600087803b1515611ed357600080fd5b6102c65a03f11515611ee457600080fd5b5050506040518051905095508673ffffffffffffffffffffffffffffffffffffffff1663deb931a28a6000604051602001526040518263ffffffff167c0100000000000000000000000000000000000000000000000000000000028152600401808260001916600019168152602001915050602060405180830381600087803b1515611f6f57600080fd5b6102c65a03f11515611f8057600080fd5b5050506040518051905094508573ffffffffffffffffffffffffffffffffffffffff163373ffffffffffffffffffffffffffffffffffffffff161415801561209357508673ffffffffffffffffffffffffffffffffffffffff16636a10fbba8b336000604051602001526040518363ffffffff167c01000000000000000000000000000000000000000000000000000000000281526004018083600019166000191681526020018273ffffffffffffffffffffffffffffffffffffffff1673ffffffffffffffffffffffffffffffffffffffff16815260200192505050602060405180830381600087803b151561207657600080fd5b6102c65a03f1151561208757600080fd5b50505060405180519050155b15612103576001806000600554815260200190815260200160002060008c6000191660001916815260200190815260200160002060006101000a81548160ff0219169083151502179055506001600260006005548152602001908152602001600020600082825401925050819055505b8473ffffffffffffffffffffffffffffffffffffffff163373ffffffffffffffffffffffffffffffffffffffff161415801561220a57508673ffffffffffffffffffffffffffffffffffffffff16636a10fbba8a336000604051602001526040518363ffffffff167c01000000000000000000000000000000000000000000000000000000000281526004018083600019166000191681526020018273ffffffffffffffffffffffffffffffffffffffff1673ffffffffffffffffffffffffffffffffffffffff16815260200192505050602060405180830381600087803b15156121ed57600080fd5b6102c65a03f115156121fe57600080fd5b50505060405180519050155b1561227a576001806000600554815260200190815260200160002060008b6000191660001916815260200190815260200160002060006101000a81548160ff0219169083151502179055506001600260006005548152602001908152602001600020600082825401925050819055505b6000809054906101000a900473ffffffffffffffffffffffffffffffffffffffff1673ffffffffffffffffffffffffffffffffffffffff1663ec56a3736000604051602001526040518163ffffffff167c010000000000000000000000000000000000000000000000000000000002815260040180807f61737365745f72656769737472790000000000000000000000000000000000008152506020019050602060405180830381600087803b151561233257600080fd5b6102c65a03f1151561234357600080fd5b5050506040518051905093508373ffffffffffffffffffffffffffffffffffffffff1663fcda26858c6000604051602001526040518263ffffffff167c0100000000000000000000000000000000000000000000000000000000028152600401808260001916600019168152602001915050602060405180830381600087803b15156123ce57600080fd5b6102c65a03f115156123df57600080fd5b505050604051805190509250600091505b828260ff16101561255c578373ffffffffffffffffffffffffffffffffffffffff1663b8b9ad228c846000604051602001526040518363ffffffff167c01000000000000000000000000000000000000000000000000000000000281526004018083600019166000191681526020018260ff16815260200192505050602060405180830381600087803b151561248557600080fd5b6102c65a03f1151561249657600080fd5b5050506040518051905090506001600060055481526020019081526020016000206000826000191660001916815260200190815260200160002060009054906101000a900460ff16151561254f57600180600060055481526020019081526020016000206000836000191660001916815260200190815260200160002060006101000a81548160ff0219169083151502179055506001600260006005548152602001908152602001600020600082825401925050819055505b81806001019250506123f0565b60019750505050505050509392505050565b6000808290508073ffffffffffffffffffffffffffffffffffffffff1663f80097228688876000604051602001526040518463ffffffff167c010000000000000000000000000000000000000000000000000000000002815260040180846000191660001916815260200183600019166000191681526020018281526020019350505050602060405180830381600087803b151561260b57600080fd5b6102c65a03f1151561261c57600080fd5b50505060405180519050508073ffffffffffffffffffffffffffffffffffffffff1663e893d85d8689876000604051602001526040518463ffffffff167c010000000000000000000000000000000000000000000000000000000002815260040180846000191660001916815260200183600019166000191681526020018281526020019350505050602060405180830381600087803b15156126be57600080fd5b6102c65a03f115156126cf57600080fd5b5050506040518051905050600191505095945050505050565b81548183558181151161270f5781836000526020600020918201910161270e9190612782565b5b505050565b61012060405190810160405280600080191681526020016000801916815260200160008019168152602001600081526020016000815260200160008152602001600073ffffffffffffffffffffffffffffffffffffffff168152602001600081526020016000151581525090565b6127a491905b808211156127a0576000816000905550600101612788565b5090565b905600a165627a7a7230582015d0958d8c0c9909dda19fbf0b8d4f8fad6d01d96be85d3dbf78a3f78beae7de0029",
  "source": "pragma solidity ^0.4.17;\n\n\nimport './ContractProviderEnabled.sol';\nimport './Limited.sol';\nimport './WithActions.sol';\n\nimport './interfaces/IContractProvider.sol';\nimport './interfaces/IActivityLimiter.sol';\nimport './interfaces/IAssetRegistry.sol';\nimport './interfaces/IEntityRegistry.sol';\n\nimport 'zeppelin-solidity/contracts/math/SafeMath.sol';\n\n\ncontract Settlement is ContractProviderEnabled, Limited {\n    using SafeMath for uint256;\n\n    uint256 constant public approvalDeadline = 12 hours;\n\n    struct Transaction {\n        bytes32 sellerId;\n        bytes32 buyerId;\n        bytes32 assetId;\n        uint256 numberOfShares;\n        uint256 price;\n        uint256 timestamp;\n        address sender;\n        uint256 deadline;\n        bool isApproved;\n    }\n\n    // Status of pending approvals\n    mapping(uint256 => mapping(bytes32 => bool)) public pendingApprovals;\n\n    // Number of approvals required to save the transaction\n    mapping(uint256 => uint256) public approvalsRemaining;\n\n    mapping(uint256 => Transaction) public pendingTransactions;\n    uint256[] public pendingTransactionsLUT;\n\n    uint256 private pendingTransactionCounter = 1;\n\n    mapping(uint256 => Transaction) public transactions;\n    uint256[] public transactionsLUT;\n\n    uint256 private transactionCounter = 1;\n\n    event LogNewPendingTransaction(\n        uint256 transactionId,\n        bytes32 sellerId,\n        bytes32 buyerId,\n        bytes32 assetId,\n        uint256 numberOfShares,\n        uint256 indexed price,\n        uint256 indexed date,\n        address sender,\n        uint256 deadline\n    );\n\n    event LogNewTransactionByMetadata(\n        uint256 indexed transactionId,\n        bytes32 sellerId,\n        bytes32 buyerId,\n        bytes32 assetId,\n        uint256 numberOfShares,\n        uint256 indexed price,\n        uint256 indexed now,\n        address sender\n    );\n\n    event LogNewTransactionByParticipants(\n        uint256 transactionId,\n        bytes32 indexed sellerId,\n        bytes32 indexed buyerId,\n        bytes32 indexed assetId,\n        uint256 numberOfShares,\n        uint256 price,\n        uint256 now,\n        address sender\n    );\n\n    event LogInitiateReverseTransaction(\n        uint256 indexed transactionCounter,\n        address sender\n    );\n\n    event LogNewApproval(\n        uint256 pendingTxCounter,\n        address sender\n    );\n\n    function validateTransaction(\n        bytes32 sellerId,\n        bytes32 buyerId,\n        bytes32 assetId,\n        uint256 numberOfShares\n    )\n        internal\n        view\n        returns(bool)\n    {\n        address assetRegistryAddr = IContractProvider(cp).contracts('asset_registry');\n        require(IAssetRegistry(assetRegistryAddr).validateSeller(assetId, sellerId, numberOfShares));\n\n        address entityRegistryAddr = IContractProvider(cp).contracts('entity_registry');\n        require(IEntityRegistry(entityRegistryAddr).confirmRegisteredEntity(buyerId));\n\n        return true;\n    }\n\n    function initiateTransaction(\n        bytes32 sellerId,\n        bytes32 buyerId,\n        bytes32 assetId,\n        uint256 numberOfShares,\n        uint256 price\n    )\n        public\n        performs(NetworkActivity.InitiateTransaction)\n        returns (bool)\n    {\n        require(sellerId != '');\n        require(buyerId != '');\n        require(assetId != '');\n        require(numberOfShares != 0);\n\n        // outsource validation, stack too deep\n        validateTransaction(\n            sellerId,\n            buyerId,\n            assetId,\n            numberOfShares\n        );\n\n        // setup approval structure\n        setupApprovals(assetId, sellerId, buyerId);\n\n        pendingTransactions[pendingTransactionCounter] =\n            Transaction({\n                sellerId: sellerId,\n                buyerId: buyerId,\n                assetId: assetId,\n                numberOfShares: numberOfShares,\n                price: price,\n                timestamp: now,\n                sender: msg.sender,\n                deadline: now + approvalDeadline,\n                isApproved: false\n            });\n        pendingTransactionsLUT.push(pendingTransactionCounter);\n\n        LogNewPendingTransaction(\n            pendingTransactionCounter,\n            sellerId,\n            buyerId,\n            assetId,\n            numberOfShares,\n            price,\n            now,\n            msg.sender,\n            now + approvalDeadline\n        );\n        pendingTransactionCounter++;\n    }\n\n    function setupApprovals(bytes32 assetId, bytes32 sellerId, bytes32 buyerId)\n        internal\n        returns (bool)\n    {\n\n        address entityRegistryAddress = IContractProvider(cp).contracts('entity_registry');\n        address ownerSeller = IEntityRegistry(entityRegistryAddress).getOwner(sellerId);\n        address ownerBuyer = IEntityRegistry(entityRegistryAddress).getOwner(buyerId);\n\n        // If the sender isn't seller entity owner or a delegate, we need their approval\n        if (msg.sender != ownerSeller\n            && !IEntityRegistry(entityRegistryAddress).delegates(sellerId, msg.sender)) {\n            pendingApprovals[pendingTransactionCounter][sellerId] = true;\n            approvalsRemaining[pendingTransactionCounter] += 1;\n        }\n        \n        // If the sender isn't buyer entity owner or a delegate, we need their approval\n        if (msg.sender != ownerBuyer \n            && !IEntityRegistry(entityRegistryAddress).delegates(buyerId, msg.sender)) {\n            pendingApprovals[pendingTransactionCounter][buyerId] = true;\n            approvalsRemaining[pendingTransactionCounter] += 1;\n        }\n        address assetRegistryAddr = IContractProvider(cp).contracts('asset_registry');\n\n        // entities listed in the asset registry must approve \n        uint256 numApprovals = IAssetRegistry(assetRegistryAddr).getApprovalsCount(assetId);\n\n        for (uint8 i = 0; i < numApprovals; i++) {\n            bytes32 entityId = IAssetRegistry(assetRegistryAddr).getRequiredApproval(assetId, i);\n            if (!pendingApprovals[pendingTransactionCounter][entityId]) {\n                pendingApprovals[pendingTransactionCounter][entityId] = true;\n                approvalsRemaining[pendingTransactionCounter] += 1;\n            }\n        }\n\n        return true;\n\n    }\n\n    // Check whether or not a pending transaction has all of the approvals it\n    // requires by observing the isApproved field and the number of remaining\n    // approvals required\n    function isApproved(uint256 pendingTxCounter) public returns(bool) {\n        Transaction storage pTx = pendingTransactions[pendingTxCounter];\n        if (pTx.isApproved) return true;\n        if (approvalsRemaining[pendingTxCounter] > 0) return false; \n        pTx.isApproved = true;\n        return true;\n    }\n\n    // Users must mention the identity on behalf of whom they are approving the transaction\n    function approveTransactionFor(uint256 pendingTxCounter, bytes32 entityId)\n        public\n        returns (bool)\n    {\n        // The transaction must be awaiting approval from this approval\n        require(pendingApprovals[pendingTxCounter][entityId]);\n\n        Transaction storage pTx = pendingTransactions[pendingTxCounter];\n\n        // Make sure that the transaction index is valid \n        require(pTx.sellerId != '');\n        require(pTx.buyerId != '');\n        require(pTx.deadline >= now);\n\n        // If the transaction is alread approved, why are you calling this method?\n        require(!pTx.isApproved);\n\n        // You must mention an identity\n        require(entityId != '');\n\n        // Make sure the user has the token holdings to do this \n        address limiterAddr = IContractProvider(cp).contracts('activity_limiter');\n        NetworkActivity activity = NetworkActivity.ApproveTransaction;\n\n        if (pTx.sellerId == entityId || pTx.buyerId == entityId) {\n            activity = NetworkActivity.ApproveTransactionAsParticipant;\n        }\n\n        IActivityLimiter(limiterAddr).performAction(activity);\n\n        // The sender should either be the owner of the mentioned identity or a delegate\n        address entityRegistryAddr = IContractProvider(cp).contracts('entity_registry');\n        address entityOwner = IEntityRegistry(entityRegistryAddr).getOwner(entityId);\n\n        require(entityOwner == msg.sender\n            || IEntityRegistry(entityRegistryAddr).delegates(entityId, msg.sender));\n        \n        // Update the approval status, decrease the number of missing\n        // approvals, and possibly save the transaction\n        pendingApprovals[pendingTxCounter][entityId] = false; \n        approvalsRemaining[pendingTxCounter]--;\n        LogNewApproval(pendingTxCounter, msg.sender);\n        if(isApproved(pendingTxCounter)) saveTransaction(pendingTxCounter);\n\n        return true;\n    }\n\n    function saveTransaction(uint256 pendingTxCounter)\n        internal\n        returns (bool)\n    {\n\n        Transaction memory pTx = pendingTransactions[pendingTxCounter];\n        require(pTx.isApproved);\n\n        validateTransaction(\n            pTx.sellerId,\n            pTx.buyerId,\n            pTx.assetId,\n            pTx.numberOfShares\n        );\n        \n        address assetRegistryAddr = IContractProvider(cp).contracts('asset_registry');\n\n        updateAssetRegistry(pTx.sellerId, pTx.buyerId, pTx.assetId, pTx.numberOfShares, assetRegistryAddr);\n        \n        transactions[transactionCounter] = pTx;\n        transactions[transactionCounter].timestamp = now;\n        transactionsLUT.push(transactionCounter);\n        LogNewTransactionByMetadata(\n            transactionCounter,\n            pTx.sellerId,\n            pTx.buyerId,\n            pTx.assetId,\n            pTx.numberOfShares,\n            pTx.price,\n            now,\n            pTx.sender\n        );\n\n        LogNewTransactionByParticipants(\n            transactionCounter,\n            pTx.sellerId,\n            pTx.buyerId,\n            pTx.assetId,\n            pTx.numberOfShares,\n            pTx.price,\n            now,\n            pTx.sender\n        );\n\n        delete pendingTransactions[pendingTxCounter];\n        transactionCounter++;\n    }\n    \n    // Start the process of reversing a transaction\n    function initiateReverseTransaction(uint256 transactionId)\n        public\n        performs(NetworkActivity.ReverseTransaction)\n        returns (bool)\n    {\n        Transaction storage t = transactions[transactionId];\n\n        initiateTransaction(\n            t.buyerId,\n            t.sellerId,\n            t.assetId,\n            t.numberOfShares,\n            t.price\n        );\n        LogInitiateReverseTransaction(pendingTransactionCounter - 1, msg.sender);\n        return true;\n    }\n\n    function getTransactionCount() public view returns (uint256) {\n        return transactionsLUT.length;\n    }\n\n    function getTransaction(uint256 transactionId)\n        public\n        view\n        returns (\n            bytes32 sellerId,\n            bytes32 buyerId,\n            bytes32 assetId,\n            uint256 numberOfShares,\n            uint256 price,\n            uint256 timestamp\n        )\n    {\n        require(transactionId != 0);\n        Transaction storage t = transactions[transactionId];\n        return (t.sellerId, t.buyerId, t.assetId, t.numberOfShares, t.price, t.timestamp);\n    }\n\n    function updateAssetRegistry(\n        bytes32 sellerId,\n        bytes32 buyerId,\n        bytes32 assetId,\n        uint256 numberOfShares,\n        address assetRegistryAddr\n    )\n        internal\n        returns(bool)\n    {\n        IAssetRegistry AssetRegistry = IAssetRegistry(assetRegistryAddr);\n\n        AssetRegistry.increaseHoldings(assetId, buyerId, numberOfShares);\n        AssetRegistry.decreaseHoldings(assetId, sellerId, numberOfShares);\n\n        return true;\n    }\n}\n",
  "sourcePath": "/home/user/ofn-engine/contracts/Settlement.sol",
  "compiler": {
    "name": "solc",
    "version": "0.4.19+commit.c4cbbb05.Emscripten.clang"
  },
  "schemaVersion": "1.0.1",
  "updatedAt": "2018-02-19T23:48:08.961Z"
}